{"abi":[{"inputs":[{"internalType":"address","name":"creator","type":"address"},{"internalType":"uint256","name":"minimum","type":"uint256"}],"stateMutability":"nonpayable","type":"constructor"},{"inputs":[{"internalType":"string","name":"requestName","type":"string"}],"name":"approveRequest","outputs":[],"stateMutability":"payable","type":"function"},{"inputs":[],"name":"approverCount","outputs":[{"internalType":"uint256","name":"","type":"uint256"}],"stateMutability":"view","type":"function"},{"inputs":[{"internalType":"address","name":"","type":"address"}],"name":"approvers","outputs":[{"internalType":"bool","name":"","type":"bool"}],"stateMutability":"view","type":"function"},{"inputs":[],"name":"contribute","outputs":[],"stateMutability":"payable","type":"function"},{"inputs":[{"internalType":"string","name":"name","type":"string"},{"internalType":"string","name":"description","type":"string"},{"internalType":"uint256","name":"value","type":"uint256"},{"internalType":"address payable","name":"recipient","type":"address"}],"name":"createRequest","outputs":[],"stateMutability":"nonpayable","type":"function"},{"inputs":[{"internalType":"string","name":"name","type":"string"}],"name":"finalizeRequest","outputs":[],"stateMutability":"payable","type":"function"},{"inputs":[],"name":"manager","outputs":[{"internalType":"address","name":"","type":"address"}],"stateMutability":"view","type":"function"},{"inputs":[],"name":"minimumContribution","outputs":[{"internalType":"uint256","name":"","type":"uint256"}],"stateMutability":"view","type":"function"},{"inputs":[{"internalType":"uint256","name":"","type":"uint256"}],"name":"requestNames","outputs":[{"internalType":"string","name":"","type":"string"}],"stateMutability":"view","type":"function"},{"inputs":[{"internalType":"string","name":"","type":"string"}],"name":"requests","outputs":[{"internalType":"string","name":"description","type":"string"},{"internalType":"uint256","name":"value","type":"uint256"},{"internalType":"address payable","name":"recipient","type":"address"},{"internalType":"bool","name":"completed","type":"bool"},{"internalType":"uint256","name":"approvalCount","type":"uint256"}],"stateMutability":"view","type":"function"}],"devdoc":{"kind":"dev","methods":{},"version":1},"evm":{"assembly":"    /* \"Kickstarter.sol\":771:2723  contract Campaign {... */\n  mstore(0x40, 0x80)\n    /* \"Kickstarter.sol\":1327:1473  constructor(address creator, uint256 minimum) {... */\n  callvalue\n  dup1\n  iszero\n  tag_1\n  jumpi\n  0x00\n  dup1\n  revert\ntag_1:\n  pop\n  mload(0x40)\n  sub(codesize, bytecodeSize)\n  dup1\n  bytecodeSize\n  dup4\n  codecopy\n  dup2\n  dup2\n  add\n  0x40\n  mstore\n  dup2\n  add\n  swap1\n  tag_2\n  swap2\n  swap1\n  tag_3\n  jump\t// in\ntag_2:\n    /* \"Kickstarter.sol\":1393:1400  creator */\n  dup2\n    /* \"Kickstarter.sol\":1383:1390  manager */\n  0x01\n  0x00\n    /* \"Kickstarter.sol\":1383:1400  manager = creator */\n  0x0100\n  exp\n  dup2\n  sload\n  dup2\n  0xffffffffffffffffffffffffffffffffffffffff\n  mul\n  not\n  and\n  swap1\n  dup4\n  0xffffffffffffffffffffffffffffffffffffffff\n  and\n  mul\n  or\n  swap1\n  sstore\n  pop\n    /* \"Kickstarter.sol\":1432:1439  minimum */\n  dup1\n    /* \"Kickstarter.sol\":1410:1429  minimumContribution */\n  0x02\n    /* \"Kickstarter.sol\":1410:1439  minimumContribution = minimum */\n  dup2\n  swap1\n  sstore\n  pop\n    /* \"Kickstarter.sol\":1465:1466  0 */\n  0x00\n    /* \"Kickstarter.sol\":1449:1462  approverCount */\n  0x05\n    /* \"Kickstarter.sol\":1449:1466  approverCount = 0 */\n  dup2\n  swap1\n  sstore\n  pop\n    /* \"Kickstarter.sol\":1327:1473  constructor(address creator, uint256 minimum) {... */\n  pop\n  pop\n    /* \"Kickstarter.sol\":771:2723  contract Campaign {... */\n  jump(tag_6)\n    /* \"#utility.yul\":88:205   */\ntag_8:\n    /* \"#utility.yul\":197:198   */\n  0x00\n    /* \"#utility.yul\":194:195   */\n  dup1\n    /* \"#utility.yul\":187:199   */\n  revert\n    /* \"#utility.yul\":334:460   */\ntag_10:\n    /* \"#utility.yul\":371:378   */\n  0x00\n    /* \"#utility.yul\":411:453   */\n  0xffffffffffffffffffffffffffffffffffffffff\n    /* \"#utility.yul\":404:409   */\n  dup3\n    /* \"#utility.yul\":400:454   */\n  and\n    /* \"#utility.yul\":389:454   */\n  swap1\n  pop\n    /* \"#utility.yul\":334:460   */\n  swap2\n  swap1\n  pop\n  jump\t// out\n    /* \"#utility.yul\":466:562   */\ntag_11:\n    /* \"#utility.yul\":503:510   */\n  0x00\n    /* \"#utility.yul\":532:556   */\n  tag_23\n    /* \"#utility.yul\":550:555   */\n  dup3\n    /* \"#utility.yul\":532:556   */\n  tag_10\n  jump\t// in\ntag_23:\n    /* \"#utility.yul\":521:556   */\n  swap1\n  pop\n    /* \"#utility.yul\":466:562   */\n  swap2\n  swap1\n  pop\n  jump\t// out\n    /* \"#utility.yul\":568:690   */\ntag_12:\n    /* \"#utility.yul\":641:665   */\n  tag_25\n    /* \"#utility.yul\":659:664   */\n  dup2\n    /* \"#utility.yul\":641:665   */\n  tag_11\n  jump\t// in\ntag_25:\n    /* \"#utility.yul\":634:639   */\n  dup2\n    /* \"#utility.yul\":631:666   */\n  eq\n    /* \"#utility.yul\":621:684   */\n  tag_26\n  jumpi\n    /* \"#utility.yul\":680:681   */\n  0x00\n    /* \"#utility.yul\":677:678   */\n  dup1\n    /* \"#utility.yul\":670:682   */\n  revert\n    /* \"#utility.yul\":621:684   */\ntag_26:\n    /* \"#utility.yul\":568:690   */\n  pop\n  jump\t// out\n    /* \"#utility.yul\":696:839   */\ntag_13:\n    /* \"#utility.yul\":753:758   */\n  0x00\n    /* \"#utility.yul\":784:790   */\n  dup2\n    /* \"#utility.yul\":778:791   */\n  mload\n    /* \"#utility.yul\":769:791   */\n  swap1\n  pop\n    /* \"#utility.yul\":800:833   */\n  tag_28\n    /* \"#utility.yul\":827:832   */\n  dup2\n    /* \"#utility.yul\":800:833   */\n  tag_12\n  jump\t// in\ntag_28:\n    /* \"#utility.yul\":696:839   */\n  swap3\n  swap2\n  pop\n  pop\n  jump\t// out\n    /* \"#utility.yul\":845:922   */\ntag_14:\n    /* \"#utility.yul\":882:889   */\n  0x00\n    /* \"#utility.yul\":911:916   */\n  dup2\n    /* \"#utility.yul\":900:916   */\n  swap1\n  pop\n    /* \"#utility.yul\":845:922   */\n  swap2\n  swap1\n  pop\n  jump\t// out\n    /* \"#utility.yul\":928:1050   */\ntag_15:\n    /* \"#utility.yul\":1001:1025   */\n  tag_31\n    /* \"#utility.yul\":1019:1024   */\n  dup2\n    /* \"#utility.yul\":1001:1025   */\n  tag_14\n  jump\t// in\ntag_31:\n    /* \"#utility.yul\":994:999   */\n  dup2\n    /* \"#utility.yul\":991:1026   */\n  eq\n    /* \"#utility.yul\":981:1044   */\n  tag_32\n  jumpi\n    /* \"#utility.yul\":1040:1041   */\n  0x00\n    /* \"#utility.yul\":1037:1038   */\n  dup1\n    /* \"#utility.yul\":1030:1042   */\n  revert\n    /* \"#utility.yul\":981:1044   */\ntag_32:\n    /* \"#utility.yul\":928:1050   */\n  pop\n  jump\t// out\n    /* \"#utility.yul\":1056:1199   */\ntag_16:\n    /* \"#utility.yul\":1113:1118   */\n  0x00\n    /* \"#utility.yul\":1144:1150   */\n  dup2\n    /* \"#utility.yul\":1138:1151   */\n  mload\n    /* \"#utility.yul\":1129:1151   */\n  swap1\n  pop\n    /* \"#utility.yul\":1160:1193   */\n  tag_34\n    /* \"#utility.yul\":1187:1192   */\n  dup2\n    /* \"#utility.yul\":1160:1193   */\n  tag_15\n  jump\t// in\ntag_34:\n    /* \"#utility.yul\":1056:1199   */\n  swap3\n  swap2\n  pop\n  pop\n  jump\t// out\n    /* \"#utility.yul\":1205:1712   */\ntag_3:\n    /* \"#utility.yul\":1284:1290   */\n  0x00\n    /* \"#utility.yul\":1292:1298   */\n  dup1\n    /* \"#utility.yul\":1341:1343   */\n  0x40\n    /* \"#utility.yul\":1329:1338   */\n  dup4\n    /* \"#utility.yul\":1320:1327   */\n  dup6\n    /* \"#utility.yul\":1316:1339   */\n  sub\n    /* \"#utility.yul\":1312:1344   */\n  slt\n    /* \"#utility.yul\":1309:1428   */\n  iszero\n  tag_36\n  jumpi\n    /* \"#utility.yul\":1347:1426   */\n  tag_37\n  tag_8\n  jump\t// in\ntag_37:\n    /* \"#utility.yul\":1309:1428   */\ntag_36:\n    /* \"#utility.yul\":1467:1468   */\n  0x00\n    /* \"#utility.yul\":1492:1556   */\n  tag_38\n    /* \"#utility.yul\":1548:1555   */\n  dup6\n    /* \"#utility.yul\":1539:1545   */\n  dup3\n    /* \"#utility.yul\":1528:1537   */\n  dup7\n    /* \"#utility.yul\":1524:1546   */\n  add\n    /* \"#utility.yul\":1492:1556   */\n  tag_13\n  jump\t// in\ntag_38:\n    /* \"#utility.yul\":1482:1556   */\n  swap3\n  pop\n    /* \"#utility.yul\":1438:1566   */\n  pop\n    /* \"#utility.yul\":1605:1607   */\n  0x20\n    /* \"#utility.yul\":1631:1695   */\n  tag_39\n    /* \"#utility.yul\":1687:1694   */\n  dup6\n    /* \"#utility.yul\":1678:1684   */\n  dup3\n    /* \"#utility.yul\":1667:1676   */\n  dup7\n    /* \"#utility.yul\":1663:1685   */\n  add\n    /* \"#utility.yul\":1631:1695   */\n  tag_16\n  jump\t// in\ntag_39:\n    /* \"#utility.yul\":1621:1695   */\n  swap2\n  pop\n    /* \"#utility.yul\":1576:1705   */\n  pop\n    /* \"#utility.yul\":1205:1712   */\n  swap3\n  pop\n  swap3\n  swap1\n  pop\n  jump\t// out\n    /* \"Kickstarter.sol\":771:2723  contract Campaign {... */\ntag_6:\n  dataSize(sub_0)\n  dup1\n  dataOffset(sub_0)\n  0x00\n  codecopy\n  0x00\n  return\nstop\n\nsub_0: assembly {\n        /* \"Kickstarter.sol\":771:2723  contract Campaign {... */\n      mstore(0x40, 0x80)\n      jumpi(tag_1, lt(calldatasize, 0x04))\n      shr(0xe0, calldataload(0x00))\n      dup1\n      0x692d51d2\n      gt\n      tag_12\n      jumpi\n      dup1\n      0x692d51d2\n      eq\n      tag_7\n      jumpi\n      dup1\n      0x937e09b1\n      eq\n      tag_8\n      jumpi\n      dup1\n      0xc4d72051\n      eq\n      tag_9\n      jumpi\n      dup1\n      0xc7741265\n      eq\n      tag_10\n      jumpi\n      dup1\n      0xd7bb99ba\n      eq\n      tag_11\n      jumpi\n      jump(tag_1)\n    tag_12:\n      dup1\n      0x0a144391\n      eq\n      tag_2\n      jumpi\n      dup1\n      0x128e9be6\n      eq\n      tag_3\n      jumpi\n      dup1\n      0x16f0e29e\n      eq\n      tag_4\n      jumpi\n      dup1\n      0x1e0715df\n      eq\n      tag_5\n      jumpi\n      dup1\n      0x481c6a75\n      eq\n      tag_6\n      jumpi\n    tag_1:\n      0x00\n      dup1\n      revert\n        /* \"Kickstarter.sol\":1159:1200  mapping(address => bool) public approvers */\n    tag_2:\n      callvalue\n      dup1\n      iszero\n      tag_13\n      jumpi\n      0x00\n      dup1\n      revert\n    tag_13:\n      pop\n      tag_14\n      0x04\n      dup1\n      calldatasize\n      sub\n      dup2\n      add\n      swap1\n      tag_15\n      swap2\n      swap1\n      tag_16\n      jump\t// in\n    tag_15:\n      tag_17\n      jump\t// in\n    tag_14:\n      mload(0x40)\n      tag_18\n      swap2\n      swap1\n      tag_19\n      jump\t// in\n    tag_18:\n      mload(0x40)\n      dup1\n      swap2\n      sub\n      swap1\n      return\n        /* \"Kickstarter.sol\":1206:1234  uint256 public approverCount */\n    tag_3:\n      callvalue\n      dup1\n      iszero\n      tag_20\n      jumpi\n      0x00\n      dup1\n      revert\n    tag_20:\n      pop\n      tag_21\n      tag_22\n      jump\t// in\n    tag_21:\n      mload(0x40)\n      tag_23\n      swap2\n      swap1\n      tag_24\n      jump\t// in\n    tag_23:\n      mload(0x40)\n      dup1\n      swap2\n      sub\n      swap1\n      return\n        /* \"Kickstarter.sol\":1125:1153  string[] public requestNames */\n    tag_4:\n      callvalue\n      dup1\n      iszero\n      tag_25\n      jumpi\n      0x00\n      dup1\n      revert\n    tag_25:\n      pop\n      tag_26\n      0x04\n      dup1\n      calldatasize\n      sub\n      dup2\n      add\n      swap1\n      tag_27\n      swap2\n      swap1\n      tag_28\n      jump\t// in\n    tag_27:\n      tag_29\n      jump\t// in\n    tag_26:\n      mload(0x40)\n      tag_30\n      swap2\n      swap1\n      tag_31\n      jump\t// in\n    tag_30:\n      mload(0x40)\n      dup1\n      swap2\n      sub\n      swap1\n      return\n        /* \"Kickstarter.sol\":2075:2400  function approveRequest(string memory requestName) public payable{... */\n    tag_5:\n      tag_32\n      0x04\n      dup1\n      calldatasize\n      sub\n      dup2\n      add\n      swap1\n      tag_33\n      swap2\n      swap1\n      tag_34\n      jump\t// in\n    tag_33:\n      tag_35\n      jump\t// in\n    tag_32:\n      stop\n        /* \"Kickstarter.sol\":1057:1079  address public manager */\n    tag_6:\n      callvalue\n      dup1\n      iszero\n      tag_36\n      jumpi\n      0x00\n      dup1\n      revert\n    tag_36:\n      pop\n      tag_37\n      tag_38\n      jump\t// in\n    tag_37:\n      mload(0x40)\n      tag_39\n      swap2\n      swap1\n      tag_40\n      jump\t// in\n    tag_39:\n      mload(0x40)\n      dup1\n      swap2\n      sub\n      swap1\n      return\n        /* \"Kickstarter.sol\":1008:1050  mapping(string => Request) public requests */\n    tag_7:\n      callvalue\n      dup1\n      iszero\n      tag_41\n      jumpi\n      0x00\n      dup1\n      revert\n    tag_41:\n      pop\n      tag_42\n      0x04\n      dup1\n      calldatasize\n      sub\n      dup2\n      add\n      swap1\n      tag_43\n      swap2\n      swap1\n      tag_34\n      jump\t// in\n    tag_43:\n      tag_44\n      jump\t// in\n    tag_42:\n      mload(0x40)\n      tag_45\n      swap6\n      swap5\n      swap4\n      swap3\n      swap2\n      swap1\n      tag_46\n      jump\t// in\n    tag_45:\n      mload(0x40)\n      dup1\n      swap2\n      sub\n      swap1\n      return\n        /* \"Kickstarter.sol\":1085:1119  uint256 public minimumContribution */\n    tag_8:\n      callvalue\n      dup1\n      iszero\n      tag_47\n      jumpi\n      0x00\n      dup1\n      revert\n    tag_47:\n      pop\n      tag_48\n      tag_49\n      jump\t// in\n    tag_48:\n      mload(0x40)\n      tag_50\n      swap2\n      swap1\n      tag_24\n      jump\t// in\n    tag_50:\n      mload(0x40)\n      dup1\n      swap2\n      sub\n      swap1\n      return\n        /* \"Kickstarter.sol\":2406:2721  function finalizeRequest(string memory name) public payable restricted{... */\n    tag_9:\n      tag_51\n      0x04\n      dup1\n      calldatasize\n      sub\n      dup2\n      add\n      swap1\n      tag_52\n      swap2\n      swap1\n      tag_34\n      jump\t// in\n    tag_52:\n      tag_53\n      jump\t// in\n    tag_51:\n      stop\n        /* \"Kickstarter.sol\":1664:2069  function createRequest(... */\n    tag_10:\n      callvalue\n      dup1\n      iszero\n      tag_54\n      jumpi\n      0x00\n      dup1\n      revert\n    tag_54:\n      pop\n      tag_55\n      0x04\n      dup1\n      calldatasize\n      sub\n      dup2\n      add\n      swap1\n      tag_56\n      swap2\n      swap1\n      tag_57\n      jump\t// in\n    tag_56:\n      tag_58\n      jump\t// in\n    tag_55:\n      stop\n        /* \"Kickstarter.sol\":1479:1658  function contribute() public payable {... */\n    tag_11:\n      tag_59\n      tag_60\n      jump\t// in\n    tag_59:\n      stop\n        /* \"Kickstarter.sol\":1159:1200  mapping(address => bool) public approvers */\n    tag_17:\n      mstore(0x20, 0x04)\n      dup1\n      0x00\n      mstore\n      keccak256(0x00, 0x40)\n      0x00\n      swap2\n      pop\n      sload\n      swap1\n      0x0100\n      exp\n      swap1\n      div\n      0xff\n      and\n      dup2\n      jump\t// out\n        /* \"Kickstarter.sol\":1206:1234  uint256 public approverCount */\n    tag_22:\n      sload(0x05)\n      dup2\n      jump\t// out\n        /* \"Kickstarter.sol\":1125:1153  string[] public requestNames */\n    tag_29:\n      0x03\n      dup2\n      dup2\n      sload\n      dup2\n      lt\n      tag_61\n      jumpi\n      0x00\n      dup1\n      revert\n    tag_61:\n      swap1\n      0x00\n      mstore\n      keccak256(0x00, 0x20)\n      add\n      0x00\n      swap2\n      pop\n      swap1\n      pop\n      dup1\n      sload\n      tag_63\n      swap1\n      tag_64\n      jump\t// in\n    tag_63:\n      dup1\n      0x1f\n      add\n      0x20\n      dup1\n      swap2\n      div\n      mul\n      0x20\n      add\n      mload(0x40)\n      swap1\n      dup2\n      add\n      0x40\n      mstore\n      dup1\n      swap3\n      swap2\n      swap1\n      dup2\n      dup2\n      mstore\n      0x20\n      add\n      dup3\n      dup1\n      sload\n      tag_65\n      swap1\n      tag_64\n      jump\t// in\n    tag_65:\n      dup1\n      iszero\n      tag_66\n      jumpi\n      dup1\n      0x1f\n      lt\n      tag_67\n      jumpi\n      0x0100\n      dup1\n      dup4\n      sload\n      div\n      mul\n      dup4\n      mstore\n      swap2\n      0x20\n      add\n      swap2\n      jump(tag_66)\n    tag_67:\n      dup3\n      add\n      swap2\n      swap1\n      0x00\n      mstore\n      keccak256(0x00, 0x20)\n      swap1\n    tag_68:\n      dup2\n      sload\n      dup2\n      mstore\n      swap1\n      0x01\n      add\n      swap1\n      0x20\n      add\n      dup1\n      dup4\n      gt\n      tag_68\n      jumpi\n      dup3\n      swap1\n      sub\n      0x1f\n      and\n      dup3\n      add\n      swap2\n    tag_66:\n      pop\n      pop\n      pop\n      pop\n      pop\n      dup2\n      jump\t// out\n        /* \"Kickstarter.sol\":2075:2400  function approveRequest(string memory requestName) public payable{... */\n    tag_35:\n        /* \"Kickstarter.sol\":2150:2167  Request storage r */\n      0x00\n        /* \"Kickstarter.sol\":2170:2178  requests */\n      dup1\n        /* \"Kickstarter.sol\":2179:2190  requestName */\n      dup3\n        /* \"Kickstarter.sol\":2170:2191  requests[requestName] */\n      mload(0x40)\n      tag_70\n      swap2\n      swap1\n      tag_71\n      jump\t// in\n    tag_70:\n      swap1\n      dup2\n      mstore\n      0x20\n      add\n      mload(0x40)\n      dup1\n      swap2\n      sub\n      swap1\n      keccak256\n        /* \"Kickstarter.sol\":2150:2191  Request storage r = requests[requestName] */\n      swap1\n      pop\n        /* \"Kickstarter.sol\":2209:2218  approvers */\n      0x04\n        /* \"Kickstarter.sol\":2209:2230  approvers[msg.sender] */\n      0x00\n        /* \"Kickstarter.sol\":2219:2229  msg.sender */\n      caller\n        /* \"Kickstarter.sol\":2209:2230  approvers[msg.sender] */\n      0xffffffffffffffffffffffffffffffffffffffff\n      and\n      0xffffffffffffffffffffffffffffffffffffffff\n      and\n      dup2\n      mstore\n      0x20\n      add\n      swap1\n      dup2\n      mstore\n      0x20\n      add\n      0x00\n      keccak256\n      0x00\n      swap1\n      sload\n      swap1\n      0x0100\n      exp\n      swap1\n      div\n      0xff\n      and\n        /* \"Kickstarter.sol\":2201:2231  require(approvers[msg.sender]) */\n      tag_72\n      jumpi\n      0x00\n      dup1\n      revert\n    tag_72:\n        /* \"Kickstarter.sol\":2250:2251  r */\n      dup1\n        /* \"Kickstarter.sol\":2250:2261  r.approvals */\n      0x04\n      add\n        /* \"Kickstarter.sol\":2250:2273  r.approvals[msg.sender] */\n      0x00\n        /* \"Kickstarter.sol\":2262:2272  msg.sender */\n      caller\n        /* \"Kickstarter.sol\":2250:2273  r.approvals[msg.sender] */\n      0xffffffffffffffffffffffffffffffffffffffff\n      and\n      0xffffffffffffffffffffffffffffffffffffffff\n      and\n      dup2\n      mstore\n      0x20\n      add\n      swap1\n      dup2\n      mstore\n      0x20\n      add\n      0x00\n      keccak256\n      0x00\n      swap1\n      sload\n      swap1\n      0x0100\n      exp\n      swap1\n      div\n      0xff\n      and\n        /* \"Kickstarter.sol\":2249:2273  !r.approvals[msg.sender] */\n      iszero\n        /* \"Kickstarter.sol\":2241:2274  require(!r.approvals[msg.sender]) */\n      tag_73\n      jumpi\n      0x00\n      dup1\n      revert\n    tag_73:\n        /* \"Kickstarter.sol\":2307:2308  0 */\n      0x00\n        /* \"Kickstarter.sol\":2297:2298  r */\n      dup2\n        /* \"Kickstarter.sol\":2297:2304  r.value */\n      0x01\n      add\n      sload\n        /* \"Kickstarter.sol\":2297:2308  r.value > 0 */\n      gt\n        /* \"Kickstarter.sol\":2293:2394  if (r.value > 0){... */\n      iszero\n      tag_74\n      jumpi\n        /* \"Kickstarter.sol\":2348:2352  true */\n      0x01\n        /* \"Kickstarter.sol\":2323:2324  r */\n      dup2\n        /* \"Kickstarter.sol\":2323:2334  r.approvals */\n      0x04\n      add\n        /* \"Kickstarter.sol\":2323:2346  r.approvals[msg.sender] */\n      0x00\n        /* \"Kickstarter.sol\":2335:2345  msg.sender */\n      caller\n        /* \"Kickstarter.sol\":2323:2346  r.approvals[msg.sender] */\n      0xffffffffffffffffffffffffffffffffffffffff\n      and\n      0xffffffffffffffffffffffffffffffffffffffff\n      and\n      dup2\n      mstore\n      0x20\n      add\n      swap1\n      dup2\n      mstore\n      0x20\n      add\n      0x00\n      keccak256\n      0x00\n        /* \"Kickstarter.sol\":2323:2352  r.approvals[msg.sender]= true */\n      0x0100\n      exp\n      dup2\n      sload\n      dup2\n      0xff\n      mul\n      not\n      and\n      swap1\n      dup4\n      iszero\n      iszero\n      mul\n      or\n      swap1\n      sstore\n      pop\n        /* \"Kickstarter.sol\":2366:2367  r */\n      dup1\n        /* \"Kickstarter.sol\":2366:2381  r.approvalCount */\n      0x03\n      add\n      0x00\n        /* \"Kickstarter.sol\":2366:2383  r.approvalCount++ */\n      dup2\n      sload\n      dup1\n      swap3\n      swap2\n      swap1\n      tag_75\n      swap1\n      tag_76\n      jump\t// in\n    tag_75:\n      swap2\n      swap1\n      pop\n      sstore\n      pop\n        /* \"Kickstarter.sol\":2293:2394  if (r.value > 0){... */\n    tag_74:\n        /* \"Kickstarter.sol\":2140:2400  {... */\n      pop\n        /* \"Kickstarter.sol\":2075:2400  function approveRequest(string memory requestName) public payable{... */\n      pop\n      jump\t// out\n        /* \"Kickstarter.sol\":1057:1079  address public manager */\n    tag_38:\n      0x01\n      0x00\n      swap1\n      sload\n      swap1\n      0x0100\n      exp\n      swap1\n      div\n      0xffffffffffffffffffffffffffffffffffffffff\n      and\n      dup2\n      jump\t// out\n        /* \"Kickstarter.sol\":1008:1050  mapping(string => Request) public requests */\n    tag_44:\n      0x00\n      dup2\n      dup1\n      mload\n      0x20\n      dup2\n      add\n      dup3\n      add\n      dup1\n      mload\n      dup5\n      dup3\n      mstore\n      0x20\n      dup4\n      add\n      0x20\n      dup6\n      add\n      keccak256\n      dup2\n      dup4\n      mstore\n      dup1\n      swap6\n      pop\n      pop\n      pop\n      pop\n      pop\n      pop\n      0x00\n      swap2\n      pop\n      swap1\n      pop\n      dup1\n      0x00\n      add\n      dup1\n      sload\n      tag_77\n      swap1\n      tag_64\n      jump\t// in\n    tag_77:\n      dup1\n      0x1f\n      add\n      0x20\n      dup1\n      swap2\n      div\n      mul\n      0x20\n      add\n      mload(0x40)\n      swap1\n      dup2\n      add\n      0x40\n      mstore\n      dup1\n      swap3\n      swap2\n      swap1\n      dup2\n      dup2\n      mstore\n      0x20\n      add\n      dup3\n      dup1\n      sload\n      tag_78\n      swap1\n      tag_64\n      jump\t// in\n    tag_78:\n      dup1\n      iszero\n      tag_79\n      jumpi\n      dup1\n      0x1f\n      lt\n      tag_80\n      jumpi\n      0x0100\n      dup1\n      dup4\n      sload\n      div\n      mul\n      dup4\n      mstore\n      swap2\n      0x20\n      add\n      swap2\n      jump(tag_79)\n    tag_80:\n      dup3\n      add\n      swap2\n      swap1\n      0x00\n      mstore\n      keccak256(0x00, 0x20)\n      swap1\n    tag_81:\n      dup2\n      sload\n      dup2\n      mstore\n      swap1\n      0x01\n      add\n      swap1\n      0x20\n      add\n      dup1\n      dup4\n      gt\n      tag_81\n      jumpi\n      dup3\n      swap1\n      sub\n      0x1f\n      and\n      dup3\n      add\n      swap2\n    tag_79:\n      pop\n      pop\n      pop\n      pop\n      pop\n      swap1\n      dup1\n      0x01\n      add\n      sload\n      swap1\n      dup1\n      0x02\n      add\n      0x00\n      swap1\n      sload\n      swap1\n      0x0100\n      exp\n      swap1\n      div\n      0xffffffffffffffffffffffffffffffffffffffff\n      and\n      swap1\n      dup1\n      0x02\n      add\n      0x14\n      swap1\n      sload\n      swap1\n      0x0100\n      exp\n      swap1\n      div\n      0xff\n      and\n      swap1\n      dup1\n      0x03\n      add\n      sload\n      swap1\n      pop\n      dup6\n      jump\t// out\n        /* \"Kickstarter.sol\":1085:1119  uint256 public minimumContribution */\n    tag_49:\n      sload(0x02)\n      dup2\n      jump\t// out\n        /* \"Kickstarter.sol\":2406:2721  function finalizeRequest(string memory name) public payable restricted{... */\n    tag_53:\n        /* \"Kickstarter.sol\":1295:1302  manager */\n      0x01\n      0x00\n      swap1\n      sload\n      swap1\n      0x0100\n      exp\n      swap1\n      div\n      0xffffffffffffffffffffffffffffffffffffffff\n      and\n        /* \"Kickstarter.sol\":1281:1302  msg.sender == manager */\n      0xffffffffffffffffffffffffffffffffffffffff\n      and\n        /* \"Kickstarter.sol\":1281:1291  msg.sender */\n      caller\n        /* \"Kickstarter.sol\":1281:1302  msg.sender == manager */\n      0xffffffffffffffffffffffffffffffffffffffff\n      and\n      eq\n        /* \"Kickstarter.sol\":1273:1303  require(msg.sender == manager) */\n      tag_83\n      jumpi\n      0x00\n      dup1\n      revert\n    tag_83:\n        /* \"Kickstarter.sol\":2486:2503  Request storage r */\n      0x00\n        /* \"Kickstarter.sol\":2506:2514  requests */\n      dup1\n        /* \"Kickstarter.sol\":2515:2519  name */\n      dup3\n        /* \"Kickstarter.sol\":2506:2520  requests[name] */\n      mload(0x40)\n      tag_85\n      swap2\n      swap1\n      tag_71\n      jump\t// in\n    tag_85:\n      swap1\n      dup2\n      mstore\n      0x20\n      add\n      mload(0x40)\n      dup1\n      swap2\n      sub\n      swap1\n      keccak256\n        /* \"Kickstarter.sol\":2486:2520  Request storage r = requests[name] */\n      swap1\n      pop\n        /* \"Kickstarter.sol\":2573:2574  2 */\n      0x02\n        /* \"Kickstarter.sol\":2557:2570  approverCount */\n      sload(0x05)\n        /* \"Kickstarter.sol\":2557:2574  approverCount / 2 */\n      tag_86\n      swap2\n      swap1\n      tag_87\n      jump\t// in\n    tag_86:\n        /* \"Kickstarter.sol\":2538:2539  r */\n      dup2\n        /* \"Kickstarter.sol\":2538:2553  r.approvalCount */\n      0x03\n      add\n      sload\n        /* \"Kickstarter.sol\":2538:2575  r.approvalCount > (approverCount / 2) */\n      gt\n        /* \"Kickstarter.sol\":2530:2599  require(r.approvalCount > (approverCount / 2), \"No enough approvals\") */\n      tag_88\n      jumpi\n      mload(0x40)\n      0x08c379a000000000000000000000000000000000000000000000000000000000\n      dup2\n      mstore\n      0x04\n      add\n      tag_89\n      swap1\n      tag_90\n      jump\t// in\n    tag_89:\n      mload(0x40)\n      dup1\n      swap2\n      sub\n      swap1\n      revert\n    tag_88:\n        /* \"Kickstarter.sol\":2618:2619  r */\n      dup1\n        /* \"Kickstarter.sol\":2618:2629  r.completed */\n      0x02\n      add\n      0x14\n      swap1\n      sload\n      swap1\n      0x0100\n      exp\n      swap1\n      div\n      0xff\n      and\n        /* \"Kickstarter.sol\":2617:2629  !r.completed */\n      iszero\n        /* \"Kickstarter.sol\":2609:2647  require(!r.completed, \"completed yet\") */\n      tag_91\n      jumpi\n      mload(0x40)\n      0x08c379a000000000000000000000000000000000000000000000000000000000\n      dup2\n      mstore\n      0x04\n      add\n      tag_92\n      swap1\n      tag_93\n      jump\t// in\n    tag_92:\n      mload(0x40)\n      dup1\n      swap2\n      sub\n      swap1\n      revert\n    tag_91:\n        /* \"Kickstarter.sol\":2658:2659  r */\n      dup1\n        /* \"Kickstarter.sol\":2658:2669  r.recipient */\n      0x02\n      add\n      0x00\n      swap1\n      sload\n      swap1\n      0x0100\n      exp\n      swap1\n      div\n      0xffffffffffffffffffffffffffffffffffffffff\n      and\n        /* \"Kickstarter.sol\":2658:2678  r.recipient.transfer */\n      0xffffffffffffffffffffffffffffffffffffffff\n      and\n        /* \"Kickstarter.sol\":2658:2687  r.recipient.transfer(r.value) */\n      0x08fc\n        /* \"Kickstarter.sol\":2679:2680  r */\n      dup3\n        /* \"Kickstarter.sol\":2679:2686  r.value */\n      0x01\n      add\n      sload\n        /* \"Kickstarter.sol\":2658:2687  r.recipient.transfer(r.value) */\n      swap1\n      dup2\n      iszero\n      mul\n      swap1\n      mload(0x40)\n      0x00\n      mload(0x40)\n      dup1\n      dup4\n      sub\n      dup2\n      dup6\n      dup9\n      dup9\n      call\n      swap4\n      pop\n      pop\n      pop\n      pop\n      iszero\n      dup1\n      iszero\n      tag_95\n      jumpi\n      returndatasize\n      0x00\n      dup1\n      returndatacopy\n      revert(0x00, returndatasize)\n    tag_95:\n      pop\n        /* \"Kickstarter.sol\":2709:2713  true */\n      0x01\n        /* \"Kickstarter.sol\":2697:2698  r */\n      dup2\n        /* \"Kickstarter.sol\":2697:2708  r.completed */\n      0x02\n      add\n      0x14\n        /* \"Kickstarter.sol\":2697:2713  r.completed=true */\n      0x0100\n      exp\n      dup2\n      sload\n      dup2\n      0xff\n      mul\n      not\n      and\n      swap1\n      dup4\n      iszero\n      iszero\n      mul\n      or\n      swap1\n      sstore\n      pop\n        /* \"Kickstarter.sol\":2476:2721  {... */\n      pop\n        /* \"Kickstarter.sol\":2406:2721  function finalizeRequest(string memory name) public payable restricted{... */\n      pop\n      jump\t// out\n        /* \"Kickstarter.sol\":1664:2069  function createRequest(... */\n    tag_58:\n        /* \"Kickstarter.sol\":1295:1302  manager */\n      0x01\n      0x00\n      swap1\n      sload\n      swap1\n      0x0100\n      exp\n      swap1\n      div\n      0xffffffffffffffffffffffffffffffffffffffff\n      and\n        /* \"Kickstarter.sol\":1281:1302  msg.sender == manager */\n      0xffffffffffffffffffffffffffffffffffffffff\n      and\n        /* \"Kickstarter.sol\":1281:1291  msg.sender */\n      caller\n        /* \"Kickstarter.sol\":1281:1302  msg.sender == manager */\n      0xffffffffffffffffffffffffffffffffffffffff\n      and\n      eq\n        /* \"Kickstarter.sol\":1273:1303  require(msg.sender == manager) */\n      tag_97\n      jumpi\n      0x00\n      dup1\n      revert\n    tag_97:\n        /* \"Kickstarter.sol\":1842:1859  Request storage r */\n      0x00\n        /* \"Kickstarter.sol\":1862:1870  requests */\n      dup1\n        /* \"Kickstarter.sol\":1871:1875  name */\n      dup6\n        /* \"Kickstarter.sol\":1862:1876  requests[name] */\n      mload(0x40)\n      tag_99\n      swap2\n      swap1\n      tag_71\n      jump\t// in\n    tag_99:\n      swap1\n      dup2\n      mstore\n      0x20\n      add\n      mload(0x40)\n      dup1\n      swap2\n      sub\n      swap1\n      keccak256\n        /* \"Kickstarter.sol\":1842:1876  Request storage r = requests[name] */\n      swap1\n      pop\n        /* \"Kickstarter.sol\":1886:1898  requestNames */\n      0x03\n        /* \"Kickstarter.sol\":1904:1908  name */\n      dup6\n        /* \"Kickstarter.sol\":1886:1909  requestNames.push(name) */\n      swap1\n      dup1\n      0x01\n      dup2\n      sload\n      add\n      dup1\n      dup3\n      sstore\n      dup1\n      swap2\n      pop\n      pop\n      0x01\n      swap1\n      sub\n      swap1\n      0x00\n      mstore\n      keccak256(0x00, 0x20)\n      add\n      0x00\n      swap1\n      swap2\n      swap1\n      swap2\n      swap1\n      swap2\n      pop\n      swap1\n      dup1\n      mload\n      swap1\n      0x20\n      add\n      swap1\n      tag_101\n      swap3\n      swap2\n      swap1\n      tag_102\n      jump\t// in\n    tag_101:\n      pop\n        /* \"Kickstarter.sol\":1935:1946  description */\n      dup4\n        /* \"Kickstarter.sol\":1919:1920  r */\n      dup2\n        /* \"Kickstarter.sol\":1919:1932  r.description */\n      0x00\n      add\n        /* \"Kickstarter.sol\":1919:1946  r.description = description */\n      swap1\n      dup1\n      mload\n      swap1\n      0x20\n      add\n      swap1\n      tag_103\n      swap3\n      swap2\n      swap1\n      tag_102\n      jump\t// in\n    tag_103:\n      pop\n        /* \"Kickstarter.sol\":1966:1971  value */\n      dup3\n        /* \"Kickstarter.sol\":1956:1957  r */\n      dup2\n        /* \"Kickstarter.sol\":1956:1963  r.value */\n      0x01\n      add\n        /* \"Kickstarter.sol\":1956:1971  r.value = value */\n      dup2\n      swap1\n      sstore\n      pop\n        /* \"Kickstarter.sol\":1995:2004  recipient */\n      dup2\n        /* \"Kickstarter.sol\":1981:1982  r */\n      dup2\n        /* \"Kickstarter.sol\":1981:1992  r.recipient */\n      0x02\n      add\n      0x00\n        /* \"Kickstarter.sol\":1981:2004  r.recipient = recipient */\n      0x0100\n      exp\n      dup2\n      sload\n      dup2\n      0xffffffffffffffffffffffffffffffffffffffff\n      mul\n      not\n      and\n      swap1\n      dup4\n      0xffffffffffffffffffffffffffffffffffffffff\n      and\n      mul\n      or\n      swap1\n      sstore\n      pop\n        /* \"Kickstarter.sol\":2028:2033  false */\n      0x00\n        /* \"Kickstarter.sol\":2014:2015  r */\n      dup2\n        /* \"Kickstarter.sol\":2014:2025  r.completed */\n      0x02\n      add\n      0x14\n        /* \"Kickstarter.sol\":2014:2033  r.completed = false */\n      0x0100\n      exp\n      dup2\n      sload\n      dup2\n      0xff\n      mul\n      not\n      and\n      swap1\n      dup4\n      iszero\n      iszero\n      mul\n      or\n      swap1\n      sstore\n      pop\n        /* \"Kickstarter.sol\":2061:2062  0 */\n      0x00\n        /* \"Kickstarter.sol\":2043:2044  r */\n      dup2\n        /* \"Kickstarter.sol\":2043:2058  r.approvalCount */\n      0x03\n      add\n        /* \"Kickstarter.sol\":2043:2062  r.approvalCount = 0 */\n      dup2\n      swap1\n      sstore\n      pop\n        /* \"Kickstarter.sol\":1832:2069  {... */\n      pop\n        /* \"Kickstarter.sol\":1664:2069  function createRequest(... */\n      pop\n      pop\n      pop\n      pop\n      jump\t// out\n        /* \"Kickstarter.sol\":1479:1658  function contribute() public payable {... */\n    tag_60:\n        /* \"Kickstarter.sol\":1547:1566  minimumContribution */\n      sload(0x02)\n        /* \"Kickstarter.sol\":1534:1543  msg.value */\n      callvalue\n        /* \"Kickstarter.sol\":1534:1566  msg.value >= minimumContribution */\n      lt\n      iszero\n        /* \"Kickstarter.sol\":1526:1587  require(msg.value >= minimumContribution, \"not enough money\") */\n      tag_105\n      jumpi\n      mload(0x40)\n      0x08c379a000000000000000000000000000000000000000000000000000000000\n      dup2\n      mstore\n      0x04\n      add\n      tag_106\n      swap1\n      tag_107\n      jump\t// in\n    tag_106:\n      mload(0x40)\n      dup1\n      swap2\n      sub\n      swap1\n      revert\n    tag_105:\n        /* \"Kickstarter.sol\":1621:1625  true */\n      0x01\n        /* \"Kickstarter.sol\":1597:1606  approvers */\n      0x04\n        /* \"Kickstarter.sol\":1597:1618  approvers[msg.sender] */\n      0x00\n        /* \"Kickstarter.sol\":1607:1617  msg.sender */\n      caller\n        /* \"Kickstarter.sol\":1597:1618  approvers[msg.sender] */\n      0xffffffffffffffffffffffffffffffffffffffff\n      and\n      0xffffffffffffffffffffffffffffffffffffffff\n      and\n      dup2\n      mstore\n      0x20\n      add\n      swap1\n      dup2\n      mstore\n      0x20\n      add\n      0x00\n      keccak256\n      0x00\n        /* \"Kickstarter.sol\":1597:1625  approvers[msg.sender] = true */\n      0x0100\n      exp\n      dup2\n      sload\n      dup2\n      0xff\n      mul\n      not\n      and\n      swap1\n      dup4\n      iszero\n      iszero\n      mul\n      or\n      swap1\n      sstore\n      pop\n        /* \"Kickstarter.sol\":1635:1648  approverCount */\n      0x05\n      0x00\n        /* \"Kickstarter.sol\":1635:1651  approverCount ++ */\n      dup2\n      sload\n      dup1\n      swap3\n      swap2\n      swap1\n      tag_108\n      swap1\n      tag_76\n      jump\t// in\n    tag_108:\n      swap2\n      swap1\n      pop\n      sstore\n      pop\n        /* \"Kickstarter.sol\":1479:1658  function contribute() public payable {... */\n      jump\t// out\n    tag_102:\n      dup3\n      dup1\n      sload\n      tag_109\n      swap1\n      tag_64\n      jump\t// in\n    tag_109:\n      swap1\n      0x00\n      mstore\n      keccak256(0x00, 0x20)\n      swap1\n      0x1f\n      add\n      0x20\n      swap1\n      div\n      dup2\n      add\n      swap3\n      dup3\n      tag_111\n      jumpi\n      0x00\n      dup6\n      sstore\n      jump(tag_110)\n    tag_111:\n      dup3\n      0x1f\n      lt\n      tag_112\n      jumpi\n      dup1\n      mload\n      not(0xff)\n      and\n      dup4\n      dup1\n      add\n      or\n      dup6\n      sstore\n      jump(tag_110)\n    tag_112:\n      dup3\n      dup1\n      add\n      0x01\n      add\n      dup6\n      sstore\n      dup3\n      iszero\n      tag_110\n      jumpi\n      swap2\n      dup3\n      add\n    tag_113:\n      dup3\n      dup2\n      gt\n      iszero\n      tag_114\n      jumpi\n      dup3\n      mload\n      dup3\n      sstore\n      swap2\n      0x20\n      add\n      swap2\n      swap1\n      0x01\n      add\n      swap1\n      jump(tag_113)\n    tag_114:\n    tag_110:\n      pop\n      swap1\n      pop\n      tag_115\n      swap2\n      swap1\n      tag_116\n      jump\t// in\n    tag_115:\n      pop\n      swap1\n      jump\t// out\n    tag_116:\n    tag_117:\n      dup1\n      dup3\n      gt\n      iszero\n      tag_118\n      jumpi\n      0x00\n      dup2\n      0x00\n      swap1\n      sstore\n      pop\n      0x01\n      add\n      jump(tag_117)\n    tag_118:\n      pop\n      swap1\n      jump\t// out\n        /* \"#utility.yul\":7:82   */\n    tag_119:\n        /* \"#utility.yul\":40:46   */\n      0x00\n        /* \"#utility.yul\":73:75   */\n      0x40\n        /* \"#utility.yul\":67:76   */\n      mload\n        /* \"#utility.yul\":57:76   */\n      swap1\n      pop\n        /* \"#utility.yul\":7:82   */\n      swap1\n      jump\t// out\n        /* \"#utility.yul\":88:205   */\n    tag_120:\n        /* \"#utility.yul\":197:198   */\n      0x00\n        /* \"#utility.yul\":194:195   */\n      dup1\n        /* \"#utility.yul\":187:199   */\n      revert\n        /* \"#utility.yul\":211:328   */\n    tag_121:\n        /* \"#utility.yul\":320:321   */\n      0x00\n        /* \"#utility.yul\":317:318   */\n      dup1\n        /* \"#utility.yul\":310:322   */\n      revert\n        /* \"#utility.yul\":334:460   */\n    tag_122:\n        /* \"#utility.yul\":371:378   */\n      0x00\n        /* \"#utility.yul\":411:453   */\n      0xffffffffffffffffffffffffffffffffffffffff\n        /* \"#utility.yul\":404:409   */\n      dup3\n        /* \"#utility.yul\":400:454   */\n      and\n        /* \"#utility.yul\":389:454   */\n      swap1\n      pop\n        /* \"#utility.yul\":334:460   */\n      swap2\n      swap1\n      pop\n      jump\t// out\n        /* \"#utility.yul\":466:562   */\n    tag_123:\n        /* \"#utility.yul\":503:510   */\n      0x00\n        /* \"#utility.yul\":532:556   */\n      tag_168\n        /* \"#utility.yul\":550:555   */\n      dup3\n        /* \"#utility.yul\":532:556   */\n      tag_122\n      jump\t// in\n    tag_168:\n        /* \"#utility.yul\":521:556   */\n      swap1\n      pop\n        /* \"#utility.yul\":466:562   */\n      swap2\n      swap1\n      pop\n      jump\t// out\n        /* \"#utility.yul\":568:690   */\n    tag_124:\n        /* \"#utility.yul\":641:665   */\n      tag_170\n        /* \"#utility.yul\":659:664   */\n      dup2\n        /* \"#utility.yul\":641:665   */\n      tag_123\n      jump\t// in\n    tag_170:\n        /* \"#utility.yul\":634:639   */\n      dup2\n        /* \"#utility.yul\":631:666   */\n      eq\n        /* \"#utility.yul\":621:684   */\n      tag_171\n      jumpi\n        /* \"#utility.yul\":680:681   */\n      0x00\n        /* \"#utility.yul\":677:678   */\n      dup1\n        /* \"#utility.yul\":670:682   */\n      revert\n        /* \"#utility.yul\":621:684   */\n    tag_171:\n        /* \"#utility.yul\":568:690   */\n      pop\n      jump\t// out\n        /* \"#utility.yul\":696:835   */\n    tag_125:\n        /* \"#utility.yul\":742:747   */\n      0x00\n        /* \"#utility.yul\":780:786   */\n      dup2\n        /* \"#utility.yul\":767:787   */\n      calldataload\n        /* \"#utility.yul\":758:787   */\n      swap1\n      pop\n        /* \"#utility.yul\":796:829   */\n      tag_173\n        /* \"#utility.yul\":823:828   */\n      dup2\n        /* \"#utility.yul\":796:829   */\n      tag_124\n      jump\t// in\n    tag_173:\n        /* \"#utility.yul\":696:835   */\n      swap3\n      swap2\n      pop\n      pop\n      jump\t// out\n        /* \"#utility.yul\":841:1170   */\n    tag_16:\n        /* \"#utility.yul\":900:906   */\n      0x00\n        /* \"#utility.yul\":949:951   */\n      0x20\n        /* \"#utility.yul\":937:946   */\n      dup3\n        /* \"#utility.yul\":928:935   */\n      dup5\n        /* \"#utility.yul\":924:947   */\n      sub\n        /* \"#utility.yul\":920:952   */\n      slt\n        /* \"#utility.yul\":917:1036   */\n      iszero\n      tag_175\n      jumpi\n        /* \"#utility.yul\":955:1034   */\n      tag_176\n      tag_120\n      jump\t// in\n    tag_176:\n        /* \"#utility.yul\":917:1036   */\n    tag_175:\n        /* \"#utility.yul\":1075:1076   */\n      0x00\n        /* \"#utility.yul\":1100:1153   */\n      tag_177\n        /* \"#utility.yul\":1145:1152   */\n      dup5\n        /* \"#utility.yul\":1136:1142   */\n      dup3\n        /* \"#utility.yul\":1125:1134   */\n      dup6\n        /* \"#utility.yul\":1121:1143   */\n      add\n        /* \"#utility.yul\":1100:1153   */\n      tag_125\n      jump\t// in\n    tag_177:\n        /* \"#utility.yul\":1090:1153   */\n      swap2\n      pop\n        /* \"#utility.yul\":1046:1163   */\n      pop\n        /* \"#utility.yul\":841:1170   */\n      swap3\n      swap2\n      pop\n      pop\n      jump\t// out\n        /* \"#utility.yul\":1176:1266   */\n    tag_126:\n        /* \"#utility.yul\":1210:1217   */\n      0x00\n        /* \"#utility.yul\":1253:1258   */\n      dup2\n        /* \"#utility.yul\":1246:1259   */\n      iszero\n        /* \"#utility.yul\":1239:1260   */\n      iszero\n        /* \"#utility.yul\":1228:1260   */\n      swap1\n      pop\n        /* \"#utility.yul\":1176:1266   */\n      swap2\n      swap1\n      pop\n      jump\t// out\n        /* \"#utility.yul\":1272:1381   */\n    tag_127:\n        /* \"#utility.yul\":1353:1374   */\n      tag_180\n        /* \"#utility.yul\":1368:1373   */\n      dup2\n        /* \"#utility.yul\":1353:1374   */\n      tag_126\n      jump\t// in\n    tag_180:\n        /* \"#utility.yul\":1348:1351   */\n      dup3\n        /* \"#utility.yul\":1341:1375   */\n      mstore\n        /* \"#utility.yul\":1272:1381   */\n      pop\n      pop\n      jump\t// out\n        /* \"#utility.yul\":1387:1597   */\n    tag_19:\n        /* \"#utility.yul\":1474:1478   */\n      0x00\n        /* \"#utility.yul\":1512:1514   */\n      0x20\n        /* \"#utility.yul\":1501:1510   */\n      dup3\n        /* \"#utility.yul\":1497:1515   */\n      add\n        /* \"#utility.yul\":1489:1515   */\n      swap1\n      pop\n        /* \"#utility.yul\":1525:1590   */\n      tag_182\n        /* \"#utility.yul\":1587:1588   */\n      0x00\n        /* \"#utility.yul\":1576:1585   */\n      dup4\n        /* \"#utility.yul\":1572:1589   */\n      add\n        /* \"#utility.yul\":1563:1569   */\n      dup5\n        /* \"#utility.yul\":1525:1590   */\n      tag_127\n      jump\t// in\n    tag_182:\n        /* \"#utility.yul\":1387:1597   */\n      swap3\n      swap2\n      pop\n      pop\n      jump\t// out\n        /* \"#utility.yul\":1603:1680   */\n    tag_128:\n        /* \"#utility.yul\":1640:1647   */\n      0x00\n        /* \"#utility.yul\":1669:1674   */\n      dup2\n        /* \"#utility.yul\":1658:1674   */\n      swap1\n      pop\n        /* \"#utility.yul\":1603:1680   */\n      swap2\n      swap1\n      pop\n      jump\t// out\n        /* \"#utility.yul\":1686:1804   */\n    tag_129:\n        /* \"#utility.yul\":1773:1797   */\n      tag_185\n        /* \"#utility.yul\":1791:1796   */\n      dup2\n        /* \"#utility.yul\":1773:1797   */\n      tag_128\n      jump\t// in\n    tag_185:\n        /* \"#utility.yul\":1768:1771   */\n      dup3\n        /* \"#utility.yul\":1761:1798   */\n      mstore\n        /* \"#utility.yul\":1686:1804   */\n      pop\n      pop\n      jump\t// out\n        /* \"#utility.yul\":1810:2032   */\n    tag_24:\n        /* \"#utility.yul\":1903:1907   */\n      0x00\n        /* \"#utility.yul\":1941:1943   */\n      0x20\n        /* \"#utility.yul\":1930:1939   */\n      dup3\n        /* \"#utility.yul\":1926:1944   */\n      add\n        /* \"#utility.yul\":1918:1944   */\n      swap1\n      pop\n        /* \"#utility.yul\":1954:2025   */\n      tag_187\n        /* \"#utility.yul\":2022:2023   */\n      0x00\n        /* \"#utility.yul\":2011:2020   */\n      dup4\n        /* \"#utility.yul\":2007:2024   */\n      add\n        /* \"#utility.yul\":1998:2004   */\n      dup5\n        /* \"#utility.yul\":1954:2025   */\n      tag_129\n      jump\t// in\n    tag_187:\n        /* \"#utility.yul\":1810:2032   */\n      swap3\n      swap2\n      pop\n      pop\n      jump\t// out\n        /* \"#utility.yul\":2038:2160   */\n    tag_130:\n        /* \"#utility.yul\":2111:2135   */\n      tag_189\n        /* \"#utility.yul\":2129:2134   */\n      dup2\n        /* \"#utility.yul\":2111:2135   */\n      tag_128\n      jump\t// in\n    tag_189:\n        /* \"#utility.yul\":2104:2109   */\n      dup2\n        /* \"#utility.yul\":2101:2136   */\n      eq\n        /* \"#utility.yul\":2091:2154   */\n      tag_190\n      jumpi\n        /* \"#utility.yul\":2150:2151   */\n      0x00\n        /* \"#utility.yul\":2147:2148   */\n      dup1\n        /* \"#utility.yul\":2140:2152   */\n      revert\n        /* \"#utility.yul\":2091:2154   */\n    tag_190:\n        /* \"#utility.yul\":2038:2160   */\n      pop\n      jump\t// out\n        /* \"#utility.yul\":2166:2305   */\n    tag_131:\n        /* \"#utility.yul\":2212:2217   */\n      0x00\n        /* \"#utility.yul\":2250:2256   */\n      dup2\n        /* \"#utility.yul\":2237:2257   */\n      calldataload\n        /* \"#utility.yul\":2228:2257   */\n      swap1\n      pop\n        /* \"#utility.yul\":2266:2299   */\n      tag_192\n        /* \"#utility.yul\":2293:2298   */\n      dup2\n        /* \"#utility.yul\":2266:2299   */\n      tag_130\n      jump\t// in\n    tag_192:\n        /* \"#utility.yul\":2166:2305   */\n      swap3\n      swap2\n      pop\n      pop\n      jump\t// out\n        /* \"#utility.yul\":2311:2640   */\n    tag_28:\n        /* \"#utility.yul\":2370:2376   */\n      0x00\n        /* \"#utility.yul\":2419:2421   */\n      0x20\n        /* \"#utility.yul\":2407:2416   */\n      dup3\n        /* \"#utility.yul\":2398:2405   */\n      dup5\n        /* \"#utility.yul\":2394:2417   */\n      sub\n        /* \"#utility.yul\":2390:2422   */\n      slt\n        /* \"#utility.yul\":2387:2506   */\n      iszero\n      tag_194\n      jumpi\n        /* \"#utility.yul\":2425:2504   */\n      tag_195\n      tag_120\n      jump\t// in\n    tag_195:\n        /* \"#utility.yul\":2387:2506   */\n    tag_194:\n        /* \"#utility.yul\":2545:2546   */\n      0x00\n        /* \"#utility.yul\":2570:2623   */\n      tag_196\n        /* \"#utility.yul\":2615:2622   */\n      dup5\n        /* \"#utility.yul\":2606:2612   */\n      dup3\n        /* \"#utility.yul\":2595:2604   */\n      dup6\n        /* \"#utility.yul\":2591:2613   */\n      add\n        /* \"#utility.yul\":2570:2623   */\n      tag_131\n      jump\t// in\n    tag_196:\n        /* \"#utility.yul\":2560:2623   */\n      swap2\n      pop\n        /* \"#utility.yul\":2516:2633   */\n      pop\n        /* \"#utility.yul\":2311:2640   */\n      swap3\n      swap2\n      pop\n      pop\n      jump\t// out\n        /* \"#utility.yul\":2646:2745   */\n    tag_132:\n        /* \"#utility.yul\":2698:2704   */\n      0x00\n        /* \"#utility.yul\":2732:2737   */\n      dup2\n        /* \"#utility.yul\":2726:2738   */\n      mload\n        /* \"#utility.yul\":2716:2738   */\n      swap1\n      pop\n        /* \"#utility.yul\":2646:2745   */\n      swap2\n      swap1\n      pop\n      jump\t// out\n        /* \"#utility.yul\":2751:2920   */\n    tag_133:\n        /* \"#utility.yul\":2835:2846   */\n      0x00\n        /* \"#utility.yul\":2869:2875   */\n      dup3\n        /* \"#utility.yul\":2864:2867   */\n      dup3\n        /* \"#utility.yul\":2857:2876   */\n      mstore\n        /* \"#utility.yul\":2909:2913   */\n      0x20\n        /* \"#utility.yul\":2904:2907   */\n      dup3\n        /* \"#utility.yul\":2900:2914   */\n      add\n        /* \"#utility.yul\":2885:2914   */\n      swap1\n      pop\n        /* \"#utility.yul\":2751:2920   */\n      swap3\n      swap2\n      pop\n      pop\n      jump\t// out\n        /* \"#utility.yul\":2926:3233   */\n    tag_134:\n        /* \"#utility.yul\":2994:2995   */\n      0x00\n        /* \"#utility.yul\":3004:3117   */\n    tag_200:\n        /* \"#utility.yul\":3018:3024   */\n      dup4\n        /* \"#utility.yul\":3015:3016   */\n      dup2\n        /* \"#utility.yul\":3012:3025   */\n      lt\n        /* \"#utility.yul\":3004:3117   */\n      iszero\n      tag_202\n      jumpi\n        /* \"#utility.yul\":3103:3104   */\n      dup1\n        /* \"#utility.yul\":3098:3101   */\n      dup3\n        /* \"#utility.yul\":3094:3105   */\n      add\n        /* \"#utility.yul\":3088:3106   */\n      mload\n        /* \"#utility.yul\":3084:3085   */\n      dup2\n        /* \"#utility.yul\":3079:3082   */\n      dup5\n        /* \"#utility.yul\":3075:3086   */\n      add\n        /* \"#utility.yul\":3068:3107   */\n      mstore\n        /* \"#utility.yul\":3040:3042   */\n      0x20\n        /* \"#utility.yul\":3037:3038   */\n      dup2\n        /* \"#utility.yul\":3033:3043   */\n      add\n        /* \"#utility.yul\":3028:3043   */\n      swap1\n      pop\n        /* \"#utility.yul\":3004:3117   */\n      jump(tag_200)\n    tag_202:\n        /* \"#utility.yul\":3135:3141   */\n      dup4\n        /* \"#utility.yul\":3132:3133   */\n      dup2\n        /* \"#utility.yul\":3129:3142   */\n      gt\n        /* \"#utility.yul\":3126:3227   */\n      iszero\n      tag_203\n      jumpi\n        /* \"#utility.yul\":3215:3216   */\n      0x00\n        /* \"#utility.yul\":3206:3212   */\n      dup5\n        /* \"#utility.yul\":3201:3204   */\n      dup5\n        /* \"#utility.yul\":3197:3213   */\n      add\n        /* \"#utility.yul\":3190:3217   */\n      mstore\n        /* \"#utility.yul\":3126:3227   */\n    tag_203:\n        /* \"#utility.yul\":2975:3233   */\n      pop\n        /* \"#utility.yul\":2926:3233   */\n      pop\n      pop\n      pop\n      jump\t// out\n        /* \"#utility.yul\":3239:3341   */\n    tag_135:\n        /* \"#utility.yul\":3280:3286   */\n      0x00\n        /* \"#utility.yul\":3331:3333   */\n      0x1f\n        /* \"#utility.yul\":3327:3334   */\n      not\n        /* \"#utility.yul\":3322:3324   */\n      0x1f\n        /* \"#utility.yul\":3315:3320   */\n      dup4\n        /* \"#utility.yul\":3311:3325   */\n      add\n        /* \"#utility.yul\":3307:3335   */\n      and\n        /* \"#utility.yul\":3297:3335   */\n      swap1\n      pop\n        /* \"#utility.yul\":3239:3341   */\n      swap2\n      swap1\n      pop\n      jump\t// out\n        /* \"#utility.yul\":3347:3711   */\n    tag_136:\n        /* \"#utility.yul\":3435:3438   */\n      0x00\n        /* \"#utility.yul\":3463:3502   */\n      tag_206\n        /* \"#utility.yul\":3496:3501   */\n      dup3\n        /* \"#utility.yul\":3463:3502   */\n      tag_132\n      jump\t// in\n    tag_206:\n        /* \"#utility.yul\":3518:3589   */\n      tag_207\n        /* \"#utility.yul\":3582:3588   */\n      dup2\n        /* \"#utility.yul\":3577:3580   */\n      dup6\n        /* \"#utility.yul\":3518:3589   */\n      tag_133\n      jump\t// in\n    tag_207:\n        /* \"#utility.yul\":3511:3589   */\n      swap4\n      pop\n        /* \"#utility.yul\":3598:3650   */\n      tag_208\n        /* \"#utility.yul\":3643:3649   */\n      dup2\n        /* \"#utility.yul\":3638:3641   */\n      dup6\n        /* \"#utility.yul\":3631:3635   */\n      0x20\n        /* \"#utility.yul\":3624:3629   */\n      dup7\n        /* \"#utility.yul\":3620:3636   */\n      add\n        /* \"#utility.yul\":3598:3650   */\n      tag_134\n      jump\t// in\n    tag_208:\n        /* \"#utility.yul\":3675:3704   */\n      tag_209\n        /* \"#utility.yul\":3697:3703   */\n      dup2\n        /* \"#utility.yul\":3675:3704   */\n      tag_135\n      jump\t// in\n    tag_209:\n        /* \"#utility.yul\":3670:3673   */\n      dup5\n        /* \"#utility.yul\":3666:3705   */\n      add\n        /* \"#utility.yul\":3659:3705   */\n      swap2\n      pop\n        /* \"#utility.yul\":3439:3711   */\n      pop\n        /* \"#utility.yul\":3347:3711   */\n      swap3\n      swap2\n      pop\n      pop\n      jump\t// out\n        /* \"#utility.yul\":3717:4030   */\n    tag_31:\n        /* \"#utility.yul\":3830:3834   */\n      0x00\n        /* \"#utility.yul\":3868:3870   */\n      0x20\n        /* \"#utility.yul\":3857:3866   */\n      dup3\n        /* \"#utility.yul\":3853:3871   */\n      add\n        /* \"#utility.yul\":3845:3871   */\n      swap1\n      pop\n        /* \"#utility.yul\":3917:3926   */\n      dup2\n        /* \"#utility.yul\":3911:3915   */\n      dup2\n        /* \"#utility.yul\":3907:3927   */\n      sub\n        /* \"#utility.yul\":3903:3904   */\n      0x00\n        /* \"#utility.yul\":3892:3901   */\n      dup4\n        /* \"#utility.yul\":3888:3905   */\n      add\n        /* \"#utility.yul\":3881:3928   */\n      mstore\n        /* \"#utility.yul\":3945:4023   */\n      tag_211\n        /* \"#utility.yul\":4018:4022   */\n      dup2\n        /* \"#utility.yul\":4009:4015   */\n      dup5\n        /* \"#utility.yul\":3945:4023   */\n      tag_136\n      jump\t// in\n    tag_211:\n        /* \"#utility.yul\":3937:4023   */\n      swap1\n      pop\n        /* \"#utility.yul\":3717:4030   */\n      swap3\n      swap2\n      pop\n      pop\n      jump\t// out\n        /* \"#utility.yul\":4036:4153   */\n    tag_137:\n        /* \"#utility.yul\":4145:4146   */\n      0x00\n        /* \"#utility.yul\":4142:4143   */\n      dup1\n        /* \"#utility.yul\":4135:4147   */\n      revert\n        /* \"#utility.yul\":4159:4276   */\n    tag_138:\n        /* \"#utility.yul\":4268:4269   */\n      0x00\n        /* \"#utility.yul\":4265:4266   */\n      dup1\n        /* \"#utility.yul\":4258:4270   */\n      revert\n        /* \"#utility.yul\":4282:4462   */\n    tag_139:\n        /* \"#utility.yul\":4330:4407   */\n      0x4e487b7100000000000000000000000000000000000000000000000000000000\n        /* \"#utility.yul\":4327:4328   */\n      0x00\n        /* \"#utility.yul\":4320:4408   */\n      mstore\n        /* \"#utility.yul\":4427:4431   */\n      0x41\n        /* \"#utility.yul\":4424:4425   */\n      0x04\n        /* \"#utility.yul\":4417:4432   */\n      mstore\n        /* \"#utility.yul\":4451:4455   */\n      0x24\n        /* \"#utility.yul\":4448:4449   */\n      0x00\n        /* \"#utility.yul\":4441:4456   */\n      revert\n        /* \"#utility.yul\":4468:4749   */\n    tag_140:\n        /* \"#utility.yul\":4551:4578   */\n      tag_216\n        /* \"#utility.yul\":4573:4577   */\n      dup3\n        /* \"#utility.yul\":4551:4578   */\n      tag_135\n      jump\t// in\n    tag_216:\n        /* \"#utility.yul\":4543:4549   */\n      dup2\n        /* \"#utility.yul\":4539:4579   */\n      add\n        /* \"#utility.yul\":4681:4687   */\n      dup2\n        /* \"#utility.yul\":4669:4679   */\n      dup2\n        /* \"#utility.yul\":4666:4688   */\n      lt\n        /* \"#utility.yul\":4645:4663   */\n      0xffffffffffffffff\n        /* \"#utility.yul\":4633:4643   */\n      dup3\n        /* \"#utility.yul\":4630:4664   */\n      gt\n        /* \"#utility.yul\":4627:4689   */\n      or\n        /* \"#utility.yul\":4624:4712   */\n      iszero\n      tag_217\n      jumpi\n        /* \"#utility.yul\":4692:4710   */\n      tag_218\n      tag_139\n      jump\t// in\n    tag_218:\n        /* \"#utility.yul\":4624:4712   */\n    tag_217:\n        /* \"#utility.yul\":4732:4742   */\n      dup1\n        /* \"#utility.yul\":4728:4730   */\n      0x40\n        /* \"#utility.yul\":4721:4743   */\n      mstore\n        /* \"#utility.yul\":4511:4749   */\n      pop\n        /* \"#utility.yul\":4468:4749   */\n      pop\n      pop\n      jump\t// out\n        /* \"#utility.yul\":4755:4884   */\n    tag_141:\n        /* \"#utility.yul\":4789:4795   */\n      0x00\n        /* \"#utility.yul\":4816:4836   */\n      tag_220\n      tag_119\n      jump\t// in\n    tag_220:\n        /* \"#utility.yul\":4806:4836   */\n      swap1\n      pop\n        /* \"#utility.yul\":4845:4878   */\n      tag_221\n        /* \"#utility.yul\":4873:4877   */\n      dup3\n        /* \"#utility.yul\":4865:4871   */\n      dup3\n        /* \"#utility.yul\":4845:4878   */\n      tag_140\n      jump\t// in\n    tag_221:\n        /* \"#utility.yul\":4755:4884   */\n      swap2\n      swap1\n      pop\n      jump\t// out\n        /* \"#utility.yul\":4890:5198   */\n    tag_142:\n        /* \"#utility.yul\":4952:4956   */\n      0x00\n        /* \"#utility.yul\":5042:5060   */\n      0xffffffffffffffff\n        /* \"#utility.yul\":5034:5040   */\n      dup3\n        /* \"#utility.yul\":5031:5061   */\n      gt\n        /* \"#utility.yul\":5028:5084   */\n      iszero\n      tag_223\n      jumpi\n        /* \"#utility.yul\":5064:5082   */\n      tag_224\n      tag_139\n      jump\t// in\n    tag_224:\n        /* \"#utility.yul\":5028:5084   */\n    tag_223:\n        /* \"#utility.yul\":5102:5131   */\n      tag_225\n        /* \"#utility.yul\":5124:5130   */\n      dup3\n        /* \"#utility.yul\":5102:5131   */\n      tag_135\n      jump\t// in\n    tag_225:\n        /* \"#utility.yul\":5094:5131   */\n      swap1\n      pop\n        /* \"#utility.yul\":5186:5190   */\n      0x20\n        /* \"#utility.yul\":5180:5184   */\n      dup2\n        /* \"#utility.yul\":5176:5191   */\n      add\n        /* \"#utility.yul\":5168:5191   */\n      swap1\n      pop\n        /* \"#utility.yul\":4890:5198   */\n      swap2\n      swap1\n      pop\n      jump\t// out\n        /* \"#utility.yul\":5204:5358   */\n    tag_143:\n        /* \"#utility.yul\":5288:5294   */\n      dup3\n        /* \"#utility.yul\":5283:5286   */\n      dup2\n        /* \"#utility.yul\":5278:5281   */\n      dup4\n        /* \"#utility.yul\":5265:5295   */\n      calldatacopy\n        /* \"#utility.yul\":5350:5351   */\n      0x00\n        /* \"#utility.yul\":5341:5347   */\n      dup4\n        /* \"#utility.yul\":5336:5339   */\n      dup4\n        /* \"#utility.yul\":5332:5348   */\n      add\n        /* \"#utility.yul\":5325:5352   */\n      mstore\n        /* \"#utility.yul\":5204:5358   */\n      pop\n      pop\n      pop\n      jump\t// out\n        /* \"#utility.yul\":5364:5776   */\n    tag_144:\n        /* \"#utility.yul\":5442:5447   */\n      0x00\n        /* \"#utility.yul\":5467:5533   */\n      tag_228\n        /* \"#utility.yul\":5483:5532   */\n      tag_229\n        /* \"#utility.yul\":5525:5531   */\n      dup5\n        /* \"#utility.yul\":5483:5532   */\n      tag_142\n      jump\t// in\n    tag_229:\n        /* \"#utility.yul\":5467:5533   */\n      tag_141\n      jump\t// in\n    tag_228:\n        /* \"#utility.yul\":5458:5533   */\n      swap1\n      pop\n        /* \"#utility.yul\":5556:5562   */\n      dup3\n        /* \"#utility.yul\":5549:5554   */\n      dup2\n        /* \"#utility.yul\":5542:5563   */\n      mstore\n        /* \"#utility.yul\":5594:5598   */\n      0x20\n        /* \"#utility.yul\":5587:5592   */\n      dup2\n        /* \"#utility.yul\":5583:5599   */\n      add\n        /* \"#utility.yul\":5632:5635   */\n      dup5\n        /* \"#utility.yul\":5623:5629   */\n      dup5\n        /* \"#utility.yul\":5618:5621   */\n      dup5\n        /* \"#utility.yul\":5614:5630   */\n      add\n        /* \"#utility.yul\":5611:5636   */\n      gt\n        /* \"#utility.yul\":5608:5720   */\n      iszero\n      tag_230\n      jumpi\n        /* \"#utility.yul\":5639:5718   */\n      tag_231\n      tag_138\n      jump\t// in\n    tag_231:\n        /* \"#utility.yul\":5608:5720   */\n    tag_230:\n        /* \"#utility.yul\":5729:5770   */\n      tag_232\n        /* \"#utility.yul\":5763:5769   */\n      dup5\n        /* \"#utility.yul\":5758:5761   */\n      dup3\n        /* \"#utility.yul\":5753:5756   */\n      dup6\n        /* \"#utility.yul\":5729:5770   */\n      tag_143\n      jump\t// in\n    tag_232:\n        /* \"#utility.yul\":5448:5776   */\n      pop\n        /* \"#utility.yul\":5364:5776   */\n      swap4\n      swap3\n      pop\n      pop\n      pop\n      jump\t// out\n        /* \"#utility.yul\":5796:6136   */\n    tag_145:\n        /* \"#utility.yul\":5852:5857   */\n      0x00\n        /* \"#utility.yul\":5901:5904   */\n      dup3\n        /* \"#utility.yul\":5894:5898   */\n      0x1f\n        /* \"#utility.yul\":5886:5892   */\n      dup4\n        /* \"#utility.yul\":5882:5899   */\n      add\n        /* \"#utility.yul\":5878:5905   */\n      slt\n        /* \"#utility.yul\":5868:5990   */\n      tag_234\n      jumpi\n        /* \"#utility.yul\":5909:5988   */\n      tag_235\n      tag_137\n      jump\t// in\n    tag_235:\n        /* \"#utility.yul\":5868:5990   */\n    tag_234:\n        /* \"#utility.yul\":6026:6032   */\n      dup2\n        /* \"#utility.yul\":6013:6033   */\n      calldataload\n        /* \"#utility.yul\":6051:6130   */\n      tag_236\n        /* \"#utility.yul\":6126:6129   */\n      dup5\n        /* \"#utility.yul\":6118:6124   */\n      dup3\n        /* \"#utility.yul\":6111:6115   */\n      0x20\n        /* \"#utility.yul\":6103:6109   */\n      dup7\n        /* \"#utility.yul\":6099:6116   */\n      add\n        /* \"#utility.yul\":6051:6130   */\n      tag_144\n      jump\t// in\n    tag_236:\n        /* \"#utility.yul\":6042:6130   */\n      swap2\n      pop\n        /* \"#utility.yul\":5858:6136   */\n      pop\n        /* \"#utility.yul\":5796:6136   */\n      swap3\n      swap2\n      pop\n      pop\n      jump\t// out\n        /* \"#utility.yul\":6142:6651   */\n    tag_34:\n        /* \"#utility.yul\":6211:6217   */\n      0x00\n        /* \"#utility.yul\":6260:6262   */\n      0x20\n        /* \"#utility.yul\":6248:6257   */\n      dup3\n        /* \"#utility.yul\":6239:6246   */\n      dup5\n        /* \"#utility.yul\":6235:6258   */\n      sub\n        /* \"#utility.yul\":6231:6263   */\n      slt\n        /* \"#utility.yul\":6228:6347   */\n      iszero\n      tag_238\n      jumpi\n        /* \"#utility.yul\":6266:6345   */\n      tag_239\n      tag_120\n      jump\t// in\n    tag_239:\n        /* \"#utility.yul\":6228:6347   */\n    tag_238:\n        /* \"#utility.yul\":6414:6415   */\n      0x00\n        /* \"#utility.yul\":6403:6412   */\n      dup3\n        /* \"#utility.yul\":6399:6416   */\n      add\n        /* \"#utility.yul\":6386:6417   */\n      calldataload\n        /* \"#utility.yul\":6444:6462   */\n      0xffffffffffffffff\n        /* \"#utility.yul\":6436:6442   */\n      dup2\n        /* \"#utility.yul\":6433:6463   */\n      gt\n        /* \"#utility.yul\":6430:6547   */\n      iszero\n      tag_240\n      jumpi\n        /* \"#utility.yul\":6466:6545   */\n      tag_241\n      tag_121\n      jump\t// in\n    tag_241:\n        /* \"#utility.yul\":6430:6547   */\n    tag_240:\n        /* \"#utility.yul\":6571:6634   */\n      tag_242\n        /* \"#utility.yul\":6626:6633   */\n      dup5\n        /* \"#utility.yul\":6617:6623   */\n      dup3\n        /* \"#utility.yul\":6606:6615   */\n      dup6\n        /* \"#utility.yul\":6602:6624   */\n      add\n        /* \"#utility.yul\":6571:6634   */\n      tag_145\n      jump\t// in\n    tag_242:\n        /* \"#utility.yul\":6561:6634   */\n      swap2\n      pop\n        /* \"#utility.yul\":6357:6644   */\n      pop\n        /* \"#utility.yul\":6142:6651   */\n      swap3\n      swap2\n      pop\n      pop\n      jump\t// out\n        /* \"#utility.yul\":6657:6775   */\n    tag_146:\n        /* \"#utility.yul\":6744:6768   */\n      tag_244\n        /* \"#utility.yul\":6762:6767   */\n      dup2\n        /* \"#utility.yul\":6744:6768   */\n      tag_123\n      jump\t// in\n    tag_244:\n        /* \"#utility.yul\":6739:6742   */\n      dup3\n        /* \"#utility.yul\":6732:6769   */\n      mstore\n        /* \"#utility.yul\":6657:6775   */\n      pop\n      pop\n      jump\t// out\n        /* \"#utility.yul\":6781:7003   */\n    tag_40:\n        /* \"#utility.yul\":6874:6878   */\n      0x00\n        /* \"#utility.yul\":6912:6914   */\n      0x20\n        /* \"#utility.yul\":6901:6910   */\n      dup3\n        /* \"#utility.yul\":6897:6915   */\n      add\n        /* \"#utility.yul\":6889:6915   */\n      swap1\n      pop\n        /* \"#utility.yul\":6925:6996   */\n      tag_246\n        /* \"#utility.yul\":6993:6994   */\n      0x00\n        /* \"#utility.yul\":6982:6991   */\n      dup4\n        /* \"#utility.yul\":6978:6995   */\n      add\n        /* \"#utility.yul\":6969:6975   */\n      dup5\n        /* \"#utility.yul\":6925:6996   */\n      tag_146\n      jump\t// in\n    tag_246:\n        /* \"#utility.yul\":6781:7003   */\n      swap3\n      swap2\n      pop\n      pop\n      jump\t// out\n        /* \"#utility.yul\":7009:7113   */\n    tag_147:\n        /* \"#utility.yul\":7054:7061   */\n      0x00\n        /* \"#utility.yul\":7083:7107   */\n      tag_248\n        /* \"#utility.yul\":7101:7106   */\n      dup3\n        /* \"#utility.yul\":7083:7107   */\n      tag_122\n      jump\t// in\n    tag_248:\n        /* \"#utility.yul\":7072:7107   */\n      swap1\n      pop\n        /* \"#utility.yul\":7009:7113   */\n      swap2\n      swap1\n      pop\n      jump\t// out\n        /* \"#utility.yul\":7119:7261   */\n    tag_148:\n        /* \"#utility.yul\":7222:7254   */\n      tag_250\n        /* \"#utility.yul\":7248:7253   */\n      dup2\n        /* \"#utility.yul\":7222:7254   */\n      tag_147\n      jump\t// in\n    tag_250:\n        /* \"#utility.yul\":7217:7220   */\n      dup3\n        /* \"#utility.yul\":7210:7255   */\n      mstore\n        /* \"#utility.yul\":7119:7261   */\n      pop\n      pop\n      jump\t// out\n        /* \"#utility.yul\":7267:8042   */\n    tag_46:\n        /* \"#utility.yul\":7502:7506   */\n      0x00\n        /* \"#utility.yul\":7540:7543   */\n      0xa0\n        /* \"#utility.yul\":7529:7538   */\n      dup3\n        /* \"#utility.yul\":7525:7544   */\n      add\n        /* \"#utility.yul\":7517:7544   */\n      swap1\n      pop\n        /* \"#utility.yul\":7590:7599   */\n      dup2\n        /* \"#utility.yul\":7584:7588   */\n      dup2\n        /* \"#utility.yul\":7580:7600   */\n      sub\n        /* \"#utility.yul\":7576:7577   */\n      0x00\n        /* \"#utility.yul\":7565:7574   */\n      dup4\n        /* \"#utility.yul\":7561:7578   */\n      add\n        /* \"#utility.yul\":7554:7601   */\n      mstore\n        /* \"#utility.yul\":7618:7696   */\n      tag_252\n        /* \"#utility.yul\":7691:7695   */\n      dup2\n        /* \"#utility.yul\":7682:7688   */\n      dup9\n        /* \"#utility.yul\":7618:7696   */\n      tag_136\n      jump\t// in\n    tag_252:\n        /* \"#utility.yul\":7610:7696   */\n      swap1\n      pop\n        /* \"#utility.yul\":7706:7778   */\n      tag_253\n        /* \"#utility.yul\":7774:7776   */\n      0x20\n        /* \"#utility.yul\":7763:7772   */\n      dup4\n        /* \"#utility.yul\":7759:7777   */\n      add\n        /* \"#utility.yul\":7750:7756   */\n      dup8\n        /* \"#utility.yul\":7706:7778   */\n      tag_129\n      jump\t// in\n    tag_253:\n        /* \"#utility.yul\":7788:7876   */\n      tag_254\n        /* \"#utility.yul\":7872:7874   */\n      0x40\n        /* \"#utility.yul\":7861:7870   */\n      dup4\n        /* \"#utility.yul\":7857:7875   */\n      add\n        /* \"#utility.yul\":7848:7854   */\n      dup7\n        /* \"#utility.yul\":7788:7876   */\n      tag_148\n      jump\t// in\n    tag_254:\n        /* \"#utility.yul\":7886:7952   */\n      tag_255\n        /* \"#utility.yul\":7948:7950   */\n      0x60\n        /* \"#utility.yul\":7937:7946   */\n      dup4\n        /* \"#utility.yul\":7933:7951   */\n      add\n        /* \"#utility.yul\":7924:7930   */\n      dup6\n        /* \"#utility.yul\":7886:7952   */\n      tag_127\n      jump\t// in\n    tag_255:\n        /* \"#utility.yul\":7962:8035   */\n      tag_256\n        /* \"#utility.yul\":8030:8033   */\n      0x80\n        /* \"#utility.yul\":8019:8028   */\n      dup4\n        /* \"#utility.yul\":8015:8034   */\n      add\n        /* \"#utility.yul\":8006:8012   */\n      dup5\n        /* \"#utility.yul\":7962:8035   */\n      tag_129\n      jump\t// in\n    tag_256:\n        /* \"#utility.yul\":7267:8042   */\n      swap7\n      swap6\n      pop\n      pop\n      pop\n      pop\n      pop\n      pop\n      jump\t// out\n        /* \"#utility.yul\":8048:8186   */\n    tag_149:\n        /* \"#utility.yul\":8129:8161   */\n      tag_258\n        /* \"#utility.yul\":8155:8160   */\n      dup2\n        /* \"#utility.yul\":8129:8161   */\n      tag_147\n      jump\t// in\n    tag_258:\n        /* \"#utility.yul\":8122:8127   */\n      dup2\n        /* \"#utility.yul\":8119:8162   */\n      eq\n        /* \"#utility.yul\":8109:8180   */\n      tag_259\n      jumpi\n        /* \"#utility.yul\":8176:8177   */\n      0x00\n        /* \"#utility.yul\":8173:8174   */\n      dup1\n        /* \"#utility.yul\":8166:8178   */\n      revert\n        /* \"#utility.yul\":8109:8180   */\n    tag_259:\n        /* \"#utility.yul\":8048:8186   */\n      pop\n      jump\t// out\n        /* \"#utility.yul\":8192:8347   */\n    tag_150:\n        /* \"#utility.yul\":8246:8251   */\n      0x00\n        /* \"#utility.yul\":8284:8290   */\n      dup2\n        /* \"#utility.yul\":8271:8291   */\n      calldataload\n        /* \"#utility.yul\":8262:8291   */\n      swap1\n      pop\n        /* \"#utility.yul\":8300:8341   */\n      tag_261\n        /* \"#utility.yul\":8335:8340   */\n      dup2\n        /* \"#utility.yul\":8300:8341   */\n      tag_149\n      jump\t// in\n    tag_261:\n        /* \"#utility.yul\":8192:8347   */\n      swap3\n      swap2\n      pop\n      pop\n      jump\t// out\n        /* \"#utility.yul\":8353:9494   */\n    tag_57:\n        /* \"#utility.yul\":8467:8473   */\n      0x00\n        /* \"#utility.yul\":8475:8481   */\n      dup1\n        /* \"#utility.yul\":8483:8489   */\n      0x00\n        /* \"#utility.yul\":8491:8497   */\n      dup1\n        /* \"#utility.yul\":8540:8543   */\n      0x80\n        /* \"#utility.yul\":8528:8537   */\n      dup6\n        /* \"#utility.yul\":8519:8526   */\n      dup8\n        /* \"#utility.yul\":8515:8538   */\n      sub\n        /* \"#utility.yul\":8511:8544   */\n      slt\n        /* \"#utility.yul\":8508:8628   */\n      iszero\n      tag_263\n      jumpi\n        /* \"#utility.yul\":8547:8626   */\n      tag_264\n      tag_120\n      jump\t// in\n    tag_264:\n        /* \"#utility.yul\":8508:8628   */\n    tag_263:\n        /* \"#utility.yul\":8695:8696   */\n      0x00\n        /* \"#utility.yul\":8684:8693   */\n      dup6\n        /* \"#utility.yul\":8680:8697   */\n      add\n        /* \"#utility.yul\":8667:8698   */\n      calldataload\n        /* \"#utility.yul\":8725:8743   */\n      0xffffffffffffffff\n        /* \"#utility.yul\":8717:8723   */\n      dup2\n        /* \"#utility.yul\":8714:8744   */\n      gt\n        /* \"#utility.yul\":8711:8828   */\n      iszero\n      tag_265\n      jumpi\n        /* \"#utility.yul\":8747:8826   */\n      tag_266\n      tag_121\n      jump\t// in\n    tag_266:\n        /* \"#utility.yul\":8711:8828   */\n    tag_265:\n        /* \"#utility.yul\":8852:8915   */\n      tag_267\n        /* \"#utility.yul\":8907:8914   */\n      dup8\n        /* \"#utility.yul\":8898:8904   */\n      dup3\n        /* \"#utility.yul\":8887:8896   */\n      dup9\n        /* \"#utility.yul\":8883:8905   */\n      add\n        /* \"#utility.yul\":8852:8915   */\n      tag_145\n      jump\t// in\n    tag_267:\n        /* \"#utility.yul\":8842:8915   */\n      swap5\n      pop\n        /* \"#utility.yul\":8638:8925   */\n      pop\n        /* \"#utility.yul\":8992:8994   */\n      0x20\n        /* \"#utility.yul\":8981:8990   */\n      dup6\n        /* \"#utility.yul\":8977:8995   */\n      add\n        /* \"#utility.yul\":8964:8996   */\n      calldataload\n        /* \"#utility.yul\":9023:9041   */\n      0xffffffffffffffff\n        /* \"#utility.yul\":9015:9021   */\n      dup2\n        /* \"#utility.yul\":9012:9042   */\n      gt\n        /* \"#utility.yul\":9009:9126   */\n      iszero\n      tag_268\n      jumpi\n        /* \"#utility.yul\":9045:9124   */\n      tag_269\n      tag_121\n      jump\t// in\n    tag_269:\n        /* \"#utility.yul\":9009:9126   */\n    tag_268:\n        /* \"#utility.yul\":9150:9213   */\n      tag_270\n        /* \"#utility.yul\":9205:9212   */\n      dup8\n        /* \"#utility.yul\":9196:9202   */\n      dup3\n        /* \"#utility.yul\":9185:9194   */\n      dup9\n        /* \"#utility.yul\":9181:9203   */\n      add\n        /* \"#utility.yul\":9150:9213   */\n      tag_145\n      jump\t// in\n    tag_270:\n        /* \"#utility.yul\":9140:9213   */\n      swap4\n      pop\n        /* \"#utility.yul\":8935:9223   */\n      pop\n        /* \"#utility.yul\":9262:9264   */\n      0x40\n        /* \"#utility.yul\":9288:9341   */\n      tag_271\n        /* \"#utility.yul\":9333:9340   */\n      dup8\n        /* \"#utility.yul\":9324:9330   */\n      dup3\n        /* \"#utility.yul\":9313:9322   */\n      dup9\n        /* \"#utility.yul\":9309:9331   */\n      add\n        /* \"#utility.yul\":9288:9341   */\n      tag_131\n      jump\t// in\n    tag_271:\n        /* \"#utility.yul\":9278:9341   */\n      swap3\n      pop\n        /* \"#utility.yul\":9233:9351   */\n      pop\n        /* \"#utility.yul\":9390:9392   */\n      0x60\n        /* \"#utility.yul\":9416:9477   */\n      tag_272\n        /* \"#utility.yul\":9469:9476   */\n      dup8\n        /* \"#utility.yul\":9460:9466   */\n      dup3\n        /* \"#utility.yul\":9449:9458   */\n      dup9\n        /* \"#utility.yul\":9445:9467   */\n      add\n        /* \"#utility.yul\":9416:9477   */\n      tag_150\n      jump\t// in\n    tag_272:\n        /* \"#utility.yul\":9406:9477   */\n      swap2\n      pop\n        /* \"#utility.yul\":9361:9487   */\n      pop\n        /* \"#utility.yul\":8353:9494   */\n      swap3\n      swap6\n      swap2\n      swap5\n      pop\n      swap3\n      pop\n      jump\t// out\n        /* \"#utility.yul\":9500:9680   */\n    tag_151:\n        /* \"#utility.yul\":9548:9625   */\n      0x4e487b7100000000000000000000000000000000000000000000000000000000\n        /* \"#utility.yul\":9545:9546   */\n      0x00\n        /* \"#utility.yul\":9538:9626   */\n      mstore\n        /* \"#utility.yul\":9645:9649   */\n      0x22\n        /* \"#utility.yul\":9642:9643   */\n      0x04\n        /* \"#utility.yul\":9635:9650   */\n      mstore\n        /* \"#utility.yul\":9669:9673   */\n      0x24\n        /* \"#utility.yul\":9666:9667   */\n      0x00\n        /* \"#utility.yul\":9659:9674   */\n      revert\n        /* \"#utility.yul\":9686:10006   */\n    tag_64:\n        /* \"#utility.yul\":9730:9736   */\n      0x00\n        /* \"#utility.yul\":9767:9768   */\n      0x02\n        /* \"#utility.yul\":9761:9765   */\n      dup3\n        /* \"#utility.yul\":9757:9769   */\n      div\n        /* \"#utility.yul\":9747:9769   */\n      swap1\n      pop\n        /* \"#utility.yul\":9814:9815   */\n      0x01\n        /* \"#utility.yul\":9808:9812   */\n      dup3\n        /* \"#utility.yul\":9804:9816   */\n      and\n        /* \"#utility.yul\":9835:9853   */\n      dup1\n        /* \"#utility.yul\":9825:9906   */\n      tag_275\n      jumpi\n        /* \"#utility.yul\":9891:9895   */\n      0x7f\n        /* \"#utility.yul\":9883:9889   */\n      dup3\n        /* \"#utility.yul\":9879:9896   */\n      and\n        /* \"#utility.yul\":9869:9896   */\n      swap2\n      pop\n        /* \"#utility.yul\":9825:9906   */\n    tag_275:\n        /* \"#utility.yul\":9953:9955   */\n      0x20\n        /* \"#utility.yul\":9945:9951   */\n      dup3\n        /* \"#utility.yul\":9942:9956   */\n      lt\n        /* \"#utility.yul\":9922:9940   */\n      dup2\n        /* \"#utility.yul\":9919:9957   */\n      sub\n        /* \"#utility.yul\":9916:10000   */\n      tag_276\n      jumpi\n        /* \"#utility.yul\":9972:9990   */\n      tag_277\n      tag_151\n      jump\t// in\n    tag_277:\n        /* \"#utility.yul\":9916:10000   */\n    tag_276:\n        /* \"#utility.yul\":9737:10006   */\n      pop\n        /* \"#utility.yul\":9686:10006   */\n      swap2\n      swap1\n      pop\n      jump\t// out\n        /* \"#utility.yul\":10012:10160   */\n    tag_152:\n        /* \"#utility.yul\":10114:10125   */\n      0x00\n        /* \"#utility.yul\":10151:10154   */\n      dup2\n        /* \"#utility.yul\":10136:10154   */\n      swap1\n      pop\n        /* \"#utility.yul\":10012:10160   */\n      swap3\n      swap2\n      pop\n      pop\n      jump\t// out\n        /* \"#utility.yul\":10166:10543   */\n    tag_153:\n        /* \"#utility.yul\":10272:10275   */\n      0x00\n        /* \"#utility.yul\":10300:10339   */\n      tag_280\n        /* \"#utility.yul\":10333:10338   */\n      dup3\n        /* \"#utility.yul\":10300:10339   */\n      tag_132\n      jump\t// in\n    tag_280:\n        /* \"#utility.yul\":10355:10444   */\n      tag_281\n        /* \"#utility.yul\":10437:10443   */\n      dup2\n        /* \"#utility.yul\":10432:10435   */\n      dup6\n        /* \"#utility.yul\":10355:10444   */\n      tag_152\n      jump\t// in\n    tag_281:\n        /* \"#utility.yul\":10348:10444   */\n      swap4\n      pop\n        /* \"#utility.yul\":10453:10505   */\n      tag_282\n        /* \"#utility.yul\":10498:10504   */\n      dup2\n        /* \"#utility.yul\":10493:10496   */\n      dup6\n        /* \"#utility.yul\":10486:10490   */\n      0x20\n        /* \"#utility.yul\":10479:10484   */\n      dup7\n        /* \"#utility.yul\":10475:10491   */\n      add\n        /* \"#utility.yul\":10453:10505   */\n      tag_134\n      jump\t// in\n    tag_282:\n        /* \"#utility.yul\":10530:10536   */\n      dup1\n        /* \"#utility.yul\":10525:10528   */\n      dup5\n        /* \"#utility.yul\":10521:10537   */\n      add\n        /* \"#utility.yul\":10514:10537   */\n      swap2\n      pop\n        /* \"#utility.yul\":10276:10543   */\n      pop\n        /* \"#utility.yul\":10166:10543   */\n      swap3\n      swap2\n      pop\n      pop\n      jump\t// out\n        /* \"#utility.yul\":10549:10824   */\n    tag_71:\n        /* \"#utility.yul\":10681:10684   */\n      0x00\n        /* \"#utility.yul\":10703:10798   */\n      tag_284\n        /* \"#utility.yul\":10794:10797   */\n      dup3\n        /* \"#utility.yul\":10785:10791   */\n      dup5\n        /* \"#utility.yul\":10703:10798   */\n      tag_153\n      jump\t// in\n    tag_284:\n        /* \"#utility.yul\":10696:10798   */\n      swap2\n      pop\n        /* \"#utility.yul\":10815:10818   */\n      dup2\n        /* \"#utility.yul\":10808:10818   */\n      swap1\n      pop\n        /* \"#utility.yul\":10549:10824   */\n      swap3\n      swap2\n      pop\n      pop\n      jump\t// out\n        /* \"#utility.yul\":10830:11010   */\n    tag_154:\n        /* \"#utility.yul\":10878:10955   */\n      0x4e487b7100000000000000000000000000000000000000000000000000000000\n        /* \"#utility.yul\":10875:10876   */\n      0x00\n        /* \"#utility.yul\":10868:10956   */\n      mstore\n        /* \"#utility.yul\":10975:10979   */\n      0x11\n        /* \"#utility.yul\":10972:10973   */\n      0x04\n        /* \"#utility.yul\":10965:10980   */\n      mstore\n        /* \"#utility.yul\":10999:11003   */\n      0x24\n        /* \"#utility.yul\":10996:10997   */\n      0x00\n        /* \"#utility.yul\":10989:11004   */\n      revert\n        /* \"#utility.yul\":11016:11249   */\n    tag_76:\n        /* \"#utility.yul\":11055:11058   */\n      0x00\n        /* \"#utility.yul\":11078:11102   */\n      tag_287\n        /* \"#utility.yul\":11096:11101   */\n      dup3\n        /* \"#utility.yul\":11078:11102   */\n      tag_128\n      jump\t// in\n    tag_287:\n        /* \"#utility.yul\":11069:11102   */\n      swap2\n      pop\n        /* \"#utility.yul\":11124:11190   */\n      0xffffffffffffffffffffffffffffffffffffffffffffffffffffffffffffffff\n        /* \"#utility.yul\":11117:11122   */\n      dup3\n        /* \"#utility.yul\":11114:11191   */\n      sub\n        /* \"#utility.yul\":11111:11214   */\n      tag_288\n      jumpi\n        /* \"#utility.yul\":11194:11212   */\n      tag_289\n      tag_154\n      jump\t// in\n    tag_289:\n        /* \"#utility.yul\":11111:11214   */\n    tag_288:\n        /* \"#utility.yul\":11241:11242   */\n      0x01\n        /* \"#utility.yul\":11234:11239   */\n      dup3\n        /* \"#utility.yul\":11230:11243   */\n      add\n        /* \"#utility.yul\":11223:11243   */\n      swap1\n      pop\n        /* \"#utility.yul\":11016:11249   */\n      swap2\n      swap1\n      pop\n      jump\t// out\n        /* \"#utility.yul\":11255:11435   */\n    tag_155:\n        /* \"#utility.yul\":11303:11380   */\n      0x4e487b7100000000000000000000000000000000000000000000000000000000\n        /* \"#utility.yul\":11300:11301   */\n      0x00\n        /* \"#utility.yul\":11293:11381   */\n      mstore\n        /* \"#utility.yul\":11400:11404   */\n      0x12\n        /* \"#utility.yul\":11397:11398   */\n      0x04\n        /* \"#utility.yul\":11390:11405   */\n      mstore\n        /* \"#utility.yul\":11424:11428   */\n      0x24\n        /* \"#utility.yul\":11421:11422   */\n      0x00\n        /* \"#utility.yul\":11414:11429   */\n      revert\n        /* \"#utility.yul\":11441:11626   */\n    tag_87:\n        /* \"#utility.yul\":11481:11482   */\n      0x00\n        /* \"#utility.yul\":11498:11518   */\n      tag_292\n        /* \"#utility.yul\":11516:11517   */\n      dup3\n        /* \"#utility.yul\":11498:11518   */\n      tag_128\n      jump\t// in\n    tag_292:\n        /* \"#utility.yul\":11493:11518   */\n      swap2\n      pop\n        /* \"#utility.yul\":11532:11552   */\n      tag_293\n        /* \"#utility.yul\":11550:11551   */\n      dup4\n        /* \"#utility.yul\":11532:11552   */\n      tag_128\n      jump\t// in\n    tag_293:\n        /* \"#utility.yul\":11527:11552   */\n      swap3\n      pop\n        /* \"#utility.yul\":11571:11572   */\n      dup3\n        /* \"#utility.yul\":11561:11596   */\n      tag_294\n      jumpi\n        /* \"#utility.yul\":11576:11594   */\n      tag_295\n      tag_155\n      jump\t// in\n    tag_295:\n        /* \"#utility.yul\":11561:11596   */\n    tag_294:\n        /* \"#utility.yul\":11618:11619   */\n      dup3\n        /* \"#utility.yul\":11615:11616   */\n      dup3\n        /* \"#utility.yul\":11611:11620   */\n      div\n        /* \"#utility.yul\":11606:11620   */\n      swap1\n      pop\n        /* \"#utility.yul\":11441:11626   */\n      swap3\n      swap2\n      pop\n      pop\n      jump\t// out\n        /* \"#utility.yul\":11632:11801   */\n    tag_156:\n        /* \"#utility.yul\":11772:11793   */\n      0x4e6f20656e6f75676820617070726f76616c7300000000000000000000000000\n        /* \"#utility.yul\":11768:11769   */\n      0x00\n        /* \"#utility.yul\":11760:11766   */\n      dup3\n        /* \"#utility.yul\":11756:11770   */\n      add\n        /* \"#utility.yul\":11749:11794   */\n      mstore\n        /* \"#utility.yul\":11632:11801   */\n      pop\n      jump\t// out\n        /* \"#utility.yul\":11807:12173   */\n    tag_157:\n        /* \"#utility.yul\":11949:11952   */\n      0x00\n        /* \"#utility.yul\":11970:12037   */\n      tag_298\n        /* \"#utility.yul\":12034:12036   */\n      0x13\n        /* \"#utility.yul\":12029:12032   */\n      dup4\n        /* \"#utility.yul\":11970:12037   */\n      tag_133\n      jump\t// in\n    tag_298:\n        /* \"#utility.yul\":11963:12037   */\n      swap2\n      pop\n        /* \"#utility.yul\":12046:12139   */\n      tag_299\n        /* \"#utility.yul\":12135:12138   */\n      dup3\n        /* \"#utility.yul\":12046:12139   */\n      tag_156\n      jump\t// in\n    tag_299:\n        /* \"#utility.yul\":12164:12166   */\n      0x20\n        /* \"#utility.yul\":12159:12162   */\n      dup3\n        /* \"#utility.yul\":12155:12167   */\n      add\n        /* \"#utility.yul\":12148:12167   */\n      swap1\n      pop\n        /* \"#utility.yul\":11807:12173   */\n      swap2\n      swap1\n      pop\n      jump\t// out\n        /* \"#utility.yul\":12179:12598   */\n    tag_90:\n        /* \"#utility.yul\":12345:12349   */\n      0x00\n        /* \"#utility.yul\":12383:12385   */\n      0x20\n        /* \"#utility.yul\":12372:12381   */\n      dup3\n        /* \"#utility.yul\":12368:12386   */\n      add\n        /* \"#utility.yul\":12360:12386   */\n      swap1\n      pop\n        /* \"#utility.yul\":12432:12441   */\n      dup2\n        /* \"#utility.yul\":12426:12430   */\n      dup2\n        /* \"#utility.yul\":12422:12442   */\n      sub\n        /* \"#utility.yul\":12418:12419   */\n      0x00\n        /* \"#utility.yul\":12407:12416   */\n      dup4\n        /* \"#utility.yul\":12403:12420   */\n      add\n        /* \"#utility.yul\":12396:12443   */\n      mstore\n        /* \"#utility.yul\":12460:12591   */\n      tag_301\n        /* \"#utility.yul\":12586:12590   */\n      dup2\n        /* \"#utility.yul\":12460:12591   */\n      tag_157\n      jump\t// in\n    tag_301:\n        /* \"#utility.yul\":12452:12591   */\n      swap1\n      pop\n        /* \"#utility.yul\":12179:12598   */\n      swap2\n      swap1\n      pop\n      jump\t// out\n        /* \"#utility.yul\":12604:12767   */\n    tag_158:\n        /* \"#utility.yul\":12744:12759   */\n      0x636f6d706c657465642079657400000000000000000000000000000000000000\n        /* \"#utility.yul\":12740:12741   */\n      0x00\n        /* \"#utility.yul\":12732:12738   */\n      dup3\n        /* \"#utility.yul\":12728:12742   */\n      add\n        /* \"#utility.yul\":12721:12760   */\n      mstore\n        /* \"#utility.yul\":12604:12767   */\n      pop\n      jump\t// out\n        /* \"#utility.yul\":12773:13139   */\n    tag_159:\n        /* \"#utility.yul\":12915:12918   */\n      0x00\n        /* \"#utility.yul\":12936:13003   */\n      tag_304\n        /* \"#utility.yul\":13000:13002   */\n      0x0d\n        /* \"#utility.yul\":12995:12998   */\n      dup4\n        /* \"#utility.yul\":12936:13003   */\n      tag_133\n      jump\t// in\n    tag_304:\n        /* \"#utility.yul\":12929:13003   */\n      swap2\n      pop\n        /* \"#utility.yul\":13012:13105   */\n      tag_305\n        /* \"#utility.yul\":13101:13104   */\n      dup3\n        /* \"#utility.yul\":13012:13105   */\n      tag_158\n      jump\t// in\n    tag_305:\n        /* \"#utility.yul\":13130:13132   */\n      0x20\n        /* \"#utility.yul\":13125:13128   */\n      dup3\n        /* \"#utility.yul\":13121:13133   */\n      add\n        /* \"#utility.yul\":13114:13133   */\n      swap1\n      pop\n        /* \"#utility.yul\":12773:13139   */\n      swap2\n      swap1\n      pop\n      jump\t// out\n        /* \"#utility.yul\":13145:13564   */\n    tag_93:\n        /* \"#utility.yul\":13311:13315   */\n      0x00\n        /* \"#utility.yul\":13349:13351   */\n      0x20\n        /* \"#utility.yul\":13338:13347   */\n      dup3\n        /* \"#utility.yul\":13334:13352   */\n      add\n        /* \"#utility.yul\":13326:13352   */\n      swap1\n      pop\n        /* \"#utility.yul\":13398:13407   */\n      dup2\n        /* \"#utility.yul\":13392:13396   */\n      dup2\n        /* \"#utility.yul\":13388:13408   */\n      sub\n        /* \"#utility.yul\":13384:13385   */\n      0x00\n        /* \"#utility.yul\":13373:13382   */\n      dup4\n        /* \"#utility.yul\":13369:13386   */\n      add\n        /* \"#utility.yul\":13362:13409   */\n      mstore\n        /* \"#utility.yul\":13426:13557   */\n      tag_307\n        /* \"#utility.yul\":13552:13556   */\n      dup2\n        /* \"#utility.yul\":13426:13557   */\n      tag_159\n      jump\t// in\n    tag_307:\n        /* \"#utility.yul\":13418:13557   */\n      swap1\n      pop\n        /* \"#utility.yul\":13145:13564   */\n      swap2\n      swap1\n      pop\n      jump\t// out\n        /* \"#utility.yul\":13570:13736   */\n    tag_160:\n        /* \"#utility.yul\":13710:13728   */\n      0x6e6f7420656e6f756768206d6f6e657900000000000000000000000000000000\n        /* \"#utility.yul\":13706:13707   */\n      0x00\n        /* \"#utility.yul\":13698:13704   */\n      dup3\n        /* \"#utility.yul\":13694:13708   */\n      add\n        /* \"#utility.yul\":13687:13729   */\n      mstore\n        /* \"#utility.yul\":13570:13736   */\n      pop\n      jump\t// out\n        /* \"#utility.yul\":13742:14108   */\n    tag_161:\n        /* \"#utility.yul\":13884:13887   */\n      0x00\n        /* \"#utility.yul\":13905:13972   */\n      tag_310\n        /* \"#utility.yul\":13969:13971   */\n      0x10\n        /* \"#utility.yul\":13964:13967   */\n      dup4\n        /* \"#utility.yul\":13905:13972   */\n      tag_133\n      jump\t// in\n    tag_310:\n        /* \"#utility.yul\":13898:13972   */\n      swap2\n      pop\n        /* \"#utility.yul\":13981:14074   */\n      tag_311\n        /* \"#utility.yul\":14070:14073   */\n      dup3\n        /* \"#utility.yul\":13981:14074   */\n      tag_160\n      jump\t// in\n    tag_311:\n        /* \"#utility.yul\":14099:14101   */\n      0x20\n        /* \"#utility.yul\":14094:14097   */\n      dup3\n        /* \"#utility.yul\":14090:14102   */\n      add\n        /* \"#utility.yul\":14083:14102   */\n      swap1\n      pop\n        /* \"#utility.yul\":13742:14108   */\n      swap2\n      swap1\n      pop\n      jump\t// out\n        /* \"#utility.yul\":14114:14533   */\n    tag_107:\n        /* \"#utility.yul\":14280:14284   */\n      0x00\n        /* \"#utility.yul\":14318:14320   */\n      0x20\n        /* \"#utility.yul\":14307:14316   */\n      dup3\n        /* \"#utility.yul\":14303:14321   */\n      add\n        /* \"#utility.yul\":14295:14321   */\n      swap1\n      pop\n        /* \"#utility.yul\":14367:14376   */\n      dup2\n        /* \"#utility.yul\":14361:14365   */\n      dup2\n        /* \"#utility.yul\":14357:14377   */\n      sub\n        /* \"#utility.yul\":14353:14354   */\n      0x00\n        /* \"#utility.yul\":14342:14351   */\n      dup4\n        /* \"#utility.yul\":14338:14355   */\n      add\n        /* \"#utility.yul\":14331:14378   */\n      mstore\n        /* \"#utility.yul\":14395:14526   */\n      tag_313\n        /* \"#utility.yul\":14521:14525   */\n      dup2\n        /* \"#utility.yul\":14395:14526   */\n      tag_161\n      jump\t// in\n    tag_313:\n        /* \"#utility.yul\":14387:14526   */\n      swap1\n      pop\n        /* \"#utility.yul\":14114:14533   */\n      swap2\n      swap1\n      pop\n      jump\t// out\n\n    auxdata: 0xa26469706673582212202f54c9bb1cd43bc6af077a17898b3d6f6dfc17be4d3fc55711deb125fccd128f64736f6c634300080d0033\n}\n","bytecode":{"linkReferences":{},"object":"60806040523480156200001157600080fd5b506040516200138138038062001381833981810160405281019062000037919062000134565b81600160006101000a81548173ffffffffffffffffffffffffffffffffffffffff021916908373ffffffffffffffffffffffffffffffffffffffff16021790555080600281905550600060058190555050506200017b565b600080fd5b600073ffffffffffffffffffffffffffffffffffffffff82169050919050565b6000620000c18262000094565b9050919050565b620000d381620000b4565b8114620000df57600080fd5b50565b600081519050620000f381620000c8565b92915050565b6000819050919050565b6200010e81620000f9565b81146200011a57600080fd5b50565b6000815190506200012e8162000103565b92915050565b600080604083850312156200014e576200014d6200008f565b5b60006200015e85828601620000e2565b925050602062000171858286016200011d565b9150509250929050565b6111f6806200018b6000396000f3fe6080604052600436106100915760003560e01c8063692d51d211610059578063692d51d214610182578063937e09b1146101c3578063c4d72051146101ee578063c77412651461020a578063d7bb99ba1461023357610091565b80630a14439114610096578063128e9be6146100d357806316f0e29e146100fe5780631e0715df1461013b578063481c6a7514610157575b600080fd5b3480156100a257600080fd5b506100bd60048036038101906100b89190610a59565b61023d565b6040516100ca9190610aa1565b60405180910390f35b3480156100df57600080fd5b506100e861025d565b6040516100f59190610ad5565b60405180910390f35b34801561010a57600080fd5b5061012560048036038101906101209190610b1c565b610263565b6040516101329190610be2565b60405180910390f35b61015560048036038101906101509190610d39565b61030f565b005b34801561016357600080fd5b5061016c610465565b6040516101799190610d91565b60405180910390f35b34801561018e57600080fd5b506101a960048036038101906101a49190610d39565b61048b565b6040516101ba959493929190610dcd565b60405180910390f35b3480156101cf57600080fd5b506101d861058c565b6040516101e59190610ad5565b60405180910390f35b61020860048036038101906102039190610d39565b610592565b005b34801561021657600080fd5b50610231600480360381019061022c9190610e53565b610743565b005b61023b61088d565b005b60046020528060005260406000206000915054906101000a900460ff1681565b60055481565b6003818154811061027357600080fd5b90600052602060002001600091509050805461028e90610f21565b80601f01602080910402602001604051908101604052809291908181526020018280546102ba90610f21565b80156103075780601f106102dc57610100808354040283529160200191610307565b820191906000526020600020905b8154815290600101906020018083116102ea57829003601f168201915b505050505081565b600080826040516103209190610f8e565b90815260200160405180910390209050600460003373ffffffffffffffffffffffffffffffffffffffff1673ffffffffffffffffffffffffffffffffffffffff16815260200190815260200160002060009054906101000a900460ff1661038657600080fd5b8060040160003373ffffffffffffffffffffffffffffffffffffffff1673ffffffffffffffffffffffffffffffffffffffff16815260200190815260200160002060009054906101000a900460ff16156103df57600080fd5b6000816001015411156104615760018160040160003373ffffffffffffffffffffffffffffffffffffffff1673ffffffffffffffffffffffffffffffffffffffff16815260200190815260200160002060006101000a81548160ff02191690831515021790555080600301600081548092919061045b90610fd4565b91905055505b5050565b600160009054906101000a900473ffffffffffffffffffffffffffffffffffffffff1681565b6000818051602081018201805184825260208301602085012081835280955050505050506000915090508060000180546104c490610f21565b80601f01602080910402602001604051908101604052809291908181526020018280546104f090610f21565b801561053d5780601f106105125761010080835404028352916020019161053d565b820191906000526020600020905b81548152906001019060200180831161052057829003601f168201915b5050505050908060010154908060020160009054906101000a900473ffffffffffffffffffffffffffffffffffffffff16908060020160149054906101000a900460ff16908060030154905085565b60025481565b600160009054906101000a900473ffffffffffffffffffffffffffffffffffffffff1673ffffffffffffffffffffffffffffffffffffffff163373ffffffffffffffffffffffffffffffffffffffff16146105ec57600080fd5b600080826040516105fd9190610f8e565b90815260200160405180910390209050600260055461061c919061104b565b816003015411610661576040517f08c379a0000000000000000000000000000000000000000000000000000000008152600401610658906110c8565b60405180910390fd5b8060020160149054906101000a900460ff16156106b3576040517f08c379a00000000000000000000000000000000000000000000000000000000081526004016106aa90611134565b60405180910390fd5b8060020160009054906101000a900473ffffffffffffffffffffffffffffffffffffffff1673ffffffffffffffffffffffffffffffffffffffff166108fc82600101549081150290604051600060405180830381858888f19350505050158015610721573d6000803e3d6000fd5b5060018160020160146101000a81548160ff0219169083151502179055505050565b600160009054906101000a900473ffffffffffffffffffffffffffffffffffffffff1673ffffffffffffffffffffffffffffffffffffffff163373ffffffffffffffffffffffffffffffffffffffff161461079d57600080fd5b600080856040516107ae9190610f8e565b908152602001604051809103902090506003859080600181540180825580915050600190039060005260206000200160009091909190915090805190602001906107f9929190610944565b5083816000019080519060200190610812929190610944565b50828160010181905550818160020160006101000a81548173ffffffffffffffffffffffffffffffffffffffff021916908373ffffffffffffffffffffffffffffffffffffffff16021790555060008160020160146101000a81548160ff021916908315150217905550600081600301819055505050505050565b6002543410156108d2576040517f08c379a00000000000000000000000000000000000000000000000000000000081526004016108c9906111a0565b60405180910390fd5b6001600460003373ffffffffffffffffffffffffffffffffffffffff1673ffffffffffffffffffffffffffffffffffffffff16815260200190815260200160002060006101000a81548160ff0219169083151502179055506005600081548092919061093d90610fd4565b9190505550565b82805461095090610f21565b90600052602060002090601f01602090048101928261097257600085556109b9565b82601f1061098b57805160ff19168380011785556109b9565b828001600101855582156109b9579182015b828111156109b857825182559160200191906001019061099d565b5b5090506109c691906109ca565b5090565b5b808211156109e35760008160009055506001016109cb565b5090565b6000604051905090565b600080fd5b600080fd5b600073ffffffffffffffffffffffffffffffffffffffff82169050919050565b6000610a26826109fb565b9050919050565b610a3681610a1b565b8114610a4157600080fd5b50565b600081359050610a5381610a2d565b92915050565b600060208284031215610a6f57610a6e6109f1565b5b6000610a7d84828501610a44565b91505092915050565b60008115159050919050565b610a9b81610a86565b82525050565b6000602082019050610ab66000830184610a92565b92915050565b6000819050919050565b610acf81610abc565b82525050565b6000602082019050610aea6000830184610ac6565b92915050565b610af981610abc565b8114610b0457600080fd5b50565b600081359050610b1681610af0565b92915050565b600060208284031215610b3257610b316109f1565b5b6000610b4084828501610b07565b91505092915050565b600081519050919050565b600082825260208201905092915050565b60005b83811015610b83578082015181840152602081019050610b68565b83811115610b92576000848401525b50505050565b6000601f19601f8301169050919050565b6000610bb482610b49565b610bbe8185610b54565b9350610bce818560208601610b65565b610bd781610b98565b840191505092915050565b60006020820190508181036000830152610bfc8184610ba9565b905092915050565b600080fd5b600080fd5b7f4e487b7100000000000000000000000000000000000000000000000000000000600052604160045260246000fd5b610c4682610b98565b810181811067ffffffffffffffff82111715610c6557610c64610c0e565b5b80604052505050565b6000610c786109e7565b9050610c848282610c3d565b919050565b600067ffffffffffffffff821115610ca457610ca3610c0e565b5b610cad82610b98565b9050602081019050919050565b82818337600083830152505050565b6000610cdc610cd784610c89565b610c6e565b905082815260208101848484011115610cf857610cf7610c09565b5b610d03848285610cba565b509392505050565b600082601f830112610d2057610d1f610c04565b5b8135610d30848260208601610cc9565b91505092915050565b600060208284031215610d4f57610d4e6109f1565b5b600082013567ffffffffffffffff811115610d6d57610d6c6109f6565b5b610d7984828501610d0b565b91505092915050565b610d8b81610a1b565b82525050565b6000602082019050610da66000830184610d82565b92915050565b6000610db7826109fb565b9050919050565b610dc781610dac565b82525050565b600060a0820190508181036000830152610de78188610ba9565b9050610df66020830187610ac6565b610e036040830186610dbe565b610e106060830185610a92565b610e1d6080830184610ac6565b9695505050505050565b610e3081610dac565b8114610e3b57600080fd5b50565b600081359050610e4d81610e27565b92915050565b60008060008060808587031215610e6d57610e6c6109f1565b5b600085013567ffffffffffffffff811115610e8b57610e8a6109f6565b5b610e9787828801610d0b565b945050602085013567ffffffffffffffff811115610eb857610eb76109f6565b5b610ec487828801610d0b565b9350506040610ed587828801610b07565b9250506060610ee687828801610e3e565b91505092959194509250565b7f4e487b7100000000000000000000000000000000000000000000000000000000600052602260045260246000fd5b60006002820490506001821680610f3957607f821691505b602082108103610f4c57610f4b610ef2565b5b50919050565b600081905092915050565b6000610f6882610b49565b610f728185610f52565b9350610f82818560208601610b65565b80840191505092915050565b6000610f9a8284610f5d565b915081905092915050565b7f4e487b7100000000000000000000000000000000000000000000000000000000600052601160045260246000fd5b6000610fdf82610abc565b91507fffffffffffffffffffffffffffffffffffffffffffffffffffffffffffffffff820361101157611010610fa5565b5b600182019050919050565b7f4e487b7100000000000000000000000000000000000000000000000000000000600052601260045260246000fd5b600061105682610abc565b915061106183610abc565b9250826110715761107061101c565b5b828204905092915050565b7f4e6f20656e6f75676820617070726f76616c7300000000000000000000000000600082015250565b60006110b2601383610b54565b91506110bd8261107c565b602082019050919050565b600060208201905081810360008301526110e1816110a5565b9050919050565b7f636f6d706c657465642079657400000000000000000000000000000000000000600082015250565b600061111e600d83610b54565b9150611129826110e8565b602082019050919050565b6000602082019050818103600083015261114d81611111565b9050919050565b7f6e6f7420656e6f756768206d6f6e657900000000000000000000000000000000600082015250565b600061118a601083610b54565b915061119582611154565b602082019050919050565b600060208201905081810360008301526111b98161117d565b905091905056fea26469706673582212202f54c9bb1cd43bc6af077a17898b3d6f6dfc17be4d3fc55711deb125fccd128f64736f6c634300080d0033","opcodes":"PUSH1 0x80 PUSH1 0x40 MSTORE CALLVALUE DUP1 ISZERO PUSH3 0x11 JUMPI PUSH1 0x0 DUP1 REVERT JUMPDEST POP PUSH1 0x40 MLOAD PUSH3 0x1381 CODESIZE SUB DUP1 PUSH3 0x1381 DUP4 CODECOPY DUP2 DUP2 ADD PUSH1 0x40 MSTORE DUP2 ADD SWAP1 PUSH3 0x37 SWAP2 SWAP1 PUSH3 0x134 JUMP JUMPDEST DUP2 PUSH1 0x1 PUSH1 0x0 PUSH2 0x100 EXP DUP2 SLOAD DUP2 PUSH20 0xFFFFFFFFFFFFFFFFFFFFFFFFFFFFFFFFFFFFFFFF MUL NOT AND SWAP1 DUP4 PUSH20 0xFFFFFFFFFFFFFFFFFFFFFFFFFFFFFFFFFFFFFFFF AND MUL OR SWAP1 SSTORE POP DUP1 PUSH1 0x2 DUP2 SWAP1 SSTORE POP PUSH1 0x0 PUSH1 0x5 DUP2 SWAP1 SSTORE POP POP POP PUSH3 0x17B JUMP JUMPDEST PUSH1 0x0 DUP1 REVERT JUMPDEST PUSH1 0x0 PUSH20 0xFFFFFFFFFFFFFFFFFFFFFFFFFFFFFFFFFFFFFFFF DUP3 AND SWAP1 POP SWAP2 SWAP1 POP JUMP JUMPDEST PUSH1 0x0 PUSH3 0xC1 DUP3 PUSH3 0x94 JUMP JUMPDEST SWAP1 POP SWAP2 SWAP1 POP JUMP JUMPDEST PUSH3 0xD3 DUP2 PUSH3 0xB4 JUMP JUMPDEST DUP2 EQ PUSH3 0xDF JUMPI PUSH1 0x0 DUP1 REVERT JUMPDEST POP JUMP JUMPDEST PUSH1 0x0 DUP2 MLOAD SWAP1 POP PUSH3 0xF3 DUP2 PUSH3 0xC8 JUMP JUMPDEST SWAP3 SWAP2 POP POP JUMP JUMPDEST PUSH1 0x0 DUP2 SWAP1 POP SWAP2 SWAP1 POP JUMP JUMPDEST PUSH3 0x10E DUP2 PUSH3 0xF9 JUMP JUMPDEST DUP2 EQ PUSH3 0x11A JUMPI PUSH1 0x0 DUP1 REVERT JUMPDEST POP JUMP JUMPDEST PUSH1 0x0 DUP2 MLOAD SWAP1 POP PUSH3 0x12E DUP2 PUSH3 0x103 JUMP JUMPDEST SWAP3 SWAP2 POP POP JUMP JUMPDEST PUSH1 0x0 DUP1 PUSH1 0x40 DUP4 DUP6 SUB SLT ISZERO PUSH3 0x14E JUMPI PUSH3 0x14D PUSH3 0x8F JUMP JUMPDEST JUMPDEST PUSH1 0x0 PUSH3 0x15E DUP6 DUP3 DUP7 ADD PUSH3 0xE2 JUMP JUMPDEST SWAP3 POP POP PUSH1 0x20 PUSH3 0x171 DUP6 DUP3 DUP7 ADD PUSH3 0x11D JUMP JUMPDEST SWAP2 POP POP SWAP3 POP SWAP3 SWAP1 POP JUMP JUMPDEST PUSH2 0x11F6 DUP1 PUSH3 0x18B PUSH1 0x0 CODECOPY PUSH1 0x0 RETURN INVALID PUSH1 0x80 PUSH1 0x40 MSTORE PUSH1 0x4 CALLDATASIZE LT PUSH2 0x91 JUMPI PUSH1 0x0 CALLDATALOAD PUSH1 0xE0 SHR DUP1 PUSH4 0x692D51D2 GT PUSH2 0x59 JUMPI DUP1 PUSH4 0x692D51D2 EQ PUSH2 0x182 JUMPI DUP1 PUSH4 0x937E09B1 EQ PUSH2 0x1C3 JUMPI DUP1 PUSH4 0xC4D72051 EQ PUSH2 0x1EE JUMPI DUP1 PUSH4 0xC7741265 EQ PUSH2 0x20A JUMPI DUP1 PUSH4 0xD7BB99BA EQ PUSH2 0x233 JUMPI PUSH2 0x91 JUMP JUMPDEST DUP1 PUSH4 0xA144391 EQ PUSH2 0x96 JUMPI DUP1 PUSH4 0x128E9BE6 EQ PUSH2 0xD3 JUMPI DUP1 PUSH4 0x16F0E29E EQ PUSH2 0xFE JUMPI DUP1 PUSH4 0x1E0715DF EQ PUSH2 0x13B JUMPI DUP1 PUSH4 0x481C6A75 EQ PUSH2 0x157 JUMPI JUMPDEST PUSH1 0x0 DUP1 REVERT JUMPDEST CALLVALUE DUP1 ISZERO PUSH2 0xA2 JUMPI PUSH1 0x0 DUP1 REVERT JUMPDEST POP PUSH2 0xBD PUSH1 0x4 DUP1 CALLDATASIZE SUB DUP2 ADD SWAP1 PUSH2 0xB8 SWAP2 SWAP1 PUSH2 0xA59 JUMP JUMPDEST PUSH2 0x23D JUMP JUMPDEST PUSH1 0x40 MLOAD PUSH2 0xCA SWAP2 SWAP1 PUSH2 0xAA1 JUMP JUMPDEST PUSH1 0x40 MLOAD DUP1 SWAP2 SUB SWAP1 RETURN JUMPDEST CALLVALUE DUP1 ISZERO PUSH2 0xDF JUMPI PUSH1 0x0 DUP1 REVERT JUMPDEST POP PUSH2 0xE8 PUSH2 0x25D JUMP JUMPDEST PUSH1 0x40 MLOAD PUSH2 0xF5 SWAP2 SWAP1 PUSH2 0xAD5 JUMP JUMPDEST PUSH1 0x40 MLOAD DUP1 SWAP2 SUB SWAP1 RETURN JUMPDEST CALLVALUE DUP1 ISZERO PUSH2 0x10A JUMPI PUSH1 0x0 DUP1 REVERT JUMPDEST POP PUSH2 0x125 PUSH1 0x4 DUP1 CALLDATASIZE SUB DUP2 ADD SWAP1 PUSH2 0x120 SWAP2 SWAP1 PUSH2 0xB1C JUMP JUMPDEST PUSH2 0x263 JUMP JUMPDEST PUSH1 0x40 MLOAD PUSH2 0x132 SWAP2 SWAP1 PUSH2 0xBE2 JUMP JUMPDEST PUSH1 0x40 MLOAD DUP1 SWAP2 SUB SWAP1 RETURN JUMPDEST PUSH2 0x155 PUSH1 0x4 DUP1 CALLDATASIZE SUB DUP2 ADD SWAP1 PUSH2 0x150 SWAP2 SWAP1 PUSH2 0xD39 JUMP JUMPDEST PUSH2 0x30F JUMP JUMPDEST STOP JUMPDEST CALLVALUE DUP1 ISZERO PUSH2 0x163 JUMPI PUSH1 0x0 DUP1 REVERT JUMPDEST POP PUSH2 0x16C PUSH2 0x465 JUMP JUMPDEST PUSH1 0x40 MLOAD PUSH2 0x179 SWAP2 SWAP1 PUSH2 0xD91 JUMP JUMPDEST PUSH1 0x40 MLOAD DUP1 SWAP2 SUB SWAP1 RETURN JUMPDEST CALLVALUE DUP1 ISZERO PUSH2 0x18E JUMPI PUSH1 0x0 DUP1 REVERT JUMPDEST POP PUSH2 0x1A9 PUSH1 0x4 DUP1 CALLDATASIZE SUB DUP2 ADD SWAP1 PUSH2 0x1A4 SWAP2 SWAP1 PUSH2 0xD39 JUMP JUMPDEST PUSH2 0x48B JUMP JUMPDEST PUSH1 0x40 MLOAD PUSH2 0x1BA SWAP6 SWAP5 SWAP4 SWAP3 SWAP2 SWAP1 PUSH2 0xDCD JUMP JUMPDEST PUSH1 0x40 MLOAD DUP1 SWAP2 SUB SWAP1 RETURN JUMPDEST CALLVALUE DUP1 ISZERO PUSH2 0x1CF JUMPI PUSH1 0x0 DUP1 REVERT JUMPDEST POP PUSH2 0x1D8 PUSH2 0x58C JUMP JUMPDEST PUSH1 0x40 MLOAD PUSH2 0x1E5 SWAP2 SWAP1 PUSH2 0xAD5 JUMP JUMPDEST PUSH1 0x40 MLOAD DUP1 SWAP2 SUB SWAP1 RETURN JUMPDEST PUSH2 0x208 PUSH1 0x4 DUP1 CALLDATASIZE SUB DUP2 ADD SWAP1 PUSH2 0x203 SWAP2 SWAP1 PUSH2 0xD39 JUMP JUMPDEST PUSH2 0x592 JUMP JUMPDEST STOP JUMPDEST CALLVALUE DUP1 ISZERO PUSH2 0x216 JUMPI PUSH1 0x0 DUP1 REVERT JUMPDEST POP PUSH2 0x231 PUSH1 0x4 DUP1 CALLDATASIZE SUB DUP2 ADD SWAP1 PUSH2 0x22C SWAP2 SWAP1 PUSH2 0xE53 JUMP JUMPDEST PUSH2 0x743 JUMP JUMPDEST STOP JUMPDEST PUSH2 0x23B PUSH2 0x88D JUMP JUMPDEST STOP JUMPDEST PUSH1 0x4 PUSH1 0x20 MSTORE DUP1 PUSH1 0x0 MSTORE PUSH1 0x40 PUSH1 0x0 KECCAK256 PUSH1 0x0 SWAP2 POP SLOAD SWAP1 PUSH2 0x100 EXP SWAP1 DIV PUSH1 0xFF AND DUP2 JUMP JUMPDEST PUSH1 0x5 SLOAD DUP2 JUMP JUMPDEST PUSH1 0x3 DUP2 DUP2 SLOAD DUP2 LT PUSH2 0x273 JUMPI PUSH1 0x0 DUP1 REVERT JUMPDEST SWAP1 PUSH1 0x0 MSTORE PUSH1 0x20 PUSH1 0x0 KECCAK256 ADD PUSH1 0x0 SWAP2 POP SWAP1 POP DUP1 SLOAD PUSH2 0x28E SWAP1 PUSH2 0xF21 JUMP JUMPDEST DUP1 PUSH1 0x1F ADD PUSH1 0x20 DUP1 SWAP2 DIV MUL PUSH1 0x20 ADD PUSH1 0x40 MLOAD SWAP1 DUP2 ADD PUSH1 0x40 MSTORE DUP1 SWAP3 SWAP2 SWAP1 DUP2 DUP2 MSTORE PUSH1 0x20 ADD DUP3 DUP1 SLOAD PUSH2 0x2BA SWAP1 PUSH2 0xF21 JUMP JUMPDEST DUP1 ISZERO PUSH2 0x307 JUMPI DUP1 PUSH1 0x1F LT PUSH2 0x2DC JUMPI PUSH2 0x100 DUP1 DUP4 SLOAD DIV MUL DUP4 MSTORE SWAP2 PUSH1 0x20 ADD SWAP2 PUSH2 0x307 JUMP JUMPDEST DUP3 ADD SWAP2 SWAP1 PUSH1 0x0 MSTORE PUSH1 0x20 PUSH1 0x0 KECCAK256 SWAP1 JUMPDEST DUP2 SLOAD DUP2 MSTORE SWAP1 PUSH1 0x1 ADD SWAP1 PUSH1 0x20 ADD DUP1 DUP4 GT PUSH2 0x2EA JUMPI DUP3 SWAP1 SUB PUSH1 0x1F AND DUP3 ADD SWAP2 JUMPDEST POP POP POP POP POP DUP2 JUMP JUMPDEST PUSH1 0x0 DUP1 DUP3 PUSH1 0x40 MLOAD PUSH2 0x320 SWAP2 SWAP1 PUSH2 0xF8E JUMP JUMPDEST SWAP1 DUP2 MSTORE PUSH1 0x20 ADD PUSH1 0x40 MLOAD DUP1 SWAP2 SUB SWAP1 KECCAK256 SWAP1 POP PUSH1 0x4 PUSH1 0x0 CALLER PUSH20 0xFFFFFFFFFFFFFFFFFFFFFFFFFFFFFFFFFFFFFFFF AND PUSH20 0xFFFFFFFFFFFFFFFFFFFFFFFFFFFFFFFFFFFFFFFF AND DUP2 MSTORE PUSH1 0x20 ADD SWAP1 DUP2 MSTORE PUSH1 0x20 ADD PUSH1 0x0 KECCAK256 PUSH1 0x0 SWAP1 SLOAD SWAP1 PUSH2 0x100 EXP SWAP1 DIV PUSH1 0xFF AND PUSH2 0x386 JUMPI PUSH1 0x0 DUP1 REVERT JUMPDEST DUP1 PUSH1 0x4 ADD PUSH1 0x0 CALLER PUSH20 0xFFFFFFFFFFFFFFFFFFFFFFFFFFFFFFFFFFFFFFFF AND PUSH20 0xFFFFFFFFFFFFFFFFFFFFFFFFFFFFFFFFFFFFFFFF AND DUP2 MSTORE PUSH1 0x20 ADD SWAP1 DUP2 MSTORE PUSH1 0x20 ADD PUSH1 0x0 KECCAK256 PUSH1 0x0 SWAP1 SLOAD SWAP1 PUSH2 0x100 EXP SWAP1 DIV PUSH1 0xFF AND ISZERO PUSH2 0x3DF JUMPI PUSH1 0x0 DUP1 REVERT JUMPDEST PUSH1 0x0 DUP2 PUSH1 0x1 ADD SLOAD GT ISZERO PUSH2 0x461 JUMPI PUSH1 0x1 DUP2 PUSH1 0x4 ADD PUSH1 0x0 CALLER PUSH20 0xFFFFFFFFFFFFFFFFFFFFFFFFFFFFFFFFFFFFFFFF AND PUSH20 0xFFFFFFFFFFFFFFFFFFFFFFFFFFFFFFFFFFFFFFFF AND DUP2 MSTORE PUSH1 0x20 ADD SWAP1 DUP2 MSTORE PUSH1 0x20 ADD PUSH1 0x0 KECCAK256 PUSH1 0x0 PUSH2 0x100 EXP DUP2 SLOAD DUP2 PUSH1 0xFF MUL NOT AND SWAP1 DUP4 ISZERO ISZERO MUL OR SWAP1 SSTORE POP DUP1 PUSH1 0x3 ADD PUSH1 0x0 DUP2 SLOAD DUP1 SWAP3 SWAP2 SWAP1 PUSH2 0x45B SWAP1 PUSH2 0xFD4 JUMP JUMPDEST SWAP2 SWAP1 POP SSTORE POP JUMPDEST POP POP JUMP JUMPDEST PUSH1 0x1 PUSH1 0x0 SWAP1 SLOAD SWAP1 PUSH2 0x100 EXP SWAP1 DIV PUSH20 0xFFFFFFFFFFFFFFFFFFFFFFFFFFFFFFFFFFFFFFFF AND DUP2 JUMP JUMPDEST PUSH1 0x0 DUP2 DUP1 MLOAD PUSH1 0x20 DUP2 ADD DUP3 ADD DUP1 MLOAD DUP5 DUP3 MSTORE PUSH1 0x20 DUP4 ADD PUSH1 0x20 DUP6 ADD KECCAK256 DUP2 DUP4 MSTORE DUP1 SWAP6 POP POP POP POP POP POP PUSH1 0x0 SWAP2 POP SWAP1 POP DUP1 PUSH1 0x0 ADD DUP1 SLOAD PUSH2 0x4C4 SWAP1 PUSH2 0xF21 JUMP JUMPDEST DUP1 PUSH1 0x1F ADD PUSH1 0x20 DUP1 SWAP2 DIV MUL PUSH1 0x20 ADD PUSH1 0x40 MLOAD SWAP1 DUP2 ADD PUSH1 0x40 MSTORE DUP1 SWAP3 SWAP2 SWAP1 DUP2 DUP2 MSTORE PUSH1 0x20 ADD DUP3 DUP1 SLOAD PUSH2 0x4F0 SWAP1 PUSH2 0xF21 JUMP JUMPDEST DUP1 ISZERO PUSH2 0x53D JUMPI DUP1 PUSH1 0x1F LT PUSH2 0x512 JUMPI PUSH2 0x100 DUP1 DUP4 SLOAD DIV MUL DUP4 MSTORE SWAP2 PUSH1 0x20 ADD SWAP2 PUSH2 0x53D JUMP JUMPDEST DUP3 ADD SWAP2 SWAP1 PUSH1 0x0 MSTORE PUSH1 0x20 PUSH1 0x0 KECCAK256 SWAP1 JUMPDEST DUP2 SLOAD DUP2 MSTORE SWAP1 PUSH1 0x1 ADD SWAP1 PUSH1 0x20 ADD DUP1 DUP4 GT PUSH2 0x520 JUMPI DUP3 SWAP1 SUB PUSH1 0x1F AND DUP3 ADD SWAP2 JUMPDEST POP POP POP POP POP SWAP1 DUP1 PUSH1 0x1 ADD SLOAD SWAP1 DUP1 PUSH1 0x2 ADD PUSH1 0x0 SWAP1 SLOAD SWAP1 PUSH2 0x100 EXP SWAP1 DIV PUSH20 0xFFFFFFFFFFFFFFFFFFFFFFFFFFFFFFFFFFFFFFFF AND SWAP1 DUP1 PUSH1 0x2 ADD PUSH1 0x14 SWAP1 SLOAD SWAP1 PUSH2 0x100 EXP SWAP1 DIV PUSH1 0xFF AND SWAP1 DUP1 PUSH1 0x3 ADD SLOAD SWAP1 POP DUP6 JUMP JUMPDEST PUSH1 0x2 SLOAD DUP2 JUMP JUMPDEST PUSH1 0x1 PUSH1 0x0 SWAP1 SLOAD SWAP1 PUSH2 0x100 EXP SWAP1 DIV PUSH20 0xFFFFFFFFFFFFFFFFFFFFFFFFFFFFFFFFFFFFFFFF AND PUSH20 0xFFFFFFFFFFFFFFFFFFFFFFFFFFFFFFFFFFFFFFFF AND CALLER PUSH20 0xFFFFFFFFFFFFFFFFFFFFFFFFFFFFFFFFFFFFFFFF AND EQ PUSH2 0x5EC JUMPI PUSH1 0x0 DUP1 REVERT JUMPDEST PUSH1 0x0 DUP1 DUP3 PUSH1 0x40 MLOAD PUSH2 0x5FD SWAP2 SWAP1 PUSH2 0xF8E JUMP JUMPDEST SWAP1 DUP2 MSTORE PUSH1 0x20 ADD PUSH1 0x40 MLOAD DUP1 SWAP2 SUB SWAP1 KECCAK256 SWAP1 POP PUSH1 0x2 PUSH1 0x5 SLOAD PUSH2 0x61C SWAP2 SWAP1 PUSH2 0x104B JUMP JUMPDEST DUP2 PUSH1 0x3 ADD SLOAD GT PUSH2 0x661 JUMPI PUSH1 0x40 MLOAD PUSH32 0x8C379A000000000000000000000000000000000000000000000000000000000 DUP2 MSTORE PUSH1 0x4 ADD PUSH2 0x658 SWAP1 PUSH2 0x10C8 JUMP JUMPDEST PUSH1 0x40 MLOAD DUP1 SWAP2 SUB SWAP1 REVERT JUMPDEST DUP1 PUSH1 0x2 ADD PUSH1 0x14 SWAP1 SLOAD SWAP1 PUSH2 0x100 EXP SWAP1 DIV PUSH1 0xFF AND ISZERO PUSH2 0x6B3 JUMPI PUSH1 0x40 MLOAD PUSH32 0x8C379A000000000000000000000000000000000000000000000000000000000 DUP2 MSTORE PUSH1 0x4 ADD PUSH2 0x6AA SWAP1 PUSH2 0x1134 JUMP JUMPDEST PUSH1 0x40 MLOAD DUP1 SWAP2 SUB SWAP1 REVERT JUMPDEST DUP1 PUSH1 0x2 ADD PUSH1 0x0 SWAP1 SLOAD SWAP1 PUSH2 0x100 EXP SWAP1 DIV PUSH20 0xFFFFFFFFFFFFFFFFFFFFFFFFFFFFFFFFFFFFFFFF AND PUSH20 0xFFFFFFFFFFFFFFFFFFFFFFFFFFFFFFFFFFFFFFFF AND PUSH2 0x8FC DUP3 PUSH1 0x1 ADD SLOAD SWAP1 DUP2 ISZERO MUL SWAP1 PUSH1 0x40 MLOAD PUSH1 0x0 PUSH1 0x40 MLOAD DUP1 DUP4 SUB DUP2 DUP6 DUP9 DUP9 CALL SWAP4 POP POP POP POP ISZERO DUP1 ISZERO PUSH2 0x721 JUMPI RETURNDATASIZE PUSH1 0x0 DUP1 RETURNDATACOPY RETURNDATASIZE PUSH1 0x0 REVERT JUMPDEST POP PUSH1 0x1 DUP2 PUSH1 0x2 ADD PUSH1 0x14 PUSH2 0x100 EXP DUP2 SLOAD DUP2 PUSH1 0xFF MUL NOT AND SWAP1 DUP4 ISZERO ISZERO MUL OR SWAP1 SSTORE POP POP POP JUMP JUMPDEST PUSH1 0x1 PUSH1 0x0 SWAP1 SLOAD SWAP1 PUSH2 0x100 EXP SWAP1 DIV PUSH20 0xFFFFFFFFFFFFFFFFFFFFFFFFFFFFFFFFFFFFFFFF AND PUSH20 0xFFFFFFFFFFFFFFFFFFFFFFFFFFFFFFFFFFFFFFFF AND CALLER PUSH20 0xFFFFFFFFFFFFFFFFFFFFFFFFFFFFFFFFFFFFFFFF AND EQ PUSH2 0x79D JUMPI PUSH1 0x0 DUP1 REVERT JUMPDEST PUSH1 0x0 DUP1 DUP6 PUSH1 0x40 MLOAD PUSH2 0x7AE SWAP2 SWAP1 PUSH2 0xF8E JUMP JUMPDEST SWAP1 DUP2 MSTORE PUSH1 0x20 ADD PUSH1 0x40 MLOAD DUP1 SWAP2 SUB SWAP1 KECCAK256 SWAP1 POP PUSH1 0x3 DUP6 SWAP1 DUP1 PUSH1 0x1 DUP2 SLOAD ADD DUP1 DUP3 SSTORE DUP1 SWAP2 POP POP PUSH1 0x1 SWAP1 SUB SWAP1 PUSH1 0x0 MSTORE PUSH1 0x20 PUSH1 0x0 KECCAK256 ADD PUSH1 0x0 SWAP1 SWAP2 SWAP1 SWAP2 SWAP1 SWAP2 POP SWAP1 DUP1 MLOAD SWAP1 PUSH1 0x20 ADD SWAP1 PUSH2 0x7F9 SWAP3 SWAP2 SWAP1 PUSH2 0x944 JUMP JUMPDEST POP DUP4 DUP2 PUSH1 0x0 ADD SWAP1 DUP1 MLOAD SWAP1 PUSH1 0x20 ADD SWAP1 PUSH2 0x812 SWAP3 SWAP2 SWAP1 PUSH2 0x944 JUMP JUMPDEST POP DUP3 DUP2 PUSH1 0x1 ADD DUP2 SWAP1 SSTORE POP DUP2 DUP2 PUSH1 0x2 ADD PUSH1 0x0 PUSH2 0x100 EXP DUP2 SLOAD DUP2 PUSH20 0xFFFFFFFFFFFFFFFFFFFFFFFFFFFFFFFFFFFFFFFF MUL NOT AND SWAP1 DUP4 PUSH20 0xFFFFFFFFFFFFFFFFFFFFFFFFFFFFFFFFFFFFFFFF AND MUL OR SWAP1 SSTORE POP PUSH1 0x0 DUP2 PUSH1 0x2 ADD PUSH1 0x14 PUSH2 0x100 EXP DUP2 SLOAD DUP2 PUSH1 0xFF MUL NOT AND SWAP1 DUP4 ISZERO ISZERO MUL OR SWAP1 SSTORE POP PUSH1 0x0 DUP2 PUSH1 0x3 ADD DUP2 SWAP1 SSTORE POP POP POP POP POP POP JUMP JUMPDEST PUSH1 0x2 SLOAD CALLVALUE LT ISZERO PUSH2 0x8D2 JUMPI PUSH1 0x40 MLOAD PUSH32 0x8C379A000000000000000000000000000000000000000000000000000000000 DUP2 MSTORE PUSH1 0x4 ADD PUSH2 0x8C9 SWAP1 PUSH2 0x11A0 JUMP JUMPDEST PUSH1 0x40 MLOAD DUP1 SWAP2 SUB SWAP1 REVERT JUMPDEST PUSH1 0x1 PUSH1 0x4 PUSH1 0x0 CALLER PUSH20 0xFFFFFFFFFFFFFFFFFFFFFFFFFFFFFFFFFFFFFFFF AND PUSH20 0xFFFFFFFFFFFFFFFFFFFFFFFFFFFFFFFFFFFFFFFF AND DUP2 MSTORE PUSH1 0x20 ADD SWAP1 DUP2 MSTORE PUSH1 0x20 ADD PUSH1 0x0 KECCAK256 PUSH1 0x0 PUSH2 0x100 EXP DUP2 SLOAD DUP2 PUSH1 0xFF MUL NOT AND SWAP1 DUP4 ISZERO ISZERO MUL OR SWAP1 SSTORE POP PUSH1 0x5 PUSH1 0x0 DUP2 SLOAD DUP1 SWAP3 SWAP2 SWAP1 PUSH2 0x93D SWAP1 PUSH2 0xFD4 JUMP JUMPDEST SWAP2 SWAP1 POP SSTORE POP JUMP JUMPDEST DUP3 DUP1 SLOAD PUSH2 0x950 SWAP1 PUSH2 0xF21 JUMP JUMPDEST SWAP1 PUSH1 0x0 MSTORE PUSH1 0x20 PUSH1 0x0 KECCAK256 SWAP1 PUSH1 0x1F ADD PUSH1 0x20 SWAP1 DIV DUP2 ADD SWAP3 DUP3 PUSH2 0x972 JUMPI PUSH1 0x0 DUP6 SSTORE PUSH2 0x9B9 JUMP JUMPDEST DUP3 PUSH1 0x1F LT PUSH2 0x98B JUMPI DUP1 MLOAD PUSH1 0xFF NOT AND DUP4 DUP1 ADD OR DUP6 SSTORE PUSH2 0x9B9 JUMP JUMPDEST DUP3 DUP1 ADD PUSH1 0x1 ADD DUP6 SSTORE DUP3 ISZERO PUSH2 0x9B9 JUMPI SWAP2 DUP3 ADD JUMPDEST DUP3 DUP2 GT ISZERO PUSH2 0x9B8 JUMPI DUP3 MLOAD DUP3 SSTORE SWAP2 PUSH1 0x20 ADD SWAP2 SWAP1 PUSH1 0x1 ADD SWAP1 PUSH2 0x99D JUMP JUMPDEST JUMPDEST POP SWAP1 POP PUSH2 0x9C6 SWAP2 SWAP1 PUSH2 0x9CA JUMP JUMPDEST POP SWAP1 JUMP JUMPDEST JUMPDEST DUP1 DUP3 GT ISZERO PUSH2 0x9E3 JUMPI PUSH1 0x0 DUP2 PUSH1 0x0 SWAP1 SSTORE POP PUSH1 0x1 ADD PUSH2 0x9CB JUMP JUMPDEST POP SWAP1 JUMP JUMPDEST PUSH1 0x0 PUSH1 0x40 MLOAD SWAP1 POP SWAP1 JUMP JUMPDEST PUSH1 0x0 DUP1 REVERT JUMPDEST PUSH1 0x0 DUP1 REVERT JUMPDEST PUSH1 0x0 PUSH20 0xFFFFFFFFFFFFFFFFFFFFFFFFFFFFFFFFFFFFFFFF DUP3 AND SWAP1 POP SWAP2 SWAP1 POP JUMP JUMPDEST PUSH1 0x0 PUSH2 0xA26 DUP3 PUSH2 0x9FB JUMP JUMPDEST SWAP1 POP SWAP2 SWAP1 POP JUMP JUMPDEST PUSH2 0xA36 DUP2 PUSH2 0xA1B JUMP JUMPDEST DUP2 EQ PUSH2 0xA41 JUMPI PUSH1 0x0 DUP1 REVERT JUMPDEST POP JUMP JUMPDEST PUSH1 0x0 DUP2 CALLDATALOAD SWAP1 POP PUSH2 0xA53 DUP2 PUSH2 0xA2D JUMP JUMPDEST SWAP3 SWAP2 POP POP JUMP JUMPDEST PUSH1 0x0 PUSH1 0x20 DUP3 DUP5 SUB SLT ISZERO PUSH2 0xA6F JUMPI PUSH2 0xA6E PUSH2 0x9F1 JUMP JUMPDEST JUMPDEST PUSH1 0x0 PUSH2 0xA7D DUP5 DUP3 DUP6 ADD PUSH2 0xA44 JUMP JUMPDEST SWAP2 POP POP SWAP3 SWAP2 POP POP JUMP JUMPDEST PUSH1 0x0 DUP2 ISZERO ISZERO SWAP1 POP SWAP2 SWAP1 POP JUMP JUMPDEST PUSH2 0xA9B DUP2 PUSH2 0xA86 JUMP JUMPDEST DUP3 MSTORE POP POP JUMP JUMPDEST PUSH1 0x0 PUSH1 0x20 DUP3 ADD SWAP1 POP PUSH2 0xAB6 PUSH1 0x0 DUP4 ADD DUP5 PUSH2 0xA92 JUMP JUMPDEST SWAP3 SWAP2 POP POP JUMP JUMPDEST PUSH1 0x0 DUP2 SWAP1 POP SWAP2 SWAP1 POP JUMP JUMPDEST PUSH2 0xACF DUP2 PUSH2 0xABC JUMP JUMPDEST DUP3 MSTORE POP POP JUMP JUMPDEST PUSH1 0x0 PUSH1 0x20 DUP3 ADD SWAP1 POP PUSH2 0xAEA PUSH1 0x0 DUP4 ADD DUP5 PUSH2 0xAC6 JUMP JUMPDEST SWAP3 SWAP2 POP POP JUMP JUMPDEST PUSH2 0xAF9 DUP2 PUSH2 0xABC JUMP JUMPDEST DUP2 EQ PUSH2 0xB04 JUMPI PUSH1 0x0 DUP1 REVERT JUMPDEST POP JUMP JUMPDEST PUSH1 0x0 DUP2 CALLDATALOAD SWAP1 POP PUSH2 0xB16 DUP2 PUSH2 0xAF0 JUMP JUMPDEST SWAP3 SWAP2 POP POP JUMP JUMPDEST PUSH1 0x0 PUSH1 0x20 DUP3 DUP5 SUB SLT ISZERO PUSH2 0xB32 JUMPI PUSH2 0xB31 PUSH2 0x9F1 JUMP JUMPDEST JUMPDEST PUSH1 0x0 PUSH2 0xB40 DUP5 DUP3 DUP6 ADD PUSH2 0xB07 JUMP JUMPDEST SWAP2 POP POP SWAP3 SWAP2 POP POP JUMP JUMPDEST PUSH1 0x0 DUP2 MLOAD SWAP1 POP SWAP2 SWAP1 POP JUMP JUMPDEST PUSH1 0x0 DUP3 DUP3 MSTORE PUSH1 0x20 DUP3 ADD SWAP1 POP SWAP3 SWAP2 POP POP JUMP JUMPDEST PUSH1 0x0 JUMPDEST DUP4 DUP2 LT ISZERO PUSH2 0xB83 JUMPI DUP1 DUP3 ADD MLOAD DUP2 DUP5 ADD MSTORE PUSH1 0x20 DUP2 ADD SWAP1 POP PUSH2 0xB68 JUMP JUMPDEST DUP4 DUP2 GT ISZERO PUSH2 0xB92 JUMPI PUSH1 0x0 DUP5 DUP5 ADD MSTORE JUMPDEST POP POP POP POP JUMP JUMPDEST PUSH1 0x0 PUSH1 0x1F NOT PUSH1 0x1F DUP4 ADD AND SWAP1 POP SWAP2 SWAP1 POP JUMP JUMPDEST PUSH1 0x0 PUSH2 0xBB4 DUP3 PUSH2 0xB49 JUMP JUMPDEST PUSH2 0xBBE DUP2 DUP6 PUSH2 0xB54 JUMP JUMPDEST SWAP4 POP PUSH2 0xBCE DUP2 DUP6 PUSH1 0x20 DUP7 ADD PUSH2 0xB65 JUMP JUMPDEST PUSH2 0xBD7 DUP2 PUSH2 0xB98 JUMP JUMPDEST DUP5 ADD SWAP2 POP POP SWAP3 SWAP2 POP POP JUMP JUMPDEST PUSH1 0x0 PUSH1 0x20 DUP3 ADD SWAP1 POP DUP2 DUP2 SUB PUSH1 0x0 DUP4 ADD MSTORE PUSH2 0xBFC DUP2 DUP5 PUSH2 0xBA9 JUMP JUMPDEST SWAP1 POP SWAP3 SWAP2 POP POP JUMP JUMPDEST PUSH1 0x0 DUP1 REVERT JUMPDEST PUSH1 0x0 DUP1 REVERT JUMPDEST PUSH32 0x4E487B7100000000000000000000000000000000000000000000000000000000 PUSH1 0x0 MSTORE PUSH1 0x41 PUSH1 0x4 MSTORE PUSH1 0x24 PUSH1 0x0 REVERT JUMPDEST PUSH2 0xC46 DUP3 PUSH2 0xB98 JUMP JUMPDEST DUP2 ADD DUP2 DUP2 LT PUSH8 0xFFFFFFFFFFFFFFFF DUP3 GT OR ISZERO PUSH2 0xC65 JUMPI PUSH2 0xC64 PUSH2 0xC0E JUMP JUMPDEST JUMPDEST DUP1 PUSH1 0x40 MSTORE POP POP POP JUMP JUMPDEST PUSH1 0x0 PUSH2 0xC78 PUSH2 0x9E7 JUMP JUMPDEST SWAP1 POP PUSH2 0xC84 DUP3 DUP3 PUSH2 0xC3D JUMP JUMPDEST SWAP2 SWAP1 POP JUMP JUMPDEST PUSH1 0x0 PUSH8 0xFFFFFFFFFFFFFFFF DUP3 GT ISZERO PUSH2 0xCA4 JUMPI PUSH2 0xCA3 PUSH2 0xC0E JUMP JUMPDEST JUMPDEST PUSH2 0xCAD DUP3 PUSH2 0xB98 JUMP JUMPDEST SWAP1 POP PUSH1 0x20 DUP2 ADD SWAP1 POP SWAP2 SWAP1 POP JUMP JUMPDEST DUP3 DUP2 DUP4 CALLDATACOPY PUSH1 0x0 DUP4 DUP4 ADD MSTORE POP POP POP JUMP JUMPDEST PUSH1 0x0 PUSH2 0xCDC PUSH2 0xCD7 DUP5 PUSH2 0xC89 JUMP JUMPDEST PUSH2 0xC6E JUMP JUMPDEST SWAP1 POP DUP3 DUP2 MSTORE PUSH1 0x20 DUP2 ADD DUP5 DUP5 DUP5 ADD GT ISZERO PUSH2 0xCF8 JUMPI PUSH2 0xCF7 PUSH2 0xC09 JUMP JUMPDEST JUMPDEST PUSH2 0xD03 DUP5 DUP3 DUP6 PUSH2 0xCBA JUMP JUMPDEST POP SWAP4 SWAP3 POP POP POP JUMP JUMPDEST PUSH1 0x0 DUP3 PUSH1 0x1F DUP4 ADD SLT PUSH2 0xD20 JUMPI PUSH2 0xD1F PUSH2 0xC04 JUMP JUMPDEST JUMPDEST DUP2 CALLDATALOAD PUSH2 0xD30 DUP5 DUP3 PUSH1 0x20 DUP7 ADD PUSH2 0xCC9 JUMP JUMPDEST SWAP2 POP POP SWAP3 SWAP2 POP POP JUMP JUMPDEST PUSH1 0x0 PUSH1 0x20 DUP3 DUP5 SUB SLT ISZERO PUSH2 0xD4F JUMPI PUSH2 0xD4E PUSH2 0x9F1 JUMP JUMPDEST JUMPDEST PUSH1 0x0 DUP3 ADD CALLDATALOAD PUSH8 0xFFFFFFFFFFFFFFFF DUP2 GT ISZERO PUSH2 0xD6D JUMPI PUSH2 0xD6C PUSH2 0x9F6 JUMP JUMPDEST JUMPDEST PUSH2 0xD79 DUP5 DUP3 DUP6 ADD PUSH2 0xD0B JUMP JUMPDEST SWAP2 POP POP SWAP3 SWAP2 POP POP JUMP JUMPDEST PUSH2 0xD8B DUP2 PUSH2 0xA1B JUMP JUMPDEST DUP3 MSTORE POP POP JUMP JUMPDEST PUSH1 0x0 PUSH1 0x20 DUP3 ADD SWAP1 POP PUSH2 0xDA6 PUSH1 0x0 DUP4 ADD DUP5 PUSH2 0xD82 JUMP JUMPDEST SWAP3 SWAP2 POP POP JUMP JUMPDEST PUSH1 0x0 PUSH2 0xDB7 DUP3 PUSH2 0x9FB JUMP JUMPDEST SWAP1 POP SWAP2 SWAP1 POP JUMP JUMPDEST PUSH2 0xDC7 DUP2 PUSH2 0xDAC JUMP JUMPDEST DUP3 MSTORE POP POP JUMP JUMPDEST PUSH1 0x0 PUSH1 0xA0 DUP3 ADD SWAP1 POP DUP2 DUP2 SUB PUSH1 0x0 DUP4 ADD MSTORE PUSH2 0xDE7 DUP2 DUP9 PUSH2 0xBA9 JUMP JUMPDEST SWAP1 POP PUSH2 0xDF6 PUSH1 0x20 DUP4 ADD DUP8 PUSH2 0xAC6 JUMP JUMPDEST PUSH2 0xE03 PUSH1 0x40 DUP4 ADD DUP7 PUSH2 0xDBE JUMP JUMPDEST PUSH2 0xE10 PUSH1 0x60 DUP4 ADD DUP6 PUSH2 0xA92 JUMP JUMPDEST PUSH2 0xE1D PUSH1 0x80 DUP4 ADD DUP5 PUSH2 0xAC6 JUMP JUMPDEST SWAP7 SWAP6 POP POP POP POP POP POP JUMP JUMPDEST PUSH2 0xE30 DUP2 PUSH2 0xDAC JUMP JUMPDEST DUP2 EQ PUSH2 0xE3B JUMPI PUSH1 0x0 DUP1 REVERT JUMPDEST POP JUMP JUMPDEST PUSH1 0x0 DUP2 CALLDATALOAD SWAP1 POP PUSH2 0xE4D DUP2 PUSH2 0xE27 JUMP JUMPDEST SWAP3 SWAP2 POP POP JUMP JUMPDEST PUSH1 0x0 DUP1 PUSH1 0x0 DUP1 PUSH1 0x80 DUP6 DUP8 SUB SLT ISZERO PUSH2 0xE6D JUMPI PUSH2 0xE6C PUSH2 0x9F1 JUMP JUMPDEST JUMPDEST PUSH1 0x0 DUP6 ADD CALLDATALOAD PUSH8 0xFFFFFFFFFFFFFFFF DUP2 GT ISZERO PUSH2 0xE8B JUMPI PUSH2 0xE8A PUSH2 0x9F6 JUMP JUMPDEST JUMPDEST PUSH2 0xE97 DUP8 DUP3 DUP9 ADD PUSH2 0xD0B JUMP JUMPDEST SWAP5 POP POP PUSH1 0x20 DUP6 ADD CALLDATALOAD PUSH8 0xFFFFFFFFFFFFFFFF DUP2 GT ISZERO PUSH2 0xEB8 JUMPI PUSH2 0xEB7 PUSH2 0x9F6 JUMP JUMPDEST JUMPDEST PUSH2 0xEC4 DUP8 DUP3 DUP9 ADD PUSH2 0xD0B JUMP JUMPDEST SWAP4 POP POP PUSH1 0x40 PUSH2 0xED5 DUP8 DUP3 DUP9 ADD PUSH2 0xB07 JUMP JUMPDEST SWAP3 POP POP PUSH1 0x60 PUSH2 0xEE6 DUP8 DUP3 DUP9 ADD PUSH2 0xE3E JUMP JUMPDEST SWAP2 POP POP SWAP3 SWAP6 SWAP2 SWAP5 POP SWAP3 POP JUMP JUMPDEST PUSH32 0x4E487B7100000000000000000000000000000000000000000000000000000000 PUSH1 0x0 MSTORE PUSH1 0x22 PUSH1 0x4 MSTORE PUSH1 0x24 PUSH1 0x0 REVERT JUMPDEST PUSH1 0x0 PUSH1 0x2 DUP3 DIV SWAP1 POP PUSH1 0x1 DUP3 AND DUP1 PUSH2 0xF39 JUMPI PUSH1 0x7F DUP3 AND SWAP2 POP JUMPDEST PUSH1 0x20 DUP3 LT DUP2 SUB PUSH2 0xF4C JUMPI PUSH2 0xF4B PUSH2 0xEF2 JUMP JUMPDEST JUMPDEST POP SWAP2 SWAP1 POP JUMP JUMPDEST PUSH1 0x0 DUP2 SWAP1 POP SWAP3 SWAP2 POP POP JUMP JUMPDEST PUSH1 0x0 PUSH2 0xF68 DUP3 PUSH2 0xB49 JUMP JUMPDEST PUSH2 0xF72 DUP2 DUP6 PUSH2 0xF52 JUMP JUMPDEST SWAP4 POP PUSH2 0xF82 DUP2 DUP6 PUSH1 0x20 DUP7 ADD PUSH2 0xB65 JUMP JUMPDEST DUP1 DUP5 ADD SWAP2 POP POP SWAP3 SWAP2 POP POP JUMP JUMPDEST PUSH1 0x0 PUSH2 0xF9A DUP3 DUP5 PUSH2 0xF5D JUMP JUMPDEST SWAP2 POP DUP2 SWAP1 POP SWAP3 SWAP2 POP POP JUMP JUMPDEST PUSH32 0x4E487B7100000000000000000000000000000000000000000000000000000000 PUSH1 0x0 MSTORE PUSH1 0x11 PUSH1 0x4 MSTORE PUSH1 0x24 PUSH1 0x0 REVERT JUMPDEST PUSH1 0x0 PUSH2 0xFDF DUP3 PUSH2 0xABC JUMP JUMPDEST SWAP2 POP PUSH32 0xFFFFFFFFFFFFFFFFFFFFFFFFFFFFFFFFFFFFFFFFFFFFFFFFFFFFFFFFFFFFFFFF DUP3 SUB PUSH2 0x1011 JUMPI PUSH2 0x1010 PUSH2 0xFA5 JUMP JUMPDEST JUMPDEST PUSH1 0x1 DUP3 ADD SWAP1 POP SWAP2 SWAP1 POP JUMP JUMPDEST PUSH32 0x4E487B7100000000000000000000000000000000000000000000000000000000 PUSH1 0x0 MSTORE PUSH1 0x12 PUSH1 0x4 MSTORE PUSH1 0x24 PUSH1 0x0 REVERT JUMPDEST PUSH1 0x0 PUSH2 0x1056 DUP3 PUSH2 0xABC JUMP JUMPDEST SWAP2 POP PUSH2 0x1061 DUP4 PUSH2 0xABC JUMP JUMPDEST SWAP3 POP DUP3 PUSH2 0x1071 JUMPI PUSH2 0x1070 PUSH2 0x101C JUMP JUMPDEST JUMPDEST DUP3 DUP3 DIV SWAP1 POP SWAP3 SWAP2 POP POP JUMP JUMPDEST PUSH32 0x4E6F20656E6F75676820617070726F76616C7300000000000000000000000000 PUSH1 0x0 DUP3 ADD MSTORE POP JUMP JUMPDEST PUSH1 0x0 PUSH2 0x10B2 PUSH1 0x13 DUP4 PUSH2 0xB54 JUMP JUMPDEST SWAP2 POP PUSH2 0x10BD DUP3 PUSH2 0x107C JUMP JUMPDEST PUSH1 0x20 DUP3 ADD SWAP1 POP SWAP2 SWAP1 POP JUMP JUMPDEST PUSH1 0x0 PUSH1 0x20 DUP3 ADD SWAP1 POP DUP2 DUP2 SUB PUSH1 0x0 DUP4 ADD MSTORE PUSH2 0x10E1 DUP2 PUSH2 0x10A5 JUMP JUMPDEST SWAP1 POP SWAP2 SWAP1 POP JUMP JUMPDEST PUSH32 0x636F6D706C657465642079657400000000000000000000000000000000000000 PUSH1 0x0 DUP3 ADD MSTORE POP JUMP JUMPDEST PUSH1 0x0 PUSH2 0x111E PUSH1 0xD DUP4 PUSH2 0xB54 JUMP JUMPDEST SWAP2 POP PUSH2 0x1129 DUP3 PUSH2 0x10E8 JUMP JUMPDEST PUSH1 0x20 DUP3 ADD SWAP1 POP SWAP2 SWAP1 POP JUMP JUMPDEST PUSH1 0x0 PUSH1 0x20 DUP3 ADD SWAP1 POP DUP2 DUP2 SUB PUSH1 0x0 DUP4 ADD MSTORE PUSH2 0x114D DUP2 PUSH2 0x1111 JUMP JUMPDEST SWAP1 POP SWAP2 SWAP1 POP JUMP JUMPDEST PUSH32 0x6E6F7420656E6F756768206D6F6E657900000000000000000000000000000000 PUSH1 0x0 DUP3 ADD MSTORE POP JUMP JUMPDEST PUSH1 0x0 PUSH2 0x118A PUSH1 0x10 DUP4 PUSH2 0xB54 JUMP JUMPDEST SWAP2 POP PUSH2 0x1195 DUP3 PUSH2 0x1154 JUMP JUMPDEST PUSH1 0x20 DUP3 ADD SWAP1 POP SWAP2 SWAP1 POP JUMP JUMPDEST PUSH1 0x0 PUSH1 0x20 DUP3 ADD SWAP1 POP DUP2 DUP2 SUB PUSH1 0x0 DUP4 ADD MSTORE PUSH2 0x11B9 DUP2 PUSH2 0x117D JUMP JUMPDEST SWAP1 POP SWAP2 SWAP1 POP JUMP INVALID LOG2 PUSH5 0x6970667358 0x22 SLT KECCAK256 0x2F SLOAD 0xC9 0xBB SHR 0xD4 EXTCODESIZE 0xC6 0xAF SMOD PUSH27 0x17898B3D6F6DFC17BE4D3FC55711DEB125FCCD128F64736F6C6343 STOP ADDMOD 0xD STOP CALLER "},"gasEstimates":{"creation":{"codeDepositCost":"919600","executionCost":"infinite","totalCost":"infinite"},"external":{"approveRequest(string)":"infinite","approverCount()":"2452","approvers(address)":"2846","contribute()":"51046","createRequest(string,string,uint256,address)":"infinite","finalizeRequest(string)":"infinite","manager()":"2603","minimumContribution()":"2451","requestNames(uint256)":"infinite","requests(string)":"infinite"}},"methodIdentifiers":{"approveRequest(string)":"1e0715df","approverCount()":"128e9be6","approvers(address)":"0a144391","contribute()":"d7bb99ba","createRequest(string,string,uint256,address)":"c7741265","finalizeRequest(string)":"c4d72051","manager()":"481c6a75","minimumContribution()":"937e09b1","requestNames(uint256)":"16f0e29e","requests(string)":"692d51d2"}},"storageLayout":{"storage":[{"astId":81,"contract":"Kickstarter.sol:Campaign","label":"requests","offset":0,"slot":"0","type":"t_mapping(t_string_memory_ptr,t_struct(Request)76_storage)"},{"astId":83,"contract":"Kickstarter.sol:Campaign","label":"manager","offset":0,"slot":"1","type":"t_address"},{"astId":85,"contract":"Kickstarter.sol:Campaign","label":"minimumContribution","offset":0,"slot":"2","type":"t_uint256"},{"astId":88,"contract":"Kickstarter.sol:Campaign","label":"requestNames","offset":0,"slot":"3","type":"t_array(t_string_storage)dyn_storage"},{"astId":92,"contract":"Kickstarter.sol:Campaign","label":"approvers","offset":0,"slot":"4","type":"t_mapping(t_address,t_bool)"},{"astId":94,"contract":"Kickstarter.sol:Campaign","label":"approverCount","offset":0,"slot":"5","type":"t_uint256"}],"types":{"t_address":{"encoding":"inplace","label":"address","numberOfBytes":"20"},"t_address_payable":{"encoding":"inplace","label":"address payable","numberOfBytes":"20"},"t_array(t_string_storage)dyn_storage":{"base":"t_string_storage","encoding":"dynamic_array","label":"string[]","numberOfBytes":"32"},"t_bool":{"encoding":"inplace","label":"bool","numberOfBytes":"1"},"t_mapping(t_address,t_bool)":{"encoding":"mapping","key":"t_address","label":"mapping(address => bool)","numberOfBytes":"32","value":"t_bool"},"t_mapping(t_string_memory_ptr,t_struct(Request)76_storage)":{"encoding":"mapping","key":"t_string_memory_ptr","label":"mapping(string => struct Campaign.Request)","numberOfBytes":"32","value":"t_struct(Request)76_storage"},"t_string_memory_ptr":{"encoding":"bytes","label":"string","numberOfBytes":"32"},"t_string_storage":{"encoding":"bytes","label":"string","numberOfBytes":"32"},"t_struct(Request)76_storage":{"encoding":"inplace","label":"struct Campaign.Request","members":[{"astId":63,"contract":"Kickstarter.sol:Campaign","label":"description","offset":0,"slot":"0","type":"t_string_storage"},{"astId":65,"contract":"Kickstarter.sol:Campaign","label":"value","offset":0,"slot":"1","type":"t_uint256"},{"astId":67,"contract":"Kickstarter.sol:Campaign","label":"recipient","offset":0,"slot":"2","type":"t_address_payable"},{"astId":69,"contract":"Kickstarter.sol:Campaign","label":"completed","offset":20,"slot":"2","type":"t_bool"},{"astId":71,"contract":"Kickstarter.sol:Campaign","label":"approvalCount","offset":0,"slot":"3","type":"t_uint256"},{"astId":75,"contract":"Kickstarter.sol:Campaign","label":"approvals","offset":0,"slot":"4","type":"t_mapping(t_address,t_bool)"}],"numberOfBytes":"160"},"t_uint256":{"encoding":"inplace","label":"uint256","numberOfBytes":"32"}}},"userdoc":{"kind":"user","methods":{},"version":1}}