{"abi":[{"inputs":[{"internalType":"address","name":"creator","type":"address"},{"internalType":"uint256","name":"minimum","type":"uint256"}],"stateMutability":"nonpayable","type":"constructor"},{"inputs":[{"internalType":"string","name":"requestName","type":"string"}],"name":"approveRequest","outputs":[],"stateMutability":"payable","type":"function"},{"inputs":[],"name":"approverCount","outputs":[{"internalType":"uint256","name":"","type":"uint256"}],"stateMutability":"view","type":"function"},{"inputs":[{"internalType":"address","name":"","type":"address"}],"name":"approvers","outputs":[{"internalType":"bool","name":"","type":"bool"}],"stateMutability":"view","type":"function"},{"inputs":[],"name":"contribute","outputs":[],"stateMutability":"payable","type":"function"},{"inputs":[{"internalType":"string","name":"name","type":"string"},{"internalType":"string","name":"description","type":"string"},{"internalType":"uint256","name":"value","type":"uint256"},{"internalType":"address","name":"recipient","type":"address"}],"name":"createRequest","outputs":[],"stateMutability":"nonpayable","type":"function"},{"inputs":[],"name":"manager","outputs":[{"internalType":"address","name":"","type":"address"}],"stateMutability":"view","type":"function"},{"inputs":[],"name":"minimumContribution","outputs":[{"internalType":"uint256","name":"","type":"uint256"}],"stateMutability":"view","type":"function"},{"inputs":[{"internalType":"string","name":"","type":"string"}],"name":"requests","outputs":[{"internalType":"string","name":"description","type":"string"},{"internalType":"uint256","name":"value","type":"uint256"},{"internalType":"address","name":"recipient","type":"address"},{"internalType":"bool","name":"completed","type":"bool"},{"internalType":"uint256","name":"approvalCount","type":"uint256"}],"stateMutability":"view","type":"function"}],"devdoc":{"kind":"dev","methods":{},"version":1},"evm":{"assembly":"    /* \"Kickstarter.sol\":428:1956  contract Campaign {... */\n  mstore(0x40, 0x80)\n    /* \"Kickstarter.sol\":942:1088  constructor(address creator, uint256 minimum) {... */\n  callvalue\n  dup1\n  iszero\n  tag_1\n  jumpi\n  0x00\n  dup1\n  revert\ntag_1:\n  pop\n  mload(0x40)\n  sub(codesize, bytecodeSize)\n  dup1\n  bytecodeSize\n  dup4\n  codecopy\n  dup2\n  dup2\n  add\n  0x40\n  mstore\n  dup2\n  add\n  swap1\n  tag_2\n  swap2\n  swap1\n  tag_3\n  jump\t// in\ntag_2:\n    /* \"Kickstarter.sol\":1008:1015  creator */\n  dup2\n    /* \"Kickstarter.sol\":998:1005  manager */\n  0x01\n  0x00\n    /* \"Kickstarter.sol\":998:1015  manager = creator */\n  0x0100\n  exp\n  dup2\n  sload\n  dup2\n  0xffffffffffffffffffffffffffffffffffffffff\n  mul\n  not\n  and\n  swap1\n  dup4\n  0xffffffffffffffffffffffffffffffffffffffff\n  and\n  mul\n  or\n  swap1\n  sstore\n  pop\n    /* \"Kickstarter.sol\":1047:1054  minimum */\n  dup1\n    /* \"Kickstarter.sol\":1025:1044  minimumContribution */\n  0x02\n    /* \"Kickstarter.sol\":1025:1054  minimumContribution = minimum */\n  dup2\n  swap1\n  sstore\n  pop\n    /* \"Kickstarter.sol\":1080:1081  0 */\n  0x00\n    /* \"Kickstarter.sol\":1064:1077  approverCount */\n  0x04\n    /* \"Kickstarter.sol\":1064:1081  approverCount = 0 */\n  dup2\n  swap1\n  sstore\n  pop\n    /* \"Kickstarter.sol\":942:1088  constructor(address creator, uint256 minimum) {... */\n  pop\n  pop\n    /* \"Kickstarter.sol\":428:1956  contract Campaign {... */\n  jump(tag_6)\n    /* \"#utility.yul\":88:205   */\ntag_8:\n    /* \"#utility.yul\":197:198   */\n  0x00\n    /* \"#utility.yul\":194:195   */\n  dup1\n    /* \"#utility.yul\":187:199   */\n  revert\n    /* \"#utility.yul\":334:460   */\ntag_10:\n    /* \"#utility.yul\":371:378   */\n  0x00\n    /* \"#utility.yul\":411:453   */\n  0xffffffffffffffffffffffffffffffffffffffff\n    /* \"#utility.yul\":404:409   */\n  dup3\n    /* \"#utility.yul\":400:454   */\n  and\n    /* \"#utility.yul\":389:454   */\n  swap1\n  pop\n    /* \"#utility.yul\":334:460   */\n  swap2\n  swap1\n  pop\n  jump\t// out\n    /* \"#utility.yul\":466:562   */\ntag_11:\n    /* \"#utility.yul\":503:510   */\n  0x00\n    /* \"#utility.yul\":532:556   */\n  tag_23\n    /* \"#utility.yul\":550:555   */\n  dup3\n    /* \"#utility.yul\":532:556   */\n  tag_10\n  jump\t// in\ntag_23:\n    /* \"#utility.yul\":521:556   */\n  swap1\n  pop\n    /* \"#utility.yul\":466:562   */\n  swap2\n  swap1\n  pop\n  jump\t// out\n    /* \"#utility.yul\":568:690   */\ntag_12:\n    /* \"#utility.yul\":641:665   */\n  tag_25\n    /* \"#utility.yul\":659:664   */\n  dup2\n    /* \"#utility.yul\":641:665   */\n  tag_11\n  jump\t// in\ntag_25:\n    /* \"#utility.yul\":634:639   */\n  dup2\n    /* \"#utility.yul\":631:666   */\n  eq\n    /* \"#utility.yul\":621:684   */\n  tag_26\n  jumpi\n    /* \"#utility.yul\":680:681   */\n  0x00\n    /* \"#utility.yul\":677:678   */\n  dup1\n    /* \"#utility.yul\":670:682   */\n  revert\n    /* \"#utility.yul\":621:684   */\ntag_26:\n    /* \"#utility.yul\":568:690   */\n  pop\n  jump\t// out\n    /* \"#utility.yul\":696:839   */\ntag_13:\n    /* \"#utility.yul\":753:758   */\n  0x00\n    /* \"#utility.yul\":784:790   */\n  dup2\n    /* \"#utility.yul\":778:791   */\n  mload\n    /* \"#utility.yul\":769:791   */\n  swap1\n  pop\n    /* \"#utility.yul\":800:833   */\n  tag_28\n    /* \"#utility.yul\":827:832   */\n  dup2\n    /* \"#utility.yul\":800:833   */\n  tag_12\n  jump\t// in\ntag_28:\n    /* \"#utility.yul\":696:839   */\n  swap3\n  swap2\n  pop\n  pop\n  jump\t// out\n    /* \"#utility.yul\":845:922   */\ntag_14:\n    /* \"#utility.yul\":882:889   */\n  0x00\n    /* \"#utility.yul\":911:916   */\n  dup2\n    /* \"#utility.yul\":900:916   */\n  swap1\n  pop\n    /* \"#utility.yul\":845:922   */\n  swap2\n  swap1\n  pop\n  jump\t// out\n    /* \"#utility.yul\":928:1050   */\ntag_15:\n    /* \"#utility.yul\":1001:1025   */\n  tag_31\n    /* \"#utility.yul\":1019:1024   */\n  dup2\n    /* \"#utility.yul\":1001:1025   */\n  tag_14\n  jump\t// in\ntag_31:\n    /* \"#utility.yul\":994:999   */\n  dup2\n    /* \"#utility.yul\":991:1026   */\n  eq\n    /* \"#utility.yul\":981:1044   */\n  tag_32\n  jumpi\n    /* \"#utility.yul\":1040:1041   */\n  0x00\n    /* \"#utility.yul\":1037:1038   */\n  dup1\n    /* \"#utility.yul\":1030:1042   */\n  revert\n    /* \"#utility.yul\":981:1044   */\ntag_32:\n    /* \"#utility.yul\":928:1050   */\n  pop\n  jump\t// out\n    /* \"#utility.yul\":1056:1199   */\ntag_16:\n    /* \"#utility.yul\":1113:1118   */\n  0x00\n    /* \"#utility.yul\":1144:1150   */\n  dup2\n    /* \"#utility.yul\":1138:1151   */\n  mload\n    /* \"#utility.yul\":1129:1151   */\n  swap1\n  pop\n    /* \"#utility.yul\":1160:1193   */\n  tag_34\n    /* \"#utility.yul\":1187:1192   */\n  dup2\n    /* \"#utility.yul\":1160:1193   */\n  tag_15\n  jump\t// in\ntag_34:\n    /* \"#utility.yul\":1056:1199   */\n  swap3\n  swap2\n  pop\n  pop\n  jump\t// out\n    /* \"#utility.yul\":1205:1712   */\ntag_3:\n    /* \"#utility.yul\":1284:1290   */\n  0x00\n    /* \"#utility.yul\":1292:1298   */\n  dup1\n    /* \"#utility.yul\":1341:1343   */\n  0x40\n    /* \"#utility.yul\":1329:1338   */\n  dup4\n    /* \"#utility.yul\":1320:1327   */\n  dup6\n    /* \"#utility.yul\":1316:1339   */\n  sub\n    /* \"#utility.yul\":1312:1344   */\n  slt\n    /* \"#utility.yul\":1309:1428   */\n  iszero\n  tag_36\n  jumpi\n    /* \"#utility.yul\":1347:1426   */\n  tag_37\n  tag_8\n  jump\t// in\ntag_37:\n    /* \"#utility.yul\":1309:1428   */\ntag_36:\n    /* \"#utility.yul\":1467:1468   */\n  0x00\n    /* \"#utility.yul\":1492:1556   */\n  tag_38\n    /* \"#utility.yul\":1548:1555   */\n  dup6\n    /* \"#utility.yul\":1539:1545   */\n  dup3\n    /* \"#utility.yul\":1528:1537   */\n  dup7\n    /* \"#utility.yul\":1524:1546   */\n  add\n    /* \"#utility.yul\":1492:1556   */\n  tag_13\n  jump\t// in\ntag_38:\n    /* \"#utility.yul\":1482:1556   */\n  swap3\n  pop\n    /* \"#utility.yul\":1438:1566   */\n  pop\n    /* \"#utility.yul\":1605:1607   */\n  0x20\n    /* \"#utility.yul\":1631:1695   */\n  tag_39\n    /* \"#utility.yul\":1687:1694   */\n  dup6\n    /* \"#utility.yul\":1678:1684   */\n  dup3\n    /* \"#utility.yul\":1667:1676   */\n  dup7\n    /* \"#utility.yul\":1663:1685   */\n  add\n    /* \"#utility.yul\":1631:1695   */\n  tag_16\n  jump\t// in\ntag_39:\n    /* \"#utility.yul\":1621:1695   */\n  swap2\n  pop\n    /* \"#utility.yul\":1576:1705   */\n  pop\n    /* \"#utility.yul\":1205:1712   */\n  swap3\n  pop\n  swap3\n  swap1\n  pop\n  jump\t// out\n    /* \"Kickstarter.sol\":428:1956  contract Campaign {... */\ntag_6:\n  dataSize(sub_0)\n  dup1\n  dataOffset(sub_0)\n  0x00\n  codecopy\n  0x00\n  return\nstop\n\nsub_0: assembly {\n        /* \"Kickstarter.sol\":428:1956  contract Campaign {... */\n      mstore(0x40, 0x80)\n      jumpi(tag_1, lt(calldatasize, 0x04))\n      shr(0xe0, calldataload(0x00))\n      dup1\n      0x692d51d2\n      gt\n      tag_10\n      jumpi\n      dup1\n      0x692d51d2\n      eq\n      tag_6\n      jumpi\n      dup1\n      0x937e09b1\n      eq\n      tag_7\n      jumpi\n      dup1\n      0xc7741265\n      eq\n      tag_8\n      jumpi\n      dup1\n      0xd7bb99ba\n      eq\n      tag_9\n      jumpi\n      jump(tag_1)\n    tag_10:\n      dup1\n      0x0a144391\n      eq\n      tag_2\n      jumpi\n      dup1\n      0x128e9be6\n      eq\n      tag_3\n      jumpi\n      dup1\n      0x1e0715df\n      eq\n      tag_4\n      jumpi\n      dup1\n      0x481c6a75\n      eq\n      tag_5\n      jumpi\n    tag_1:\n      0x00\n      dup1\n      revert\n        /* \"Kickstarter.sol\":774:815  mapping(address => bool) public approvers */\n    tag_2:\n      callvalue\n      dup1\n      iszero\n      tag_11\n      jumpi\n      0x00\n      dup1\n      revert\n    tag_11:\n      pop\n      tag_12\n      0x04\n      dup1\n      calldatasize\n      sub\n      dup2\n      add\n      swap1\n      tag_13\n      swap2\n      swap1\n      tag_14\n      jump\t// in\n    tag_13:\n      tag_15\n      jump\t// in\n    tag_12:\n      mload(0x40)\n      tag_16\n      swap2\n      swap1\n      tag_17\n      jump\t// in\n    tag_16:\n      mload(0x40)\n      dup1\n      swap2\n      sub\n      swap1\n      return\n        /* \"Kickstarter.sol\":821:849  uint256 public approverCount */\n    tag_3:\n      callvalue\n      dup1\n      iszero\n      tag_18\n      jumpi\n      0x00\n      dup1\n      revert\n    tag_18:\n      pop\n      tag_19\n      tag_20\n      jump\t// in\n    tag_19:\n      mload(0x40)\n      tag_21\n      swap2\n      swap1\n      tag_22\n      jump\t// in\n    tag_21:\n      mload(0x40)\n      dup1\n      swap2\n      sub\n      swap1\n      return\n        /* \"Kickstarter.sol\":1629:1954  function approveRequest(string memory requestName) public payable{... */\n    tag_4:\n      tag_23\n      0x04\n      dup1\n      calldatasize\n      sub\n      dup2\n      add\n      swap1\n      tag_24\n      swap2\n      swap1\n      tag_25\n      jump\t// in\n    tag_24:\n      tag_26\n      jump\t// in\n    tag_23:\n      stop\n        /* \"Kickstarter.sol\":706:728  address public manager */\n    tag_5:\n      callvalue\n      dup1\n      iszero\n      tag_27\n      jumpi\n      0x00\n      dup1\n      revert\n    tag_27:\n      pop\n      tag_28\n      tag_29\n      jump\t// in\n    tag_28:\n      mload(0x40)\n      tag_30\n      swap2\n      swap1\n      tag_31\n      jump\t// in\n    tag_30:\n      mload(0x40)\n      dup1\n      swap2\n      sub\n      swap1\n      return\n        /* \"Kickstarter.sol\":657:699  mapping(string => Request) public requests */\n    tag_6:\n      callvalue\n      dup1\n      iszero\n      tag_32\n      jumpi\n      0x00\n      dup1\n      revert\n    tag_32:\n      pop\n      tag_33\n      0x04\n      dup1\n      calldatasize\n      sub\n      dup2\n      add\n      swap1\n      tag_34\n      swap2\n      swap1\n      tag_25\n      jump\t// in\n    tag_34:\n      tag_35\n      jump\t// in\n    tag_33:\n      mload(0x40)\n      tag_36\n      swap6\n      swap5\n      swap4\n      swap3\n      swap2\n      swap1\n      tag_37\n      jump\t// in\n    tag_36:\n      mload(0x40)\n      dup1\n      swap2\n      sub\n      swap1\n      return\n        /* \"Kickstarter.sol\":734:768  uint256 public minimumContribution */\n    tag_7:\n      callvalue\n      dup1\n      iszero\n      tag_38\n      jumpi\n      0x00\n      dup1\n      revert\n    tag_38:\n      pop\n      tag_39\n      tag_40\n      jump\t// in\n    tag_39:\n      mload(0x40)\n      tag_41\n      swap2\n      swap1\n      tag_22\n      jump\t// in\n    tag_41:\n      mload(0x40)\n      dup1\n      swap2\n      sub\n      swap1\n      return\n        /* \"Kickstarter.sol\":1259:1623  function createRequest(... */\n    tag_8:\n      callvalue\n      dup1\n      iszero\n      tag_42\n      jumpi\n      0x00\n      dup1\n      revert\n    tag_42:\n      pop\n      tag_43\n      0x04\n      dup1\n      calldatasize\n      sub\n      dup2\n      add\n      swap1\n      tag_44\n      swap2\n      swap1\n      tag_45\n      jump\t// in\n    tag_44:\n      tag_46\n      jump\t// in\n    tag_43:\n      stop\n        /* \"Kickstarter.sol\":1094:1253  function contribute() public payable {... */\n    tag_9:\n      tag_47\n      tag_48\n      jump\t// in\n    tag_47:\n      stop\n        /* \"Kickstarter.sol\":774:815  mapping(address => bool) public approvers */\n    tag_15:\n      mstore(0x20, 0x03)\n      dup1\n      0x00\n      mstore\n      keccak256(0x00, 0x40)\n      0x00\n      swap2\n      pop\n      sload\n      swap1\n      0x0100\n      exp\n      swap1\n      div\n      0xff\n      and\n      dup2\n      jump\t// out\n        /* \"Kickstarter.sol\":821:849  uint256 public approverCount */\n    tag_20:\n      sload(0x04)\n      dup2\n      jump\t// out\n        /* \"Kickstarter.sol\":1629:1954  function approveRequest(string memory requestName) public payable{... */\n    tag_26:\n        /* \"Kickstarter.sol\":1704:1721  Request storage r */\n      0x00\n        /* \"Kickstarter.sol\":1724:1732  requests */\n      dup1\n        /* \"Kickstarter.sol\":1733:1744  requestName */\n      dup3\n        /* \"Kickstarter.sol\":1724:1745  requests[requestName] */\n      mload(0x40)\n      tag_50\n      swap2\n      swap1\n      tag_51\n      jump\t// in\n    tag_50:\n      swap1\n      dup2\n      mstore\n      0x20\n      add\n      mload(0x40)\n      dup1\n      swap2\n      sub\n      swap1\n      keccak256\n        /* \"Kickstarter.sol\":1704:1745  Request storage r = requests[requestName] */\n      swap1\n      pop\n        /* \"Kickstarter.sol\":1763:1772  approvers */\n      0x03\n        /* \"Kickstarter.sol\":1763:1784  approvers[msg.sender] */\n      0x00\n        /* \"Kickstarter.sol\":1773:1783  msg.sender */\n      caller\n        /* \"Kickstarter.sol\":1763:1784  approvers[msg.sender] */\n      0xffffffffffffffffffffffffffffffffffffffff\n      and\n      0xffffffffffffffffffffffffffffffffffffffff\n      and\n      dup2\n      mstore\n      0x20\n      add\n      swap1\n      dup2\n      mstore\n      0x20\n      add\n      0x00\n      keccak256\n      0x00\n      swap1\n      sload\n      swap1\n      0x0100\n      exp\n      swap1\n      div\n      0xff\n      and\n        /* \"Kickstarter.sol\":1755:1785  require(approvers[msg.sender]) */\n      tag_52\n      jumpi\n      0x00\n      dup1\n      revert\n    tag_52:\n        /* \"Kickstarter.sol\":1804:1805  r */\n      dup1\n        /* \"Kickstarter.sol\":1804:1815  r.approvals */\n      0x04\n      add\n        /* \"Kickstarter.sol\":1804:1827  r.approvals[msg.sender] */\n      0x00\n        /* \"Kickstarter.sol\":1816:1826  msg.sender */\n      caller\n        /* \"Kickstarter.sol\":1804:1827  r.approvals[msg.sender] */\n      0xffffffffffffffffffffffffffffffffffffffff\n      and\n      0xffffffffffffffffffffffffffffffffffffffff\n      and\n      dup2\n      mstore\n      0x20\n      add\n      swap1\n      dup2\n      mstore\n      0x20\n      add\n      0x00\n      keccak256\n      0x00\n      swap1\n      sload\n      swap1\n      0x0100\n      exp\n      swap1\n      div\n      0xff\n      and\n        /* \"Kickstarter.sol\":1803:1827  !r.approvals[msg.sender] */\n      iszero\n        /* \"Kickstarter.sol\":1795:1828  require(!r.approvals[msg.sender]) */\n      tag_53\n      jumpi\n      0x00\n      dup1\n      revert\n    tag_53:\n        /* \"Kickstarter.sol\":1861:1862  0 */\n      0x00\n        /* \"Kickstarter.sol\":1851:1852  r */\n      dup2\n        /* \"Kickstarter.sol\":1851:1858  r.value */\n      0x01\n      add\n      sload\n        /* \"Kickstarter.sol\":1851:1862  r.value > 0 */\n      gt\n        /* \"Kickstarter.sol\":1847:1948  if (r.value > 0){... */\n      iszero\n      tag_54\n      jumpi\n        /* \"Kickstarter.sol\":1902:1906  true */\n      0x01\n        /* \"Kickstarter.sol\":1877:1878  r */\n      dup2\n        /* \"Kickstarter.sol\":1877:1888  r.approvals */\n      0x04\n      add\n        /* \"Kickstarter.sol\":1877:1900  r.approvals[msg.sender] */\n      0x00\n        /* \"Kickstarter.sol\":1889:1899  msg.sender */\n      caller\n        /* \"Kickstarter.sol\":1877:1900  r.approvals[msg.sender] */\n      0xffffffffffffffffffffffffffffffffffffffff\n      and\n      0xffffffffffffffffffffffffffffffffffffffff\n      and\n      dup2\n      mstore\n      0x20\n      add\n      swap1\n      dup2\n      mstore\n      0x20\n      add\n      0x00\n      keccak256\n      0x00\n        /* \"Kickstarter.sol\":1877:1906  r.approvals[msg.sender]= true */\n      0x0100\n      exp\n      dup2\n      sload\n      dup2\n      0xff\n      mul\n      not\n      and\n      swap1\n      dup4\n      iszero\n      iszero\n      mul\n      or\n      swap1\n      sstore\n      pop\n        /* \"Kickstarter.sol\":1920:1921  r */\n      dup1\n        /* \"Kickstarter.sol\":1920:1935  r.approvalCount */\n      0x03\n      add\n      0x00\n        /* \"Kickstarter.sol\":1920:1937  r.approvalCount++ */\n      dup2\n      sload\n      dup1\n      swap3\n      swap2\n      swap1\n      tag_55\n      swap1\n      tag_56\n      jump\t// in\n    tag_55:\n      swap2\n      swap1\n      pop\n      sstore\n      pop\n        /* \"Kickstarter.sol\":1847:1948  if (r.value > 0){... */\n    tag_54:\n        /* \"Kickstarter.sol\":1694:1954  {... */\n      pop\n        /* \"Kickstarter.sol\":1629:1954  function approveRequest(string memory requestName) public payable{... */\n      pop\n      jump\t// out\n        /* \"Kickstarter.sol\":706:728  address public manager */\n    tag_29:\n      0x01\n      0x00\n      swap1\n      sload\n      swap1\n      0x0100\n      exp\n      swap1\n      div\n      0xffffffffffffffffffffffffffffffffffffffff\n      and\n      dup2\n      jump\t// out\n        /* \"Kickstarter.sol\":657:699  mapping(string => Request) public requests */\n    tag_35:\n      0x00\n      dup2\n      dup1\n      mload\n      0x20\n      dup2\n      add\n      dup3\n      add\n      dup1\n      mload\n      dup5\n      dup3\n      mstore\n      0x20\n      dup4\n      add\n      0x20\n      dup6\n      add\n      keccak256\n      dup2\n      dup4\n      mstore\n      dup1\n      swap6\n      pop\n      pop\n      pop\n      pop\n      pop\n      pop\n      0x00\n      swap2\n      pop\n      swap1\n      pop\n      dup1\n      0x00\n      add\n      dup1\n      sload\n      tag_57\n      swap1\n      tag_58\n      jump\t// in\n    tag_57:\n      dup1\n      0x1f\n      add\n      0x20\n      dup1\n      swap2\n      div\n      mul\n      0x20\n      add\n      mload(0x40)\n      swap1\n      dup2\n      add\n      0x40\n      mstore\n      dup1\n      swap3\n      swap2\n      swap1\n      dup2\n      dup2\n      mstore\n      0x20\n      add\n      dup3\n      dup1\n      sload\n      tag_59\n      swap1\n      tag_58\n      jump\t// in\n    tag_59:\n      dup1\n      iszero\n      tag_60\n      jumpi\n      dup1\n      0x1f\n      lt\n      tag_61\n      jumpi\n      0x0100\n      dup1\n      dup4\n      sload\n      div\n      mul\n      dup4\n      mstore\n      swap2\n      0x20\n      add\n      swap2\n      jump(tag_60)\n    tag_61:\n      dup3\n      add\n      swap2\n      swap1\n      0x00\n      mstore\n      keccak256(0x00, 0x20)\n      swap1\n    tag_62:\n      dup2\n      sload\n      dup2\n      mstore\n      swap1\n      0x01\n      add\n      swap1\n      0x20\n      add\n      dup1\n      dup4\n      gt\n      tag_62\n      jumpi\n      dup3\n      swap1\n      sub\n      0x1f\n      and\n      dup3\n      add\n      swap2\n    tag_60:\n      pop\n      pop\n      pop\n      pop\n      pop\n      swap1\n      dup1\n      0x01\n      add\n      sload\n      swap1\n      dup1\n      0x02\n      add\n      0x00\n      swap1\n      sload\n      swap1\n      0x0100\n      exp\n      swap1\n      div\n      0xffffffffffffffffffffffffffffffffffffffff\n      and\n      swap1\n      dup1\n      0x02\n      add\n      0x14\n      swap1\n      sload\n      swap1\n      0x0100\n      exp\n      swap1\n      div\n      0xff\n      and\n      swap1\n      dup1\n      0x03\n      add\n      sload\n      swap1\n      pop\n      dup6\n      jump\t// out\n        /* \"Kickstarter.sol\":734:768  uint256 public minimumContribution */\n    tag_40:\n      sload(0x02)\n      dup2\n      jump\t// out\n        /* \"Kickstarter.sol\":1259:1623  function createRequest(... */\n    tag_46:\n        /* \"Kickstarter.sol\":910:917  manager */\n      0x01\n      0x00\n      swap1\n      sload\n      swap1\n      0x0100\n      exp\n      swap1\n      div\n      0xffffffffffffffffffffffffffffffffffffffff\n      and\n        /* \"Kickstarter.sol\":896:917  msg.sender == manager */\n      0xffffffffffffffffffffffffffffffffffffffff\n      and\n        /* \"Kickstarter.sol\":896:906  msg.sender */\n      caller\n        /* \"Kickstarter.sol\":896:917  msg.sender == manager */\n      0xffffffffffffffffffffffffffffffffffffffff\n      and\n      eq\n        /* \"Kickstarter.sol\":888:918  require(msg.sender == manager) */\n      tag_64\n      jumpi\n      0x00\n      dup1\n      revert\n    tag_64:\n        /* \"Kickstarter.sol\":1429:1446  Request storage r */\n      0x00\n        /* \"Kickstarter.sol\":1449:1457  requests */\n      dup1\n        /* \"Kickstarter.sol\":1458:1462  name */\n      dup6\n        /* \"Kickstarter.sol\":1449:1463  requests[name] */\n      mload(0x40)\n      tag_66\n      swap2\n      swap1\n      tag_51\n      jump\t// in\n    tag_66:\n      swap1\n      dup2\n      mstore\n      0x20\n      add\n      mload(0x40)\n      dup1\n      swap2\n      sub\n      swap1\n      keccak256\n        /* \"Kickstarter.sol\":1429:1463  Request storage r = requests[name] */\n      swap1\n      pop\n        /* \"Kickstarter.sol\":1489:1500  description */\n      dup4\n        /* \"Kickstarter.sol\":1473:1474  r */\n      dup2\n        /* \"Kickstarter.sol\":1473:1486  r.description */\n      0x00\n      add\n        /* \"Kickstarter.sol\":1473:1500  r.description = description */\n      swap1\n      dup1\n      mload\n      swap1\n      0x20\n      add\n      swap1\n      tag_67\n      swap3\n      swap2\n      swap1\n      tag_68\n      jump\t// in\n    tag_67:\n      pop\n        /* \"Kickstarter.sol\":1520:1525  value */\n      dup3\n        /* \"Kickstarter.sol\":1510:1511  r */\n      dup2\n        /* \"Kickstarter.sol\":1510:1517  r.value */\n      0x01\n      add\n        /* \"Kickstarter.sol\":1510:1525  r.value = value */\n      dup2\n      swap1\n      sstore\n      pop\n        /* \"Kickstarter.sol\":1549:1558  recipient */\n      dup2\n        /* \"Kickstarter.sol\":1535:1536  r */\n      dup2\n        /* \"Kickstarter.sol\":1535:1546  r.recipient */\n      0x02\n      add\n      0x00\n        /* \"Kickstarter.sol\":1535:1558  r.recipient = recipient */\n      0x0100\n      exp\n      dup2\n      sload\n      dup2\n      0xffffffffffffffffffffffffffffffffffffffff\n      mul\n      not\n      and\n      swap1\n      dup4\n      0xffffffffffffffffffffffffffffffffffffffff\n      and\n      mul\n      or\n      swap1\n      sstore\n      pop\n        /* \"Kickstarter.sol\":1582:1587  false */\n      0x00\n        /* \"Kickstarter.sol\":1568:1569  r */\n      dup2\n        /* \"Kickstarter.sol\":1568:1579  r.completed */\n      0x02\n      add\n      0x14\n        /* \"Kickstarter.sol\":1568:1587  r.completed = false */\n      0x0100\n      exp\n      dup2\n      sload\n      dup2\n      0xff\n      mul\n      not\n      and\n      swap1\n      dup4\n      iszero\n      iszero\n      mul\n      or\n      swap1\n      sstore\n      pop\n        /* \"Kickstarter.sol\":1615:1616  0 */\n      0x00\n        /* \"Kickstarter.sol\":1597:1598  r */\n      dup2\n        /* \"Kickstarter.sol\":1597:1612  r.approvalCount */\n      0x03\n      add\n        /* \"Kickstarter.sol\":1597:1616  r.approvalCount = 0 */\n      dup2\n      swap1\n      sstore\n      pop\n        /* \"Kickstarter.sol\":1419:1623  {... */\n      pop\n        /* \"Kickstarter.sol\":1259:1623  function createRequest(... */\n      pop\n      pop\n      pop\n      pop\n      jump\t// out\n        /* \"Kickstarter.sol\":1094:1253  function contribute() public payable {... */\n    tag_48:\n        /* \"Kickstarter.sol\":1162:1181  minimumContribution */\n      sload(0x02)\n        /* \"Kickstarter.sol\":1149:1158  msg.value */\n      callvalue\n        /* \"Kickstarter.sol\":1149:1181  msg.value >= minimumContribution */\n      lt\n      iszero\n        /* \"Kickstarter.sol\":1141:1182  require(msg.value >= minimumContribution) */\n      tag_70\n      jumpi\n      0x00\n      dup1\n      revert\n    tag_70:\n        /* \"Kickstarter.sol\":1216:1220  true */\n      0x01\n        /* \"Kickstarter.sol\":1192:1201  approvers */\n      0x03\n        /* \"Kickstarter.sol\":1192:1213  approvers[msg.sender] */\n      0x00\n        /* \"Kickstarter.sol\":1202:1212  msg.sender */\n      caller\n        /* \"Kickstarter.sol\":1192:1213  approvers[msg.sender] */\n      0xffffffffffffffffffffffffffffffffffffffff\n      and\n      0xffffffffffffffffffffffffffffffffffffffff\n      and\n      dup2\n      mstore\n      0x20\n      add\n      swap1\n      dup2\n      mstore\n      0x20\n      add\n      0x00\n      keccak256\n      0x00\n        /* \"Kickstarter.sol\":1192:1220  approvers[msg.sender] = true */\n      0x0100\n      exp\n      dup2\n      sload\n      dup2\n      0xff\n      mul\n      not\n      and\n      swap1\n      dup4\n      iszero\n      iszero\n      mul\n      or\n      swap1\n      sstore\n      pop\n        /* \"Kickstarter.sol\":1230:1243  approverCount */\n      0x04\n      0x00\n        /* \"Kickstarter.sol\":1230:1246  approverCount ++ */\n      dup2\n      sload\n      dup1\n      swap3\n      swap2\n      swap1\n      tag_71\n      swap1\n      tag_56\n      jump\t// in\n    tag_71:\n      swap2\n      swap1\n      pop\n      sstore\n      pop\n        /* \"Kickstarter.sol\":1094:1253  function contribute() public payable {... */\n      jump\t// out\n    tag_68:\n      dup3\n      dup1\n      sload\n      tag_72\n      swap1\n      tag_58\n      jump\t// in\n    tag_72:\n      swap1\n      0x00\n      mstore\n      keccak256(0x00, 0x20)\n      swap1\n      0x1f\n      add\n      0x20\n      swap1\n      div\n      dup2\n      add\n      swap3\n      dup3\n      tag_74\n      jumpi\n      0x00\n      dup6\n      sstore\n      jump(tag_73)\n    tag_74:\n      dup3\n      0x1f\n      lt\n      tag_75\n      jumpi\n      dup1\n      mload\n      not(0xff)\n      and\n      dup4\n      dup1\n      add\n      or\n      dup6\n      sstore\n      jump(tag_73)\n    tag_75:\n      dup3\n      dup1\n      add\n      0x01\n      add\n      dup6\n      sstore\n      dup3\n      iszero\n      tag_73\n      jumpi\n      swap2\n      dup3\n      add\n    tag_76:\n      dup3\n      dup2\n      gt\n      iszero\n      tag_77\n      jumpi\n      dup3\n      mload\n      dup3\n      sstore\n      swap2\n      0x20\n      add\n      swap2\n      swap1\n      0x01\n      add\n      swap1\n      jump(tag_76)\n    tag_77:\n    tag_73:\n      pop\n      swap1\n      pop\n      tag_78\n      swap2\n      swap1\n      tag_79\n      jump\t// in\n    tag_78:\n      pop\n      swap1\n      jump\t// out\n    tag_79:\n    tag_80:\n      dup1\n      dup3\n      gt\n      iszero\n      tag_81\n      jumpi\n      0x00\n      dup2\n      0x00\n      swap1\n      sstore\n      pop\n      0x01\n      add\n      jump(tag_80)\n    tag_81:\n      pop\n      swap1\n      jump\t// out\n        /* \"#utility.yul\":7:82   */\n    tag_82:\n        /* \"#utility.yul\":40:46   */\n      0x00\n        /* \"#utility.yul\":73:75   */\n      0x40\n        /* \"#utility.yul\":67:76   */\n      mload\n        /* \"#utility.yul\":57:76   */\n      swap1\n      pop\n        /* \"#utility.yul\":7:82   */\n      swap1\n      jump\t// out\n        /* \"#utility.yul\":88:205   */\n    tag_83:\n        /* \"#utility.yul\":197:198   */\n      0x00\n        /* \"#utility.yul\":194:195   */\n      dup1\n        /* \"#utility.yul\":187:199   */\n      revert\n        /* \"#utility.yul\":211:328   */\n    tag_84:\n        /* \"#utility.yul\":320:321   */\n      0x00\n        /* \"#utility.yul\":317:318   */\n      dup1\n        /* \"#utility.yul\":310:322   */\n      revert\n        /* \"#utility.yul\":334:460   */\n    tag_85:\n        /* \"#utility.yul\":371:378   */\n      0x00\n        /* \"#utility.yul\":411:453   */\n      0xffffffffffffffffffffffffffffffffffffffff\n        /* \"#utility.yul\":404:409   */\n      dup3\n        /* \"#utility.yul\":400:454   */\n      and\n        /* \"#utility.yul\":389:454   */\n      swap1\n      pop\n        /* \"#utility.yul\":334:460   */\n      swap2\n      swap1\n      pop\n      jump\t// out\n        /* \"#utility.yul\":466:562   */\n    tag_86:\n        /* \"#utility.yul\":503:510   */\n      0x00\n        /* \"#utility.yul\":532:556   */\n      tag_120\n        /* \"#utility.yul\":550:555   */\n      dup3\n        /* \"#utility.yul\":532:556   */\n      tag_85\n      jump\t// in\n    tag_120:\n        /* \"#utility.yul\":521:556   */\n      swap1\n      pop\n        /* \"#utility.yul\":466:562   */\n      swap2\n      swap1\n      pop\n      jump\t// out\n        /* \"#utility.yul\":568:690   */\n    tag_87:\n        /* \"#utility.yul\":641:665   */\n      tag_122\n        /* \"#utility.yul\":659:664   */\n      dup2\n        /* \"#utility.yul\":641:665   */\n      tag_86\n      jump\t// in\n    tag_122:\n        /* \"#utility.yul\":634:639   */\n      dup2\n        /* \"#utility.yul\":631:666   */\n      eq\n        /* \"#utility.yul\":621:684   */\n      tag_123\n      jumpi\n        /* \"#utility.yul\":680:681   */\n      0x00\n        /* \"#utility.yul\":677:678   */\n      dup1\n        /* \"#utility.yul\":670:682   */\n      revert\n        /* \"#utility.yul\":621:684   */\n    tag_123:\n        /* \"#utility.yul\":568:690   */\n      pop\n      jump\t// out\n        /* \"#utility.yul\":696:835   */\n    tag_88:\n        /* \"#utility.yul\":742:747   */\n      0x00\n        /* \"#utility.yul\":780:786   */\n      dup2\n        /* \"#utility.yul\":767:787   */\n      calldataload\n        /* \"#utility.yul\":758:787   */\n      swap1\n      pop\n        /* \"#utility.yul\":796:829   */\n      tag_125\n        /* \"#utility.yul\":823:828   */\n      dup2\n        /* \"#utility.yul\":796:829   */\n      tag_87\n      jump\t// in\n    tag_125:\n        /* \"#utility.yul\":696:835   */\n      swap3\n      swap2\n      pop\n      pop\n      jump\t// out\n        /* \"#utility.yul\":841:1170   */\n    tag_14:\n        /* \"#utility.yul\":900:906   */\n      0x00\n        /* \"#utility.yul\":949:951   */\n      0x20\n        /* \"#utility.yul\":937:946   */\n      dup3\n        /* \"#utility.yul\":928:935   */\n      dup5\n        /* \"#utility.yul\":924:947   */\n      sub\n        /* \"#utility.yul\":920:952   */\n      slt\n        /* \"#utility.yul\":917:1036   */\n      iszero\n      tag_127\n      jumpi\n        /* \"#utility.yul\":955:1034   */\n      tag_128\n      tag_83\n      jump\t// in\n    tag_128:\n        /* \"#utility.yul\":917:1036   */\n    tag_127:\n        /* \"#utility.yul\":1075:1076   */\n      0x00\n        /* \"#utility.yul\":1100:1153   */\n      tag_129\n        /* \"#utility.yul\":1145:1152   */\n      dup5\n        /* \"#utility.yul\":1136:1142   */\n      dup3\n        /* \"#utility.yul\":1125:1134   */\n      dup6\n        /* \"#utility.yul\":1121:1143   */\n      add\n        /* \"#utility.yul\":1100:1153   */\n      tag_88\n      jump\t// in\n    tag_129:\n        /* \"#utility.yul\":1090:1153   */\n      swap2\n      pop\n        /* \"#utility.yul\":1046:1163   */\n      pop\n        /* \"#utility.yul\":841:1170   */\n      swap3\n      swap2\n      pop\n      pop\n      jump\t// out\n        /* \"#utility.yul\":1176:1266   */\n    tag_89:\n        /* \"#utility.yul\":1210:1217   */\n      0x00\n        /* \"#utility.yul\":1253:1258   */\n      dup2\n        /* \"#utility.yul\":1246:1259   */\n      iszero\n        /* \"#utility.yul\":1239:1260   */\n      iszero\n        /* \"#utility.yul\":1228:1260   */\n      swap1\n      pop\n        /* \"#utility.yul\":1176:1266   */\n      swap2\n      swap1\n      pop\n      jump\t// out\n        /* \"#utility.yul\":1272:1381   */\n    tag_90:\n        /* \"#utility.yul\":1353:1374   */\n      tag_132\n        /* \"#utility.yul\":1368:1373   */\n      dup2\n        /* \"#utility.yul\":1353:1374   */\n      tag_89\n      jump\t// in\n    tag_132:\n        /* \"#utility.yul\":1348:1351   */\n      dup3\n        /* \"#utility.yul\":1341:1375   */\n      mstore\n        /* \"#utility.yul\":1272:1381   */\n      pop\n      pop\n      jump\t// out\n        /* \"#utility.yul\":1387:1597   */\n    tag_17:\n        /* \"#utility.yul\":1474:1478   */\n      0x00\n        /* \"#utility.yul\":1512:1514   */\n      0x20\n        /* \"#utility.yul\":1501:1510   */\n      dup3\n        /* \"#utility.yul\":1497:1515   */\n      add\n        /* \"#utility.yul\":1489:1515   */\n      swap1\n      pop\n        /* \"#utility.yul\":1525:1590   */\n      tag_134\n        /* \"#utility.yul\":1587:1588   */\n      0x00\n        /* \"#utility.yul\":1576:1585   */\n      dup4\n        /* \"#utility.yul\":1572:1589   */\n      add\n        /* \"#utility.yul\":1563:1569   */\n      dup5\n        /* \"#utility.yul\":1525:1590   */\n      tag_90\n      jump\t// in\n    tag_134:\n        /* \"#utility.yul\":1387:1597   */\n      swap3\n      swap2\n      pop\n      pop\n      jump\t// out\n        /* \"#utility.yul\":1603:1680   */\n    tag_91:\n        /* \"#utility.yul\":1640:1647   */\n      0x00\n        /* \"#utility.yul\":1669:1674   */\n      dup2\n        /* \"#utility.yul\":1658:1674   */\n      swap1\n      pop\n        /* \"#utility.yul\":1603:1680   */\n      swap2\n      swap1\n      pop\n      jump\t// out\n        /* \"#utility.yul\":1686:1804   */\n    tag_92:\n        /* \"#utility.yul\":1773:1797   */\n      tag_137\n        /* \"#utility.yul\":1791:1796   */\n      dup2\n        /* \"#utility.yul\":1773:1797   */\n      tag_91\n      jump\t// in\n    tag_137:\n        /* \"#utility.yul\":1768:1771   */\n      dup3\n        /* \"#utility.yul\":1761:1798   */\n      mstore\n        /* \"#utility.yul\":1686:1804   */\n      pop\n      pop\n      jump\t// out\n        /* \"#utility.yul\":1810:2032   */\n    tag_22:\n        /* \"#utility.yul\":1903:1907   */\n      0x00\n        /* \"#utility.yul\":1941:1943   */\n      0x20\n        /* \"#utility.yul\":1930:1939   */\n      dup3\n        /* \"#utility.yul\":1926:1944   */\n      add\n        /* \"#utility.yul\":1918:1944   */\n      swap1\n      pop\n        /* \"#utility.yul\":1954:2025   */\n      tag_139\n        /* \"#utility.yul\":2022:2023   */\n      0x00\n        /* \"#utility.yul\":2011:2020   */\n      dup4\n        /* \"#utility.yul\":2007:2024   */\n      add\n        /* \"#utility.yul\":1998:2004   */\n      dup5\n        /* \"#utility.yul\":1954:2025   */\n      tag_92\n      jump\t// in\n    tag_139:\n        /* \"#utility.yul\":1810:2032   */\n      swap3\n      swap2\n      pop\n      pop\n      jump\t// out\n        /* \"#utility.yul\":2038:2155   */\n    tag_93:\n        /* \"#utility.yul\":2147:2148   */\n      0x00\n        /* \"#utility.yul\":2144:2145   */\n      dup1\n        /* \"#utility.yul\":2137:2149   */\n      revert\n        /* \"#utility.yul\":2161:2278   */\n    tag_94:\n        /* \"#utility.yul\":2270:2271   */\n      0x00\n        /* \"#utility.yul\":2267:2268   */\n      dup1\n        /* \"#utility.yul\":2260:2272   */\n      revert\n        /* \"#utility.yul\":2284:2386   */\n    tag_95:\n        /* \"#utility.yul\":2325:2331   */\n      0x00\n        /* \"#utility.yul\":2376:2378   */\n      0x1f\n        /* \"#utility.yul\":2372:2379   */\n      not\n        /* \"#utility.yul\":2367:2369   */\n      0x1f\n        /* \"#utility.yul\":2360:2365   */\n      dup4\n        /* \"#utility.yul\":2356:2370   */\n      add\n        /* \"#utility.yul\":2352:2380   */\n      and\n        /* \"#utility.yul\":2342:2380   */\n      swap1\n      pop\n        /* \"#utility.yul\":2284:2386   */\n      swap2\n      swap1\n      pop\n      jump\t// out\n        /* \"#utility.yul\":2392:2572   */\n    tag_96:\n        /* \"#utility.yul\":2440:2517   */\n      0x4e487b7100000000000000000000000000000000000000000000000000000000\n        /* \"#utility.yul\":2437:2438   */\n      0x00\n        /* \"#utility.yul\":2430:2518   */\n      mstore\n        /* \"#utility.yul\":2537:2541   */\n      0x41\n        /* \"#utility.yul\":2534:2535   */\n      0x04\n        /* \"#utility.yul\":2527:2542   */\n      mstore\n        /* \"#utility.yul\":2561:2565   */\n      0x24\n        /* \"#utility.yul\":2558:2559   */\n      0x00\n        /* \"#utility.yul\":2551:2566   */\n      revert\n        /* \"#utility.yul\":2578:2859   */\n    tag_97:\n        /* \"#utility.yul\":2661:2688   */\n      tag_145\n        /* \"#utility.yul\":2683:2687   */\n      dup3\n        /* \"#utility.yul\":2661:2688   */\n      tag_95\n      jump\t// in\n    tag_145:\n        /* \"#utility.yul\":2653:2659   */\n      dup2\n        /* \"#utility.yul\":2649:2689   */\n      add\n        /* \"#utility.yul\":2791:2797   */\n      dup2\n        /* \"#utility.yul\":2779:2789   */\n      dup2\n        /* \"#utility.yul\":2776:2798   */\n      lt\n        /* \"#utility.yul\":2755:2773   */\n      0xffffffffffffffff\n        /* \"#utility.yul\":2743:2753   */\n      dup3\n        /* \"#utility.yul\":2740:2774   */\n      gt\n        /* \"#utility.yul\":2737:2799   */\n      or\n        /* \"#utility.yul\":2734:2822   */\n      iszero\n      tag_146\n      jumpi\n        /* \"#utility.yul\":2802:2820   */\n      tag_147\n      tag_96\n      jump\t// in\n    tag_147:\n        /* \"#utility.yul\":2734:2822   */\n    tag_146:\n        /* \"#utility.yul\":2842:2852   */\n      dup1\n        /* \"#utility.yul\":2838:2840   */\n      0x40\n        /* \"#utility.yul\":2831:2853   */\n      mstore\n        /* \"#utility.yul\":2621:2859   */\n      pop\n        /* \"#utility.yul\":2578:2859   */\n      pop\n      pop\n      jump\t// out\n        /* \"#utility.yul\":2865:2994   */\n    tag_98:\n        /* \"#utility.yul\":2899:2905   */\n      0x00\n        /* \"#utility.yul\":2926:2946   */\n      tag_149\n      tag_82\n      jump\t// in\n    tag_149:\n        /* \"#utility.yul\":2916:2946   */\n      swap1\n      pop\n        /* \"#utility.yul\":2955:2988   */\n      tag_150\n        /* \"#utility.yul\":2983:2987   */\n      dup3\n        /* \"#utility.yul\":2975:2981   */\n      dup3\n        /* \"#utility.yul\":2955:2988   */\n      tag_97\n      jump\t// in\n    tag_150:\n        /* \"#utility.yul\":2865:2994   */\n      swap2\n      swap1\n      pop\n      jump\t// out\n        /* \"#utility.yul\":3000:3308   */\n    tag_99:\n        /* \"#utility.yul\":3062:3066   */\n      0x00\n        /* \"#utility.yul\":3152:3170   */\n      0xffffffffffffffff\n        /* \"#utility.yul\":3144:3150   */\n      dup3\n        /* \"#utility.yul\":3141:3171   */\n      gt\n        /* \"#utility.yul\":3138:3194   */\n      iszero\n      tag_152\n      jumpi\n        /* \"#utility.yul\":3174:3192   */\n      tag_153\n      tag_96\n      jump\t// in\n    tag_153:\n        /* \"#utility.yul\":3138:3194   */\n    tag_152:\n        /* \"#utility.yul\":3212:3241   */\n      tag_154\n        /* \"#utility.yul\":3234:3240   */\n      dup3\n        /* \"#utility.yul\":3212:3241   */\n      tag_95\n      jump\t// in\n    tag_154:\n        /* \"#utility.yul\":3204:3241   */\n      swap1\n      pop\n        /* \"#utility.yul\":3296:3300   */\n      0x20\n        /* \"#utility.yul\":3290:3294   */\n      dup2\n        /* \"#utility.yul\":3286:3301   */\n      add\n        /* \"#utility.yul\":3278:3301   */\n      swap1\n      pop\n        /* \"#utility.yul\":3000:3308   */\n      swap2\n      swap1\n      pop\n      jump\t// out\n        /* \"#utility.yul\":3314:3468   */\n    tag_100:\n        /* \"#utility.yul\":3398:3404   */\n      dup3\n        /* \"#utility.yul\":3393:3396   */\n      dup2\n        /* \"#utility.yul\":3388:3391   */\n      dup4\n        /* \"#utility.yul\":3375:3405   */\n      calldatacopy\n        /* \"#utility.yul\":3460:3461   */\n      0x00\n        /* \"#utility.yul\":3451:3457   */\n      dup4\n        /* \"#utility.yul\":3446:3449   */\n      dup4\n        /* \"#utility.yul\":3442:3458   */\n      add\n        /* \"#utility.yul\":3435:3462   */\n      mstore\n        /* \"#utility.yul\":3314:3468   */\n      pop\n      pop\n      pop\n      jump\t// out\n        /* \"#utility.yul\":3474:3886   */\n    tag_101:\n        /* \"#utility.yul\":3552:3557   */\n      0x00\n        /* \"#utility.yul\":3577:3643   */\n      tag_157\n        /* \"#utility.yul\":3593:3642   */\n      tag_158\n        /* \"#utility.yul\":3635:3641   */\n      dup5\n        /* \"#utility.yul\":3593:3642   */\n      tag_99\n      jump\t// in\n    tag_158:\n        /* \"#utility.yul\":3577:3643   */\n      tag_98\n      jump\t// in\n    tag_157:\n        /* \"#utility.yul\":3568:3643   */\n      swap1\n      pop\n        /* \"#utility.yul\":3666:3672   */\n      dup3\n        /* \"#utility.yul\":3659:3664   */\n      dup2\n        /* \"#utility.yul\":3652:3673   */\n      mstore\n        /* \"#utility.yul\":3704:3708   */\n      0x20\n        /* \"#utility.yul\":3697:3702   */\n      dup2\n        /* \"#utility.yul\":3693:3709   */\n      add\n        /* \"#utility.yul\":3742:3745   */\n      dup5\n        /* \"#utility.yul\":3733:3739   */\n      dup5\n        /* \"#utility.yul\":3728:3731   */\n      dup5\n        /* \"#utility.yul\":3724:3740   */\n      add\n        /* \"#utility.yul\":3721:3746   */\n      gt\n        /* \"#utility.yul\":3718:3830   */\n      iszero\n      tag_159\n      jumpi\n        /* \"#utility.yul\":3749:3828   */\n      tag_160\n      tag_94\n      jump\t// in\n    tag_160:\n        /* \"#utility.yul\":3718:3830   */\n    tag_159:\n        /* \"#utility.yul\":3839:3880   */\n      tag_161\n        /* \"#utility.yul\":3873:3879   */\n      dup5\n        /* \"#utility.yul\":3868:3871   */\n      dup3\n        /* \"#utility.yul\":3863:3866   */\n      dup6\n        /* \"#utility.yul\":3839:3880   */\n      tag_100\n      jump\t// in\n    tag_161:\n        /* \"#utility.yul\":3558:3886   */\n      pop\n        /* \"#utility.yul\":3474:3886   */\n      swap4\n      swap3\n      pop\n      pop\n      pop\n      jump\t// out\n        /* \"#utility.yul\":3906:4246   */\n    tag_102:\n        /* \"#utility.yul\":3962:3967   */\n      0x00\n        /* \"#utility.yul\":4011:4014   */\n      dup3\n        /* \"#utility.yul\":4004:4008   */\n      0x1f\n        /* \"#utility.yul\":3996:4002   */\n      dup4\n        /* \"#utility.yul\":3992:4009   */\n      add\n        /* \"#utility.yul\":3988:4015   */\n      slt\n        /* \"#utility.yul\":3978:4100   */\n      tag_163\n      jumpi\n        /* \"#utility.yul\":4019:4098   */\n      tag_164\n      tag_93\n      jump\t// in\n    tag_164:\n        /* \"#utility.yul\":3978:4100   */\n    tag_163:\n        /* \"#utility.yul\":4136:4142   */\n      dup2\n        /* \"#utility.yul\":4123:4143   */\n      calldataload\n        /* \"#utility.yul\":4161:4240   */\n      tag_165\n        /* \"#utility.yul\":4236:4239   */\n      dup5\n        /* \"#utility.yul\":4228:4234   */\n      dup3\n        /* \"#utility.yul\":4221:4225   */\n      0x20\n        /* \"#utility.yul\":4213:4219   */\n      dup7\n        /* \"#utility.yul\":4209:4226   */\n      add\n        /* \"#utility.yul\":4161:4240   */\n      tag_101\n      jump\t// in\n    tag_165:\n        /* \"#utility.yul\":4152:4240   */\n      swap2\n      pop\n        /* \"#utility.yul\":3968:4246   */\n      pop\n        /* \"#utility.yul\":3906:4246   */\n      swap3\n      swap2\n      pop\n      pop\n      jump\t// out\n        /* \"#utility.yul\":4252:4761   */\n    tag_25:\n        /* \"#utility.yul\":4321:4327   */\n      0x00\n        /* \"#utility.yul\":4370:4372   */\n      0x20\n        /* \"#utility.yul\":4358:4367   */\n      dup3\n        /* \"#utility.yul\":4349:4356   */\n      dup5\n        /* \"#utility.yul\":4345:4368   */\n      sub\n        /* \"#utility.yul\":4341:4373   */\n      slt\n        /* \"#utility.yul\":4338:4457   */\n      iszero\n      tag_167\n      jumpi\n        /* \"#utility.yul\":4376:4455   */\n      tag_168\n      tag_83\n      jump\t// in\n    tag_168:\n        /* \"#utility.yul\":4338:4457   */\n    tag_167:\n        /* \"#utility.yul\":4524:4525   */\n      0x00\n        /* \"#utility.yul\":4513:4522   */\n      dup3\n        /* \"#utility.yul\":4509:4526   */\n      add\n        /* \"#utility.yul\":4496:4527   */\n      calldataload\n        /* \"#utility.yul\":4554:4572   */\n      0xffffffffffffffff\n        /* \"#utility.yul\":4546:4552   */\n      dup2\n        /* \"#utility.yul\":4543:4573   */\n      gt\n        /* \"#utility.yul\":4540:4657   */\n      iszero\n      tag_169\n      jumpi\n        /* \"#utility.yul\":4576:4655   */\n      tag_170\n      tag_84\n      jump\t// in\n    tag_170:\n        /* \"#utility.yul\":4540:4657   */\n    tag_169:\n        /* \"#utility.yul\":4681:4744   */\n      tag_171\n        /* \"#utility.yul\":4736:4743   */\n      dup5\n        /* \"#utility.yul\":4727:4733   */\n      dup3\n        /* \"#utility.yul\":4716:4725   */\n      dup6\n        /* \"#utility.yul\":4712:4734   */\n      add\n        /* \"#utility.yul\":4681:4744   */\n      tag_102\n      jump\t// in\n    tag_171:\n        /* \"#utility.yul\":4671:4744   */\n      swap2\n      pop\n        /* \"#utility.yul\":4467:4754   */\n      pop\n        /* \"#utility.yul\":4252:4761   */\n      swap3\n      swap2\n      pop\n      pop\n      jump\t// out\n        /* \"#utility.yul\":4767:4885   */\n    tag_103:\n        /* \"#utility.yul\":4854:4878   */\n      tag_173\n        /* \"#utility.yul\":4872:4877   */\n      dup2\n        /* \"#utility.yul\":4854:4878   */\n      tag_86\n      jump\t// in\n    tag_173:\n        /* \"#utility.yul\":4849:4852   */\n      dup3\n        /* \"#utility.yul\":4842:4879   */\n      mstore\n        /* \"#utility.yul\":4767:4885   */\n      pop\n      pop\n      jump\t// out\n        /* \"#utility.yul\":4891:5113   */\n    tag_31:\n        /* \"#utility.yul\":4984:4988   */\n      0x00\n        /* \"#utility.yul\":5022:5024   */\n      0x20\n        /* \"#utility.yul\":5011:5020   */\n      dup3\n        /* \"#utility.yul\":5007:5025   */\n      add\n        /* \"#utility.yul\":4999:5025   */\n      swap1\n      pop\n        /* \"#utility.yul\":5035:5106   */\n      tag_175\n        /* \"#utility.yul\":5103:5104   */\n      0x00\n        /* \"#utility.yul\":5092:5101   */\n      dup4\n        /* \"#utility.yul\":5088:5105   */\n      add\n        /* \"#utility.yul\":5079:5085   */\n      dup5\n        /* \"#utility.yul\":5035:5106   */\n      tag_103\n      jump\t// in\n    tag_175:\n        /* \"#utility.yul\":4891:5113   */\n      swap3\n      swap2\n      pop\n      pop\n      jump\t// out\n        /* \"#utility.yul\":5119:5218   */\n    tag_104:\n        /* \"#utility.yul\":5171:5177   */\n      0x00\n        /* \"#utility.yul\":5205:5210   */\n      dup2\n        /* \"#utility.yul\":5199:5211   */\n      mload\n        /* \"#utility.yul\":5189:5211   */\n      swap1\n      pop\n        /* \"#utility.yul\":5119:5218   */\n      swap2\n      swap1\n      pop\n      jump\t// out\n        /* \"#utility.yul\":5224:5393   */\n    tag_105:\n        /* \"#utility.yul\":5308:5319   */\n      0x00\n        /* \"#utility.yul\":5342:5348   */\n      dup3\n        /* \"#utility.yul\":5337:5340   */\n      dup3\n        /* \"#utility.yul\":5330:5349   */\n      mstore\n        /* \"#utility.yul\":5382:5386   */\n      0x20\n        /* \"#utility.yul\":5377:5380   */\n      dup3\n        /* \"#utility.yul\":5373:5387   */\n      add\n        /* \"#utility.yul\":5358:5387   */\n      swap1\n      pop\n        /* \"#utility.yul\":5224:5393   */\n      swap3\n      swap2\n      pop\n      pop\n      jump\t// out\n        /* \"#utility.yul\":5399:5706   */\n    tag_106:\n        /* \"#utility.yul\":5467:5468   */\n      0x00\n        /* \"#utility.yul\":5477:5590   */\n    tag_179:\n        /* \"#utility.yul\":5491:5497   */\n      dup4\n        /* \"#utility.yul\":5488:5489   */\n      dup2\n        /* \"#utility.yul\":5485:5498   */\n      lt\n        /* \"#utility.yul\":5477:5590   */\n      iszero\n      tag_181\n      jumpi\n        /* \"#utility.yul\":5576:5577   */\n      dup1\n        /* \"#utility.yul\":5571:5574   */\n      dup3\n        /* \"#utility.yul\":5567:5578   */\n      add\n        /* \"#utility.yul\":5561:5579   */\n      mload\n        /* \"#utility.yul\":5557:5558   */\n      dup2\n        /* \"#utility.yul\":5552:5555   */\n      dup5\n        /* \"#utility.yul\":5548:5559   */\n      add\n        /* \"#utility.yul\":5541:5580   */\n      mstore\n        /* \"#utility.yul\":5513:5515   */\n      0x20\n        /* \"#utility.yul\":5510:5511   */\n      dup2\n        /* \"#utility.yul\":5506:5516   */\n      add\n        /* \"#utility.yul\":5501:5516   */\n      swap1\n      pop\n        /* \"#utility.yul\":5477:5590   */\n      jump(tag_179)\n    tag_181:\n        /* \"#utility.yul\":5608:5614   */\n      dup4\n        /* \"#utility.yul\":5605:5606   */\n      dup2\n        /* \"#utility.yul\":5602:5615   */\n      gt\n        /* \"#utility.yul\":5599:5700   */\n      iszero\n      tag_182\n      jumpi\n        /* \"#utility.yul\":5688:5689   */\n      0x00\n        /* \"#utility.yul\":5679:5685   */\n      dup5\n        /* \"#utility.yul\":5674:5677   */\n      dup5\n        /* \"#utility.yul\":5670:5686   */\n      add\n        /* \"#utility.yul\":5663:5690   */\n      mstore\n        /* \"#utility.yul\":5599:5700   */\n    tag_182:\n        /* \"#utility.yul\":5448:5706   */\n      pop\n        /* \"#utility.yul\":5399:5706   */\n      pop\n      pop\n      pop\n      jump\t// out\n        /* \"#utility.yul\":5712:6076   */\n    tag_107:\n        /* \"#utility.yul\":5800:5803   */\n      0x00\n        /* \"#utility.yul\":5828:5867   */\n      tag_184\n        /* \"#utility.yul\":5861:5866   */\n      dup3\n        /* \"#utility.yul\":5828:5867   */\n      tag_104\n      jump\t// in\n    tag_184:\n        /* \"#utility.yul\":5883:5954   */\n      tag_185\n        /* \"#utility.yul\":5947:5953   */\n      dup2\n        /* \"#utility.yul\":5942:5945   */\n      dup6\n        /* \"#utility.yul\":5883:5954   */\n      tag_105\n      jump\t// in\n    tag_185:\n        /* \"#utility.yul\":5876:5954   */\n      swap4\n      pop\n        /* \"#utility.yul\":5963:6015   */\n      tag_186\n        /* \"#utility.yul\":6008:6014   */\n      dup2\n        /* \"#utility.yul\":6003:6006   */\n      dup6\n        /* \"#utility.yul\":5996:6000   */\n      0x20\n        /* \"#utility.yul\":5989:5994   */\n      dup7\n        /* \"#utility.yul\":5985:6001   */\n      add\n        /* \"#utility.yul\":5963:6015   */\n      tag_106\n      jump\t// in\n    tag_186:\n        /* \"#utility.yul\":6040:6069   */\n      tag_187\n        /* \"#utility.yul\":6062:6068   */\n      dup2\n        /* \"#utility.yul\":6040:6069   */\n      tag_95\n      jump\t// in\n    tag_187:\n        /* \"#utility.yul\":6035:6038   */\n      dup5\n        /* \"#utility.yul\":6031:6070   */\n      add\n        /* \"#utility.yul\":6024:6070   */\n      swap2\n      pop\n        /* \"#utility.yul\":5804:6076   */\n      pop\n        /* \"#utility.yul\":5712:6076   */\n      swap3\n      swap2\n      pop\n      pop\n      jump\t// out\n        /* \"#utility.yul\":6082:6825   */\n    tag_37:\n        /* \"#utility.yul\":6301:6305   */\n      0x00\n        /* \"#utility.yul\":6339:6342   */\n      0xa0\n        /* \"#utility.yul\":6328:6337   */\n      dup3\n        /* \"#utility.yul\":6324:6343   */\n      add\n        /* \"#utility.yul\":6316:6343   */\n      swap1\n      pop\n        /* \"#utility.yul\":6389:6398   */\n      dup2\n        /* \"#utility.yul\":6383:6387   */\n      dup2\n        /* \"#utility.yul\":6379:6399   */\n      sub\n        /* \"#utility.yul\":6375:6376   */\n      0x00\n        /* \"#utility.yul\":6364:6373   */\n      dup4\n        /* \"#utility.yul\":6360:6377   */\n      add\n        /* \"#utility.yul\":6353:6400   */\n      mstore\n        /* \"#utility.yul\":6417:6495   */\n      tag_189\n        /* \"#utility.yul\":6490:6494   */\n      dup2\n        /* \"#utility.yul\":6481:6487   */\n      dup9\n        /* \"#utility.yul\":6417:6495   */\n      tag_107\n      jump\t// in\n    tag_189:\n        /* \"#utility.yul\":6409:6495   */\n      swap1\n      pop\n        /* \"#utility.yul\":6505:6577   */\n      tag_190\n        /* \"#utility.yul\":6573:6575   */\n      0x20\n        /* \"#utility.yul\":6562:6571   */\n      dup4\n        /* \"#utility.yul\":6558:6576   */\n      add\n        /* \"#utility.yul\":6549:6555   */\n      dup8\n        /* \"#utility.yul\":6505:6577   */\n      tag_92\n      jump\t// in\n    tag_190:\n        /* \"#utility.yul\":6587:6659   */\n      tag_191\n        /* \"#utility.yul\":6655:6657   */\n      0x40\n        /* \"#utility.yul\":6644:6653   */\n      dup4\n        /* \"#utility.yul\":6640:6658   */\n      add\n        /* \"#utility.yul\":6631:6637   */\n      dup7\n        /* \"#utility.yul\":6587:6659   */\n      tag_103\n      jump\t// in\n    tag_191:\n        /* \"#utility.yul\":6669:6735   */\n      tag_192\n        /* \"#utility.yul\":6731:6733   */\n      0x60\n        /* \"#utility.yul\":6720:6729   */\n      dup4\n        /* \"#utility.yul\":6716:6734   */\n      add\n        /* \"#utility.yul\":6707:6713   */\n      dup6\n        /* \"#utility.yul\":6669:6735   */\n      tag_90\n      jump\t// in\n    tag_192:\n        /* \"#utility.yul\":6745:6818   */\n      tag_193\n        /* \"#utility.yul\":6813:6816   */\n      0x80\n        /* \"#utility.yul\":6802:6811   */\n      dup4\n        /* \"#utility.yul\":6798:6817   */\n      add\n        /* \"#utility.yul\":6789:6795   */\n      dup5\n        /* \"#utility.yul\":6745:6818   */\n      tag_92\n      jump\t// in\n    tag_193:\n        /* \"#utility.yul\":6082:6825   */\n      swap7\n      swap6\n      pop\n      pop\n      pop\n      pop\n      pop\n      pop\n      jump\t// out\n        /* \"#utility.yul\":6831:6953   */\n    tag_108:\n        /* \"#utility.yul\":6904:6928   */\n      tag_195\n        /* \"#utility.yul\":6922:6927   */\n      dup2\n        /* \"#utility.yul\":6904:6928   */\n      tag_91\n      jump\t// in\n    tag_195:\n        /* \"#utility.yul\":6897:6902   */\n      dup2\n        /* \"#utility.yul\":6894:6929   */\n      eq\n        /* \"#utility.yul\":6884:6947   */\n      tag_196\n      jumpi\n        /* \"#utility.yul\":6943:6944   */\n      0x00\n        /* \"#utility.yul\":6940:6941   */\n      dup1\n        /* \"#utility.yul\":6933:6945   */\n      revert\n        /* \"#utility.yul\":6884:6947   */\n    tag_196:\n        /* \"#utility.yul\":6831:6953   */\n      pop\n      jump\t// out\n        /* \"#utility.yul\":6959:7098   */\n    tag_109:\n        /* \"#utility.yul\":7005:7010   */\n      0x00\n        /* \"#utility.yul\":7043:7049   */\n      dup2\n        /* \"#utility.yul\":7030:7050   */\n      calldataload\n        /* \"#utility.yul\":7021:7050   */\n      swap1\n      pop\n        /* \"#utility.yul\":7059:7092   */\n      tag_198\n        /* \"#utility.yul\":7086:7091   */\n      dup2\n        /* \"#utility.yul\":7059:7092   */\n      tag_108\n      jump\t// in\n    tag_198:\n        /* \"#utility.yul\":6959:7098   */\n      swap3\n      swap2\n      pop\n      pop\n      jump\t// out\n        /* \"#utility.yul\":7104:8229   */\n    tag_45:\n        /* \"#utility.yul\":7210:7216   */\n      0x00\n        /* \"#utility.yul\":7218:7224   */\n      dup1\n        /* \"#utility.yul\":7226:7232   */\n      0x00\n        /* \"#utility.yul\":7234:7240   */\n      dup1\n        /* \"#utility.yul\":7283:7286   */\n      0x80\n        /* \"#utility.yul\":7271:7280   */\n      dup6\n        /* \"#utility.yul\":7262:7269   */\n      dup8\n        /* \"#utility.yul\":7258:7281   */\n      sub\n        /* \"#utility.yul\":7254:7287   */\n      slt\n        /* \"#utility.yul\":7251:7371   */\n      iszero\n      tag_200\n      jumpi\n        /* \"#utility.yul\":7290:7369   */\n      tag_201\n      tag_83\n      jump\t// in\n    tag_201:\n        /* \"#utility.yul\":7251:7371   */\n    tag_200:\n        /* \"#utility.yul\":7438:7439   */\n      0x00\n        /* \"#utility.yul\":7427:7436   */\n      dup6\n        /* \"#utility.yul\":7423:7440   */\n      add\n        /* \"#utility.yul\":7410:7441   */\n      calldataload\n        /* \"#utility.yul\":7468:7486   */\n      0xffffffffffffffff\n        /* \"#utility.yul\":7460:7466   */\n      dup2\n        /* \"#utility.yul\":7457:7487   */\n      gt\n        /* \"#utility.yul\":7454:7571   */\n      iszero\n      tag_202\n      jumpi\n        /* \"#utility.yul\":7490:7569   */\n      tag_203\n      tag_84\n      jump\t// in\n    tag_203:\n        /* \"#utility.yul\":7454:7571   */\n    tag_202:\n        /* \"#utility.yul\":7595:7658   */\n      tag_204\n        /* \"#utility.yul\":7650:7657   */\n      dup8\n        /* \"#utility.yul\":7641:7647   */\n      dup3\n        /* \"#utility.yul\":7630:7639   */\n      dup9\n        /* \"#utility.yul\":7626:7648   */\n      add\n        /* \"#utility.yul\":7595:7658   */\n      tag_102\n      jump\t// in\n    tag_204:\n        /* \"#utility.yul\":7585:7658   */\n      swap5\n      pop\n        /* \"#utility.yul\":7381:7668   */\n      pop\n        /* \"#utility.yul\":7735:7737   */\n      0x20\n        /* \"#utility.yul\":7724:7733   */\n      dup6\n        /* \"#utility.yul\":7720:7738   */\n      add\n        /* \"#utility.yul\":7707:7739   */\n      calldataload\n        /* \"#utility.yul\":7766:7784   */\n      0xffffffffffffffff\n        /* \"#utility.yul\":7758:7764   */\n      dup2\n        /* \"#utility.yul\":7755:7785   */\n      gt\n        /* \"#utility.yul\":7752:7869   */\n      iszero\n      tag_205\n      jumpi\n        /* \"#utility.yul\":7788:7867   */\n      tag_206\n      tag_84\n      jump\t// in\n    tag_206:\n        /* \"#utility.yul\":7752:7869   */\n    tag_205:\n        /* \"#utility.yul\":7893:7956   */\n      tag_207\n        /* \"#utility.yul\":7948:7955   */\n      dup8\n        /* \"#utility.yul\":7939:7945   */\n      dup3\n        /* \"#utility.yul\":7928:7937   */\n      dup9\n        /* \"#utility.yul\":7924:7946   */\n      add\n        /* \"#utility.yul\":7893:7956   */\n      tag_102\n      jump\t// in\n    tag_207:\n        /* \"#utility.yul\":7883:7956   */\n      swap4\n      pop\n        /* \"#utility.yul\":7678:7966   */\n      pop\n        /* \"#utility.yul\":8005:8007   */\n      0x40\n        /* \"#utility.yul\":8031:8084   */\n      tag_208\n        /* \"#utility.yul\":8076:8083   */\n      dup8\n        /* \"#utility.yul\":8067:8073   */\n      dup3\n        /* \"#utility.yul\":8056:8065   */\n      dup9\n        /* \"#utility.yul\":8052:8074   */\n      add\n        /* \"#utility.yul\":8031:8084   */\n      tag_109\n      jump\t// in\n    tag_208:\n        /* \"#utility.yul\":8021:8084   */\n      swap3\n      pop\n        /* \"#utility.yul\":7976:8094   */\n      pop\n        /* \"#utility.yul\":8133:8135   */\n      0x60\n        /* \"#utility.yul\":8159:8212   */\n      tag_209\n        /* \"#utility.yul\":8204:8211   */\n      dup8\n        /* \"#utility.yul\":8195:8201   */\n      dup3\n        /* \"#utility.yul\":8184:8193   */\n      dup9\n        /* \"#utility.yul\":8180:8202   */\n      add\n        /* \"#utility.yul\":8159:8212   */\n      tag_88\n      jump\t// in\n    tag_209:\n        /* \"#utility.yul\":8149:8212   */\n      swap2\n      pop\n        /* \"#utility.yul\":8104:8222   */\n      pop\n        /* \"#utility.yul\":7104:8229   */\n      swap3\n      swap6\n      swap2\n      swap5\n      pop\n      swap3\n      pop\n      jump\t// out\n        /* \"#utility.yul\":8235:8383   */\n    tag_110:\n        /* \"#utility.yul\":8337:8348   */\n      0x00\n        /* \"#utility.yul\":8374:8377   */\n      dup2\n        /* \"#utility.yul\":8359:8377   */\n      swap1\n      pop\n        /* \"#utility.yul\":8235:8383   */\n      swap3\n      swap2\n      pop\n      pop\n      jump\t// out\n        /* \"#utility.yul\":8389:8766   */\n    tag_111:\n        /* \"#utility.yul\":8495:8498   */\n      0x00\n        /* \"#utility.yul\":8523:8562   */\n      tag_212\n        /* \"#utility.yul\":8556:8561   */\n      dup3\n        /* \"#utility.yul\":8523:8562   */\n      tag_104\n      jump\t// in\n    tag_212:\n        /* \"#utility.yul\":8578:8667   */\n      tag_213\n        /* \"#utility.yul\":8660:8666   */\n      dup2\n        /* \"#utility.yul\":8655:8658   */\n      dup6\n        /* \"#utility.yul\":8578:8667   */\n      tag_110\n      jump\t// in\n    tag_213:\n        /* \"#utility.yul\":8571:8667   */\n      swap4\n      pop\n        /* \"#utility.yul\":8676:8728   */\n      tag_214\n        /* \"#utility.yul\":8721:8727   */\n      dup2\n        /* \"#utility.yul\":8716:8719   */\n      dup6\n        /* \"#utility.yul\":8709:8713   */\n      0x20\n        /* \"#utility.yul\":8702:8707   */\n      dup7\n        /* \"#utility.yul\":8698:8714   */\n      add\n        /* \"#utility.yul\":8676:8728   */\n      tag_106\n      jump\t// in\n    tag_214:\n        /* \"#utility.yul\":8753:8759   */\n      dup1\n        /* \"#utility.yul\":8748:8751   */\n      dup5\n        /* \"#utility.yul\":8744:8760   */\n      add\n        /* \"#utility.yul\":8737:8760   */\n      swap2\n      pop\n        /* \"#utility.yul\":8499:8766   */\n      pop\n        /* \"#utility.yul\":8389:8766   */\n      swap3\n      swap2\n      pop\n      pop\n      jump\t// out\n        /* \"#utility.yul\":8772:9047   */\n    tag_51:\n        /* \"#utility.yul\":8904:8907   */\n      0x00\n        /* \"#utility.yul\":8926:9021   */\n      tag_216\n        /* \"#utility.yul\":9017:9020   */\n      dup3\n        /* \"#utility.yul\":9008:9014   */\n      dup5\n        /* \"#utility.yul\":8926:9021   */\n      tag_111\n      jump\t// in\n    tag_216:\n        /* \"#utility.yul\":8919:9021   */\n      swap2\n      pop\n        /* \"#utility.yul\":9038:9041   */\n      dup2\n        /* \"#utility.yul\":9031:9041   */\n      swap1\n      pop\n        /* \"#utility.yul\":8772:9047   */\n      swap3\n      swap2\n      pop\n      pop\n      jump\t// out\n        /* \"#utility.yul\":9053:9233   */\n    tag_112:\n        /* \"#utility.yul\":9101:9178   */\n      0x4e487b7100000000000000000000000000000000000000000000000000000000\n        /* \"#utility.yul\":9098:9099   */\n      0x00\n        /* \"#utility.yul\":9091:9179   */\n      mstore\n        /* \"#utility.yul\":9198:9202   */\n      0x11\n        /* \"#utility.yul\":9195:9196   */\n      0x04\n        /* \"#utility.yul\":9188:9203   */\n      mstore\n        /* \"#utility.yul\":9222:9226   */\n      0x24\n        /* \"#utility.yul\":9219:9220   */\n      0x00\n        /* \"#utility.yul\":9212:9227   */\n      revert\n        /* \"#utility.yul\":9239:9472   */\n    tag_56:\n        /* \"#utility.yul\":9278:9281   */\n      0x00\n        /* \"#utility.yul\":9301:9325   */\n      tag_219\n        /* \"#utility.yul\":9319:9324   */\n      dup3\n        /* \"#utility.yul\":9301:9325   */\n      tag_91\n      jump\t// in\n    tag_219:\n        /* \"#utility.yul\":9292:9325   */\n      swap2\n      pop\n        /* \"#utility.yul\":9347:9413   */\n      0xffffffffffffffffffffffffffffffffffffffffffffffffffffffffffffffff\n        /* \"#utility.yul\":9340:9345   */\n      dup3\n        /* \"#utility.yul\":9337:9414   */\n      sub\n        /* \"#utility.yul\":9334:9437   */\n      tag_220\n      jumpi\n        /* \"#utility.yul\":9417:9435   */\n      tag_221\n      tag_112\n      jump\t// in\n    tag_221:\n        /* \"#utility.yul\":9334:9437   */\n    tag_220:\n        /* \"#utility.yul\":9464:9465   */\n      0x01\n        /* \"#utility.yul\":9457:9462   */\n      dup3\n        /* \"#utility.yul\":9453:9466   */\n      add\n        /* \"#utility.yul\":9446:9466   */\n      swap1\n      pop\n        /* \"#utility.yul\":9239:9472   */\n      swap2\n      swap1\n      pop\n      jump\t// out\n        /* \"#utility.yul\":9478:9658   */\n    tag_113:\n        /* \"#utility.yul\":9526:9603   */\n      0x4e487b7100000000000000000000000000000000000000000000000000000000\n        /* \"#utility.yul\":9523:9524   */\n      0x00\n        /* \"#utility.yul\":9516:9604   */\n      mstore\n        /* \"#utility.yul\":9623:9627   */\n      0x22\n        /* \"#utility.yul\":9620:9621   */\n      0x04\n        /* \"#utility.yul\":9613:9628   */\n      mstore\n        /* \"#utility.yul\":9647:9651   */\n      0x24\n        /* \"#utility.yul\":9644:9645   */\n      0x00\n        /* \"#utility.yul\":9637:9652   */\n      revert\n        /* \"#utility.yul\":9664:9984   */\n    tag_58:\n        /* \"#utility.yul\":9708:9714   */\n      0x00\n        /* \"#utility.yul\":9745:9746   */\n      0x02\n        /* \"#utility.yul\":9739:9743   */\n      dup3\n        /* \"#utility.yul\":9735:9747   */\n      div\n        /* \"#utility.yul\":9725:9747   */\n      swap1\n      pop\n        /* \"#utility.yul\":9792:9793   */\n      0x01\n        /* \"#utility.yul\":9786:9790   */\n      dup3\n        /* \"#utility.yul\":9782:9794   */\n      and\n        /* \"#utility.yul\":9813:9831   */\n      dup1\n        /* \"#utility.yul\":9803:9884   */\n      tag_224\n      jumpi\n        /* \"#utility.yul\":9869:9873   */\n      0x7f\n        /* \"#utility.yul\":9861:9867   */\n      dup3\n        /* \"#utility.yul\":9857:9874   */\n      and\n        /* \"#utility.yul\":9847:9874   */\n      swap2\n      pop\n        /* \"#utility.yul\":9803:9884   */\n    tag_224:\n        /* \"#utility.yul\":9931:9933   */\n      0x20\n        /* \"#utility.yul\":9923:9929   */\n      dup3\n        /* \"#utility.yul\":9920:9934   */\n      lt\n        /* \"#utility.yul\":9900:9918   */\n      dup2\n        /* \"#utility.yul\":9897:9935   */\n      sub\n        /* \"#utility.yul\":9894:9978   */\n      tag_225\n      jumpi\n        /* \"#utility.yul\":9950:9968   */\n      tag_226\n      tag_113\n      jump\t// in\n    tag_226:\n        /* \"#utility.yul\":9894:9978   */\n    tag_225:\n        /* \"#utility.yul\":9715:9984   */\n      pop\n        /* \"#utility.yul\":9664:9984   */\n      swap2\n      swap1\n      pop\n      jump\t// out\n\n    auxdata: 0xa2646970667358221220c6cd0d1c80d2285b3b203e907c81201a024cfa845b9cf041bf02f7b354ad25c764736f6c634300080d0033\n}\n","bytecode":{"linkReferences":{},"object":"60806040523480156200001157600080fd5b5060405162000e0338038062000e03833981810160405281019062000037919062000134565b81600160006101000a81548173ffffffffffffffffffffffffffffffffffffffff021916908373ffffffffffffffffffffffffffffffffffffffff16021790555080600281905550600060048190555050506200017b565b600080fd5b600073ffffffffffffffffffffffffffffffffffffffff82169050919050565b6000620000c18262000094565b9050919050565b620000d381620000b4565b8114620000df57600080fd5b50565b600081519050620000f381620000c8565b92915050565b6000819050919050565b6200010e81620000f9565b81146200011a57600080fd5b50565b6000815190506200012e8162000103565b92915050565b600080604083850312156200014e576200014d6200008f565b5b60006200015e85828601620000e2565b925050602062000171858286016200011d565b9150509250929050565b610c78806200018b6000396000f3fe60806040526004361061007b5760003560e01c8063692d51d21161004e578063692d51d21461012f578063937e09b114610170578063c77412651461019b578063d7bb99ba146101c45761007b565b80630a14439114610080578063128e9be6146100bd5780631e0715df146100e8578063481c6a7514610104575b600080fd5b34801561008c57600080fd5b506100a760048036038101906100a2919061071b565b6101ce565b6040516100b49190610763565b60405180910390f35b3480156100c957600080fd5b506100d26101ee565b6040516100df9190610797565b60405180910390f35b61010260048036038101906100fd91906108f8565b6101f4565b005b34801561011057600080fd5b5061011961034a565b6040516101269190610950565b60405180910390f35b34801561013b57600080fd5b50610156600480360381019061015191906108f8565b610370565b6040516101679594939291906109f3565b60405180910390f35b34801561017c57600080fd5b50610185610471565b6040516101929190610797565b60405180910390f35b3480156101a757600080fd5b506101c260048036038101906101bd9190610a79565b610477565b005b6101cc610585565b005b60036020528060005260406000206000915054906101000a900460ff1681565b60045481565b600080826040516102059190610b54565b90815260200160405180910390209050600360003373ffffffffffffffffffffffffffffffffffffffff1673ffffffffffffffffffffffffffffffffffffffff16815260200190815260200160002060009054906101000a900460ff1661026b57600080fd5b8060040160003373ffffffffffffffffffffffffffffffffffffffff1673ffffffffffffffffffffffffffffffffffffffff16815260200190815260200160002060009054906101000a900460ff16156102c457600080fd5b6000816001015411156103465760018160040160003373ffffffffffffffffffffffffffffffffffffffff1673ffffffffffffffffffffffffffffffffffffffff16815260200190815260200160002060006101000a81548160ff02191690831515021790555080600301600081548092919061034090610b9a565b91905055505b5050565b600160009054906101000a900473ffffffffffffffffffffffffffffffffffffffff1681565b6000818051602081018201805184825260208301602085012081835280955050505050506000915090508060000180546103a990610c11565b80601f01602080910402602001604051908101604052809291908181526020018280546103d590610c11565b80156104225780601f106103f757610100808354040283529160200191610422565b820191906000526020600020905b81548152906001019060200180831161040557829003601f168201915b5050505050908060010154908060020160009054906101000a900473ffffffffffffffffffffffffffffffffffffffff16908060020160149054906101000a900460ff16908060030154905085565b60025481565b600160009054906101000a900473ffffffffffffffffffffffffffffffffffffffff1673ffffffffffffffffffffffffffffffffffffffff163373ffffffffffffffffffffffffffffffffffffffff16146104d157600080fd5b600080856040516104e29190610b54565b908152602001604051809103902090508381600001908051906020019061050a929190610606565b50828160010181905550818160020160006101000a81548173ffffffffffffffffffffffffffffffffffffffff021916908373ffffffffffffffffffffffffffffffffffffffff16021790555060008160020160146101000a81548160ff021916908315150217905550600081600301819055505050505050565b60025434101561059457600080fd5b6001600360003373ffffffffffffffffffffffffffffffffffffffff1673ffffffffffffffffffffffffffffffffffffffff16815260200190815260200160002060006101000a81548160ff021916908315150217905550600460008154809291906105ff90610b9a565b9190505550565b82805461061290610c11565b90600052602060002090601f016020900481019282610634576000855561067b565b82601f1061064d57805160ff191683800117855561067b565b8280016001018555821561067b579182015b8281111561067a57825182559160200191906001019061065f565b5b509050610688919061068c565b5090565b5b808211156106a557600081600090555060010161068d565b5090565b6000604051905090565b600080fd5b600080fd5b600073ffffffffffffffffffffffffffffffffffffffff82169050919050565b60006106e8826106bd565b9050919050565b6106f8816106dd565b811461070357600080fd5b50565b600081359050610715816106ef565b92915050565b600060208284031215610731576107306106b3565b5b600061073f84828501610706565b91505092915050565b60008115159050919050565b61075d81610748565b82525050565b60006020820190506107786000830184610754565b92915050565b6000819050919050565b6107918161077e565b82525050565b60006020820190506107ac6000830184610788565b92915050565b600080fd5b600080fd5b6000601f19601f8301169050919050565b7f4e487b7100000000000000000000000000000000000000000000000000000000600052604160045260246000fd5b610805826107bc565b810181811067ffffffffffffffff82111715610824576108236107cd565b5b80604052505050565b60006108376106a9565b905061084382826107fc565b919050565b600067ffffffffffffffff821115610863576108626107cd565b5b61086c826107bc565b9050602081019050919050565b82818337600083830152505050565b600061089b61089684610848565b61082d565b9050828152602081018484840111156108b7576108b66107b7565b5b6108c2848285610879565b509392505050565b600082601f8301126108df576108de6107b2565b5b81356108ef848260208601610888565b91505092915050565b60006020828403121561090e5761090d6106b3565b5b600082013567ffffffffffffffff81111561092c5761092b6106b8565b5b610938848285016108ca565b91505092915050565b61094a816106dd565b82525050565b60006020820190506109656000830184610941565b92915050565b600081519050919050565b600082825260208201905092915050565b60005b838110156109a557808201518184015260208101905061098a565b838111156109b4576000848401525b50505050565b60006109c58261096b565b6109cf8185610976565b93506109df818560208601610987565b6109e8816107bc565b840191505092915050565b600060a0820190508181036000830152610a0d81886109ba565b9050610a1c6020830187610788565b610a296040830186610941565b610a366060830185610754565b610a436080830184610788565b9695505050505050565b610a568161077e565b8114610a6157600080fd5b50565b600081359050610a7381610a4d565b92915050565b60008060008060808587031215610a9357610a926106b3565b5b600085013567ffffffffffffffff811115610ab157610ab06106b8565b5b610abd878288016108ca565b945050602085013567ffffffffffffffff811115610ade57610add6106b8565b5b610aea878288016108ca565b9350506040610afb87828801610a64565b9250506060610b0c87828801610706565b91505092959194509250565b600081905092915050565b6000610b2e8261096b565b610b388185610b18565b9350610b48818560208601610987565b80840191505092915050565b6000610b608284610b23565b915081905092915050565b7f4e487b7100000000000000000000000000000000000000000000000000000000600052601160045260246000fd5b6000610ba58261077e565b91507fffffffffffffffffffffffffffffffffffffffffffffffffffffffffffffffff8203610bd757610bd6610b6b565b5b600182019050919050565b7f4e487b7100000000000000000000000000000000000000000000000000000000600052602260045260246000fd5b60006002820490506001821680610c2957607f821691505b602082108103610c3c57610c3b610be2565b5b5091905056fea2646970667358221220c6cd0d1c80d2285b3b203e907c81201a024cfa845b9cf041bf02f7b354ad25c764736f6c634300080d0033","opcodes":"PUSH1 0x80 PUSH1 0x40 MSTORE CALLVALUE DUP1 ISZERO PUSH3 0x11 JUMPI PUSH1 0x0 DUP1 REVERT JUMPDEST POP PUSH1 0x40 MLOAD PUSH3 0xE03 CODESIZE SUB DUP1 PUSH3 0xE03 DUP4 CODECOPY DUP2 DUP2 ADD PUSH1 0x40 MSTORE DUP2 ADD SWAP1 PUSH3 0x37 SWAP2 SWAP1 PUSH3 0x134 JUMP JUMPDEST DUP2 PUSH1 0x1 PUSH1 0x0 PUSH2 0x100 EXP DUP2 SLOAD DUP2 PUSH20 0xFFFFFFFFFFFFFFFFFFFFFFFFFFFFFFFFFFFFFFFF MUL NOT AND SWAP1 DUP4 PUSH20 0xFFFFFFFFFFFFFFFFFFFFFFFFFFFFFFFFFFFFFFFF AND MUL OR SWAP1 SSTORE POP DUP1 PUSH1 0x2 DUP2 SWAP1 SSTORE POP PUSH1 0x0 PUSH1 0x4 DUP2 SWAP1 SSTORE POP POP POP PUSH3 0x17B JUMP JUMPDEST PUSH1 0x0 DUP1 REVERT JUMPDEST PUSH1 0x0 PUSH20 0xFFFFFFFFFFFFFFFFFFFFFFFFFFFFFFFFFFFFFFFF DUP3 AND SWAP1 POP SWAP2 SWAP1 POP JUMP JUMPDEST PUSH1 0x0 PUSH3 0xC1 DUP3 PUSH3 0x94 JUMP JUMPDEST SWAP1 POP SWAP2 SWAP1 POP JUMP JUMPDEST PUSH3 0xD3 DUP2 PUSH3 0xB4 JUMP JUMPDEST DUP2 EQ PUSH3 0xDF JUMPI PUSH1 0x0 DUP1 REVERT JUMPDEST POP JUMP JUMPDEST PUSH1 0x0 DUP2 MLOAD SWAP1 POP PUSH3 0xF3 DUP2 PUSH3 0xC8 JUMP JUMPDEST SWAP3 SWAP2 POP POP JUMP JUMPDEST PUSH1 0x0 DUP2 SWAP1 POP SWAP2 SWAP1 POP JUMP JUMPDEST PUSH3 0x10E DUP2 PUSH3 0xF9 JUMP JUMPDEST DUP2 EQ PUSH3 0x11A JUMPI PUSH1 0x0 DUP1 REVERT JUMPDEST POP JUMP JUMPDEST PUSH1 0x0 DUP2 MLOAD SWAP1 POP PUSH3 0x12E DUP2 PUSH3 0x103 JUMP JUMPDEST SWAP3 SWAP2 POP POP JUMP JUMPDEST PUSH1 0x0 DUP1 PUSH1 0x40 DUP4 DUP6 SUB SLT ISZERO PUSH3 0x14E JUMPI PUSH3 0x14D PUSH3 0x8F JUMP JUMPDEST JUMPDEST PUSH1 0x0 PUSH3 0x15E DUP6 DUP3 DUP7 ADD PUSH3 0xE2 JUMP JUMPDEST SWAP3 POP POP PUSH1 0x20 PUSH3 0x171 DUP6 DUP3 DUP7 ADD PUSH3 0x11D JUMP JUMPDEST SWAP2 POP POP SWAP3 POP SWAP3 SWAP1 POP JUMP JUMPDEST PUSH2 0xC78 DUP1 PUSH3 0x18B PUSH1 0x0 CODECOPY PUSH1 0x0 RETURN INVALID PUSH1 0x80 PUSH1 0x40 MSTORE PUSH1 0x4 CALLDATASIZE LT PUSH2 0x7B JUMPI PUSH1 0x0 CALLDATALOAD PUSH1 0xE0 SHR DUP1 PUSH4 0x692D51D2 GT PUSH2 0x4E JUMPI DUP1 PUSH4 0x692D51D2 EQ PUSH2 0x12F JUMPI DUP1 PUSH4 0x937E09B1 EQ PUSH2 0x170 JUMPI DUP1 PUSH4 0xC7741265 EQ PUSH2 0x19B JUMPI DUP1 PUSH4 0xD7BB99BA EQ PUSH2 0x1C4 JUMPI PUSH2 0x7B JUMP JUMPDEST DUP1 PUSH4 0xA144391 EQ PUSH2 0x80 JUMPI DUP1 PUSH4 0x128E9BE6 EQ PUSH2 0xBD JUMPI DUP1 PUSH4 0x1E0715DF EQ PUSH2 0xE8 JUMPI DUP1 PUSH4 0x481C6A75 EQ PUSH2 0x104 JUMPI JUMPDEST PUSH1 0x0 DUP1 REVERT JUMPDEST CALLVALUE DUP1 ISZERO PUSH2 0x8C JUMPI PUSH1 0x0 DUP1 REVERT JUMPDEST POP PUSH2 0xA7 PUSH1 0x4 DUP1 CALLDATASIZE SUB DUP2 ADD SWAP1 PUSH2 0xA2 SWAP2 SWAP1 PUSH2 0x71B JUMP JUMPDEST PUSH2 0x1CE JUMP JUMPDEST PUSH1 0x40 MLOAD PUSH2 0xB4 SWAP2 SWAP1 PUSH2 0x763 JUMP JUMPDEST PUSH1 0x40 MLOAD DUP1 SWAP2 SUB SWAP1 RETURN JUMPDEST CALLVALUE DUP1 ISZERO PUSH2 0xC9 JUMPI PUSH1 0x0 DUP1 REVERT JUMPDEST POP PUSH2 0xD2 PUSH2 0x1EE JUMP JUMPDEST PUSH1 0x40 MLOAD PUSH2 0xDF SWAP2 SWAP1 PUSH2 0x797 JUMP JUMPDEST PUSH1 0x40 MLOAD DUP1 SWAP2 SUB SWAP1 RETURN JUMPDEST PUSH2 0x102 PUSH1 0x4 DUP1 CALLDATASIZE SUB DUP2 ADD SWAP1 PUSH2 0xFD SWAP2 SWAP1 PUSH2 0x8F8 JUMP JUMPDEST PUSH2 0x1F4 JUMP JUMPDEST STOP JUMPDEST CALLVALUE DUP1 ISZERO PUSH2 0x110 JUMPI PUSH1 0x0 DUP1 REVERT JUMPDEST POP PUSH2 0x119 PUSH2 0x34A JUMP JUMPDEST PUSH1 0x40 MLOAD PUSH2 0x126 SWAP2 SWAP1 PUSH2 0x950 JUMP JUMPDEST PUSH1 0x40 MLOAD DUP1 SWAP2 SUB SWAP1 RETURN JUMPDEST CALLVALUE DUP1 ISZERO PUSH2 0x13B JUMPI PUSH1 0x0 DUP1 REVERT JUMPDEST POP PUSH2 0x156 PUSH1 0x4 DUP1 CALLDATASIZE SUB DUP2 ADD SWAP1 PUSH2 0x151 SWAP2 SWAP1 PUSH2 0x8F8 JUMP JUMPDEST PUSH2 0x370 JUMP JUMPDEST PUSH1 0x40 MLOAD PUSH2 0x167 SWAP6 SWAP5 SWAP4 SWAP3 SWAP2 SWAP1 PUSH2 0x9F3 JUMP JUMPDEST PUSH1 0x40 MLOAD DUP1 SWAP2 SUB SWAP1 RETURN JUMPDEST CALLVALUE DUP1 ISZERO PUSH2 0x17C JUMPI PUSH1 0x0 DUP1 REVERT JUMPDEST POP PUSH2 0x185 PUSH2 0x471 JUMP JUMPDEST PUSH1 0x40 MLOAD PUSH2 0x192 SWAP2 SWAP1 PUSH2 0x797 JUMP JUMPDEST PUSH1 0x40 MLOAD DUP1 SWAP2 SUB SWAP1 RETURN JUMPDEST CALLVALUE DUP1 ISZERO PUSH2 0x1A7 JUMPI PUSH1 0x0 DUP1 REVERT JUMPDEST POP PUSH2 0x1C2 PUSH1 0x4 DUP1 CALLDATASIZE SUB DUP2 ADD SWAP1 PUSH2 0x1BD SWAP2 SWAP1 PUSH2 0xA79 JUMP JUMPDEST PUSH2 0x477 JUMP JUMPDEST STOP JUMPDEST PUSH2 0x1CC PUSH2 0x585 JUMP JUMPDEST STOP JUMPDEST PUSH1 0x3 PUSH1 0x20 MSTORE DUP1 PUSH1 0x0 MSTORE PUSH1 0x40 PUSH1 0x0 KECCAK256 PUSH1 0x0 SWAP2 POP SLOAD SWAP1 PUSH2 0x100 EXP SWAP1 DIV PUSH1 0xFF AND DUP2 JUMP JUMPDEST PUSH1 0x4 SLOAD DUP2 JUMP JUMPDEST PUSH1 0x0 DUP1 DUP3 PUSH1 0x40 MLOAD PUSH2 0x205 SWAP2 SWAP1 PUSH2 0xB54 JUMP JUMPDEST SWAP1 DUP2 MSTORE PUSH1 0x20 ADD PUSH1 0x40 MLOAD DUP1 SWAP2 SUB SWAP1 KECCAK256 SWAP1 POP PUSH1 0x3 PUSH1 0x0 CALLER PUSH20 0xFFFFFFFFFFFFFFFFFFFFFFFFFFFFFFFFFFFFFFFF AND PUSH20 0xFFFFFFFFFFFFFFFFFFFFFFFFFFFFFFFFFFFFFFFF AND DUP2 MSTORE PUSH1 0x20 ADD SWAP1 DUP2 MSTORE PUSH1 0x20 ADD PUSH1 0x0 KECCAK256 PUSH1 0x0 SWAP1 SLOAD SWAP1 PUSH2 0x100 EXP SWAP1 DIV PUSH1 0xFF AND PUSH2 0x26B JUMPI PUSH1 0x0 DUP1 REVERT JUMPDEST DUP1 PUSH1 0x4 ADD PUSH1 0x0 CALLER PUSH20 0xFFFFFFFFFFFFFFFFFFFFFFFFFFFFFFFFFFFFFFFF AND PUSH20 0xFFFFFFFFFFFFFFFFFFFFFFFFFFFFFFFFFFFFFFFF AND DUP2 MSTORE PUSH1 0x20 ADD SWAP1 DUP2 MSTORE PUSH1 0x20 ADD PUSH1 0x0 KECCAK256 PUSH1 0x0 SWAP1 SLOAD SWAP1 PUSH2 0x100 EXP SWAP1 DIV PUSH1 0xFF AND ISZERO PUSH2 0x2C4 JUMPI PUSH1 0x0 DUP1 REVERT JUMPDEST PUSH1 0x0 DUP2 PUSH1 0x1 ADD SLOAD GT ISZERO PUSH2 0x346 JUMPI PUSH1 0x1 DUP2 PUSH1 0x4 ADD PUSH1 0x0 CALLER PUSH20 0xFFFFFFFFFFFFFFFFFFFFFFFFFFFFFFFFFFFFFFFF AND PUSH20 0xFFFFFFFFFFFFFFFFFFFFFFFFFFFFFFFFFFFFFFFF AND DUP2 MSTORE PUSH1 0x20 ADD SWAP1 DUP2 MSTORE PUSH1 0x20 ADD PUSH1 0x0 KECCAK256 PUSH1 0x0 PUSH2 0x100 EXP DUP2 SLOAD DUP2 PUSH1 0xFF MUL NOT AND SWAP1 DUP4 ISZERO ISZERO MUL OR SWAP1 SSTORE POP DUP1 PUSH1 0x3 ADD PUSH1 0x0 DUP2 SLOAD DUP1 SWAP3 SWAP2 SWAP1 PUSH2 0x340 SWAP1 PUSH2 0xB9A JUMP JUMPDEST SWAP2 SWAP1 POP SSTORE POP JUMPDEST POP POP JUMP JUMPDEST PUSH1 0x1 PUSH1 0x0 SWAP1 SLOAD SWAP1 PUSH2 0x100 EXP SWAP1 DIV PUSH20 0xFFFFFFFFFFFFFFFFFFFFFFFFFFFFFFFFFFFFFFFF AND DUP2 JUMP JUMPDEST PUSH1 0x0 DUP2 DUP1 MLOAD PUSH1 0x20 DUP2 ADD DUP3 ADD DUP1 MLOAD DUP5 DUP3 MSTORE PUSH1 0x20 DUP4 ADD PUSH1 0x20 DUP6 ADD KECCAK256 DUP2 DUP4 MSTORE DUP1 SWAP6 POP POP POP POP POP POP PUSH1 0x0 SWAP2 POP SWAP1 POP DUP1 PUSH1 0x0 ADD DUP1 SLOAD PUSH2 0x3A9 SWAP1 PUSH2 0xC11 JUMP JUMPDEST DUP1 PUSH1 0x1F ADD PUSH1 0x20 DUP1 SWAP2 DIV MUL PUSH1 0x20 ADD PUSH1 0x40 MLOAD SWAP1 DUP2 ADD PUSH1 0x40 MSTORE DUP1 SWAP3 SWAP2 SWAP1 DUP2 DUP2 MSTORE PUSH1 0x20 ADD DUP3 DUP1 SLOAD PUSH2 0x3D5 SWAP1 PUSH2 0xC11 JUMP JUMPDEST DUP1 ISZERO PUSH2 0x422 JUMPI DUP1 PUSH1 0x1F LT PUSH2 0x3F7 JUMPI PUSH2 0x100 DUP1 DUP4 SLOAD DIV MUL DUP4 MSTORE SWAP2 PUSH1 0x20 ADD SWAP2 PUSH2 0x422 JUMP JUMPDEST DUP3 ADD SWAP2 SWAP1 PUSH1 0x0 MSTORE PUSH1 0x20 PUSH1 0x0 KECCAK256 SWAP1 JUMPDEST DUP2 SLOAD DUP2 MSTORE SWAP1 PUSH1 0x1 ADD SWAP1 PUSH1 0x20 ADD DUP1 DUP4 GT PUSH2 0x405 JUMPI DUP3 SWAP1 SUB PUSH1 0x1F AND DUP3 ADD SWAP2 JUMPDEST POP POP POP POP POP SWAP1 DUP1 PUSH1 0x1 ADD SLOAD SWAP1 DUP1 PUSH1 0x2 ADD PUSH1 0x0 SWAP1 SLOAD SWAP1 PUSH2 0x100 EXP SWAP1 DIV PUSH20 0xFFFFFFFFFFFFFFFFFFFFFFFFFFFFFFFFFFFFFFFF AND SWAP1 DUP1 PUSH1 0x2 ADD PUSH1 0x14 SWAP1 SLOAD SWAP1 PUSH2 0x100 EXP SWAP1 DIV PUSH1 0xFF AND SWAP1 DUP1 PUSH1 0x3 ADD SLOAD SWAP1 POP DUP6 JUMP JUMPDEST PUSH1 0x2 SLOAD DUP2 JUMP JUMPDEST PUSH1 0x1 PUSH1 0x0 SWAP1 SLOAD SWAP1 PUSH2 0x100 EXP SWAP1 DIV PUSH20 0xFFFFFFFFFFFFFFFFFFFFFFFFFFFFFFFFFFFFFFFF AND PUSH20 0xFFFFFFFFFFFFFFFFFFFFFFFFFFFFFFFFFFFFFFFF AND CALLER PUSH20 0xFFFFFFFFFFFFFFFFFFFFFFFFFFFFFFFFFFFFFFFF AND EQ PUSH2 0x4D1 JUMPI PUSH1 0x0 DUP1 REVERT JUMPDEST PUSH1 0x0 DUP1 DUP6 PUSH1 0x40 MLOAD PUSH2 0x4E2 SWAP2 SWAP1 PUSH2 0xB54 JUMP JUMPDEST SWAP1 DUP2 MSTORE PUSH1 0x20 ADD PUSH1 0x40 MLOAD DUP1 SWAP2 SUB SWAP1 KECCAK256 SWAP1 POP DUP4 DUP2 PUSH1 0x0 ADD SWAP1 DUP1 MLOAD SWAP1 PUSH1 0x20 ADD SWAP1 PUSH2 0x50A SWAP3 SWAP2 SWAP1 PUSH2 0x606 JUMP JUMPDEST POP DUP3 DUP2 PUSH1 0x1 ADD DUP2 SWAP1 SSTORE POP DUP2 DUP2 PUSH1 0x2 ADD PUSH1 0x0 PUSH2 0x100 EXP DUP2 SLOAD DUP2 PUSH20 0xFFFFFFFFFFFFFFFFFFFFFFFFFFFFFFFFFFFFFFFF MUL NOT AND SWAP1 DUP4 PUSH20 0xFFFFFFFFFFFFFFFFFFFFFFFFFFFFFFFFFFFFFFFF AND MUL OR SWAP1 SSTORE POP PUSH1 0x0 DUP2 PUSH1 0x2 ADD PUSH1 0x14 PUSH2 0x100 EXP DUP2 SLOAD DUP2 PUSH1 0xFF MUL NOT AND SWAP1 DUP4 ISZERO ISZERO MUL OR SWAP1 SSTORE POP PUSH1 0x0 DUP2 PUSH1 0x3 ADD DUP2 SWAP1 SSTORE POP POP POP POP POP POP JUMP JUMPDEST PUSH1 0x2 SLOAD CALLVALUE LT ISZERO PUSH2 0x594 JUMPI PUSH1 0x0 DUP1 REVERT JUMPDEST PUSH1 0x1 PUSH1 0x3 PUSH1 0x0 CALLER PUSH20 0xFFFFFFFFFFFFFFFFFFFFFFFFFFFFFFFFFFFFFFFF AND PUSH20 0xFFFFFFFFFFFFFFFFFFFFFFFFFFFFFFFFFFFFFFFF AND DUP2 MSTORE PUSH1 0x20 ADD SWAP1 DUP2 MSTORE PUSH1 0x20 ADD PUSH1 0x0 KECCAK256 PUSH1 0x0 PUSH2 0x100 EXP DUP2 SLOAD DUP2 PUSH1 0xFF MUL NOT AND SWAP1 DUP4 ISZERO ISZERO MUL OR SWAP1 SSTORE POP PUSH1 0x4 PUSH1 0x0 DUP2 SLOAD DUP1 SWAP3 SWAP2 SWAP1 PUSH2 0x5FF SWAP1 PUSH2 0xB9A JUMP JUMPDEST SWAP2 SWAP1 POP SSTORE POP JUMP JUMPDEST DUP3 DUP1 SLOAD PUSH2 0x612 SWAP1 PUSH2 0xC11 JUMP JUMPDEST SWAP1 PUSH1 0x0 MSTORE PUSH1 0x20 PUSH1 0x0 KECCAK256 SWAP1 PUSH1 0x1F ADD PUSH1 0x20 SWAP1 DIV DUP2 ADD SWAP3 DUP3 PUSH2 0x634 JUMPI PUSH1 0x0 DUP6 SSTORE PUSH2 0x67B JUMP JUMPDEST DUP3 PUSH1 0x1F LT PUSH2 0x64D JUMPI DUP1 MLOAD PUSH1 0xFF NOT AND DUP4 DUP1 ADD OR DUP6 SSTORE PUSH2 0x67B JUMP JUMPDEST DUP3 DUP1 ADD PUSH1 0x1 ADD DUP6 SSTORE DUP3 ISZERO PUSH2 0x67B JUMPI SWAP2 DUP3 ADD JUMPDEST DUP3 DUP2 GT ISZERO PUSH2 0x67A JUMPI DUP3 MLOAD DUP3 SSTORE SWAP2 PUSH1 0x20 ADD SWAP2 SWAP1 PUSH1 0x1 ADD SWAP1 PUSH2 0x65F JUMP JUMPDEST JUMPDEST POP SWAP1 POP PUSH2 0x688 SWAP2 SWAP1 PUSH2 0x68C JUMP JUMPDEST POP SWAP1 JUMP JUMPDEST JUMPDEST DUP1 DUP3 GT ISZERO PUSH2 0x6A5 JUMPI PUSH1 0x0 DUP2 PUSH1 0x0 SWAP1 SSTORE POP PUSH1 0x1 ADD PUSH2 0x68D JUMP JUMPDEST POP SWAP1 JUMP JUMPDEST PUSH1 0x0 PUSH1 0x40 MLOAD SWAP1 POP SWAP1 JUMP JUMPDEST PUSH1 0x0 DUP1 REVERT JUMPDEST PUSH1 0x0 DUP1 REVERT JUMPDEST PUSH1 0x0 PUSH20 0xFFFFFFFFFFFFFFFFFFFFFFFFFFFFFFFFFFFFFFFF DUP3 AND SWAP1 POP SWAP2 SWAP1 POP JUMP JUMPDEST PUSH1 0x0 PUSH2 0x6E8 DUP3 PUSH2 0x6BD JUMP JUMPDEST SWAP1 POP SWAP2 SWAP1 POP JUMP JUMPDEST PUSH2 0x6F8 DUP2 PUSH2 0x6DD JUMP JUMPDEST DUP2 EQ PUSH2 0x703 JUMPI PUSH1 0x0 DUP1 REVERT JUMPDEST POP JUMP JUMPDEST PUSH1 0x0 DUP2 CALLDATALOAD SWAP1 POP PUSH2 0x715 DUP2 PUSH2 0x6EF JUMP JUMPDEST SWAP3 SWAP2 POP POP JUMP JUMPDEST PUSH1 0x0 PUSH1 0x20 DUP3 DUP5 SUB SLT ISZERO PUSH2 0x731 JUMPI PUSH2 0x730 PUSH2 0x6B3 JUMP JUMPDEST JUMPDEST PUSH1 0x0 PUSH2 0x73F DUP5 DUP3 DUP6 ADD PUSH2 0x706 JUMP JUMPDEST SWAP2 POP POP SWAP3 SWAP2 POP POP JUMP JUMPDEST PUSH1 0x0 DUP2 ISZERO ISZERO SWAP1 POP SWAP2 SWAP1 POP JUMP JUMPDEST PUSH2 0x75D DUP2 PUSH2 0x748 JUMP JUMPDEST DUP3 MSTORE POP POP JUMP JUMPDEST PUSH1 0x0 PUSH1 0x20 DUP3 ADD SWAP1 POP PUSH2 0x778 PUSH1 0x0 DUP4 ADD DUP5 PUSH2 0x754 JUMP JUMPDEST SWAP3 SWAP2 POP POP JUMP JUMPDEST PUSH1 0x0 DUP2 SWAP1 POP SWAP2 SWAP1 POP JUMP JUMPDEST PUSH2 0x791 DUP2 PUSH2 0x77E JUMP JUMPDEST DUP3 MSTORE POP POP JUMP JUMPDEST PUSH1 0x0 PUSH1 0x20 DUP3 ADD SWAP1 POP PUSH2 0x7AC PUSH1 0x0 DUP4 ADD DUP5 PUSH2 0x788 JUMP JUMPDEST SWAP3 SWAP2 POP POP JUMP JUMPDEST PUSH1 0x0 DUP1 REVERT JUMPDEST PUSH1 0x0 DUP1 REVERT JUMPDEST PUSH1 0x0 PUSH1 0x1F NOT PUSH1 0x1F DUP4 ADD AND SWAP1 POP SWAP2 SWAP1 POP JUMP JUMPDEST PUSH32 0x4E487B7100000000000000000000000000000000000000000000000000000000 PUSH1 0x0 MSTORE PUSH1 0x41 PUSH1 0x4 MSTORE PUSH1 0x24 PUSH1 0x0 REVERT JUMPDEST PUSH2 0x805 DUP3 PUSH2 0x7BC JUMP JUMPDEST DUP2 ADD DUP2 DUP2 LT PUSH8 0xFFFFFFFFFFFFFFFF DUP3 GT OR ISZERO PUSH2 0x824 JUMPI PUSH2 0x823 PUSH2 0x7CD JUMP JUMPDEST JUMPDEST DUP1 PUSH1 0x40 MSTORE POP POP POP JUMP JUMPDEST PUSH1 0x0 PUSH2 0x837 PUSH2 0x6A9 JUMP JUMPDEST SWAP1 POP PUSH2 0x843 DUP3 DUP3 PUSH2 0x7FC JUMP JUMPDEST SWAP2 SWAP1 POP JUMP JUMPDEST PUSH1 0x0 PUSH8 0xFFFFFFFFFFFFFFFF DUP3 GT ISZERO PUSH2 0x863 JUMPI PUSH2 0x862 PUSH2 0x7CD JUMP JUMPDEST JUMPDEST PUSH2 0x86C DUP3 PUSH2 0x7BC JUMP JUMPDEST SWAP1 POP PUSH1 0x20 DUP2 ADD SWAP1 POP SWAP2 SWAP1 POP JUMP JUMPDEST DUP3 DUP2 DUP4 CALLDATACOPY PUSH1 0x0 DUP4 DUP4 ADD MSTORE POP POP POP JUMP JUMPDEST PUSH1 0x0 PUSH2 0x89B PUSH2 0x896 DUP5 PUSH2 0x848 JUMP JUMPDEST PUSH2 0x82D JUMP JUMPDEST SWAP1 POP DUP3 DUP2 MSTORE PUSH1 0x20 DUP2 ADD DUP5 DUP5 DUP5 ADD GT ISZERO PUSH2 0x8B7 JUMPI PUSH2 0x8B6 PUSH2 0x7B7 JUMP JUMPDEST JUMPDEST PUSH2 0x8C2 DUP5 DUP3 DUP6 PUSH2 0x879 JUMP JUMPDEST POP SWAP4 SWAP3 POP POP POP JUMP JUMPDEST PUSH1 0x0 DUP3 PUSH1 0x1F DUP4 ADD SLT PUSH2 0x8DF JUMPI PUSH2 0x8DE PUSH2 0x7B2 JUMP JUMPDEST JUMPDEST DUP2 CALLDATALOAD PUSH2 0x8EF DUP5 DUP3 PUSH1 0x20 DUP7 ADD PUSH2 0x888 JUMP JUMPDEST SWAP2 POP POP SWAP3 SWAP2 POP POP JUMP JUMPDEST PUSH1 0x0 PUSH1 0x20 DUP3 DUP5 SUB SLT ISZERO PUSH2 0x90E JUMPI PUSH2 0x90D PUSH2 0x6B3 JUMP JUMPDEST JUMPDEST PUSH1 0x0 DUP3 ADD CALLDATALOAD PUSH8 0xFFFFFFFFFFFFFFFF DUP2 GT ISZERO PUSH2 0x92C JUMPI PUSH2 0x92B PUSH2 0x6B8 JUMP JUMPDEST JUMPDEST PUSH2 0x938 DUP5 DUP3 DUP6 ADD PUSH2 0x8CA JUMP JUMPDEST SWAP2 POP POP SWAP3 SWAP2 POP POP JUMP JUMPDEST PUSH2 0x94A DUP2 PUSH2 0x6DD JUMP JUMPDEST DUP3 MSTORE POP POP JUMP JUMPDEST PUSH1 0x0 PUSH1 0x20 DUP3 ADD SWAP1 POP PUSH2 0x965 PUSH1 0x0 DUP4 ADD DUP5 PUSH2 0x941 JUMP JUMPDEST SWAP3 SWAP2 POP POP JUMP JUMPDEST PUSH1 0x0 DUP2 MLOAD SWAP1 POP SWAP2 SWAP1 POP JUMP JUMPDEST PUSH1 0x0 DUP3 DUP3 MSTORE PUSH1 0x20 DUP3 ADD SWAP1 POP SWAP3 SWAP2 POP POP JUMP JUMPDEST PUSH1 0x0 JUMPDEST DUP4 DUP2 LT ISZERO PUSH2 0x9A5 JUMPI DUP1 DUP3 ADD MLOAD DUP2 DUP5 ADD MSTORE PUSH1 0x20 DUP2 ADD SWAP1 POP PUSH2 0x98A JUMP JUMPDEST DUP4 DUP2 GT ISZERO PUSH2 0x9B4 JUMPI PUSH1 0x0 DUP5 DUP5 ADD MSTORE JUMPDEST POP POP POP POP JUMP JUMPDEST PUSH1 0x0 PUSH2 0x9C5 DUP3 PUSH2 0x96B JUMP JUMPDEST PUSH2 0x9CF DUP2 DUP6 PUSH2 0x976 JUMP JUMPDEST SWAP4 POP PUSH2 0x9DF DUP2 DUP6 PUSH1 0x20 DUP7 ADD PUSH2 0x987 JUMP JUMPDEST PUSH2 0x9E8 DUP2 PUSH2 0x7BC JUMP JUMPDEST DUP5 ADD SWAP2 POP POP SWAP3 SWAP2 POP POP JUMP JUMPDEST PUSH1 0x0 PUSH1 0xA0 DUP3 ADD SWAP1 POP DUP2 DUP2 SUB PUSH1 0x0 DUP4 ADD MSTORE PUSH2 0xA0D DUP2 DUP9 PUSH2 0x9BA JUMP JUMPDEST SWAP1 POP PUSH2 0xA1C PUSH1 0x20 DUP4 ADD DUP8 PUSH2 0x788 JUMP JUMPDEST PUSH2 0xA29 PUSH1 0x40 DUP4 ADD DUP7 PUSH2 0x941 JUMP JUMPDEST PUSH2 0xA36 PUSH1 0x60 DUP4 ADD DUP6 PUSH2 0x754 JUMP JUMPDEST PUSH2 0xA43 PUSH1 0x80 DUP4 ADD DUP5 PUSH2 0x788 JUMP JUMPDEST SWAP7 SWAP6 POP POP POP POP POP POP JUMP JUMPDEST PUSH2 0xA56 DUP2 PUSH2 0x77E JUMP JUMPDEST DUP2 EQ PUSH2 0xA61 JUMPI PUSH1 0x0 DUP1 REVERT JUMPDEST POP JUMP JUMPDEST PUSH1 0x0 DUP2 CALLDATALOAD SWAP1 POP PUSH2 0xA73 DUP2 PUSH2 0xA4D JUMP JUMPDEST SWAP3 SWAP2 POP POP JUMP JUMPDEST PUSH1 0x0 DUP1 PUSH1 0x0 DUP1 PUSH1 0x80 DUP6 DUP8 SUB SLT ISZERO PUSH2 0xA93 JUMPI PUSH2 0xA92 PUSH2 0x6B3 JUMP JUMPDEST JUMPDEST PUSH1 0x0 DUP6 ADD CALLDATALOAD PUSH8 0xFFFFFFFFFFFFFFFF DUP2 GT ISZERO PUSH2 0xAB1 JUMPI PUSH2 0xAB0 PUSH2 0x6B8 JUMP JUMPDEST JUMPDEST PUSH2 0xABD DUP8 DUP3 DUP9 ADD PUSH2 0x8CA JUMP JUMPDEST SWAP5 POP POP PUSH1 0x20 DUP6 ADD CALLDATALOAD PUSH8 0xFFFFFFFFFFFFFFFF DUP2 GT ISZERO PUSH2 0xADE JUMPI PUSH2 0xADD PUSH2 0x6B8 JUMP JUMPDEST JUMPDEST PUSH2 0xAEA DUP8 DUP3 DUP9 ADD PUSH2 0x8CA JUMP JUMPDEST SWAP4 POP POP PUSH1 0x40 PUSH2 0xAFB DUP8 DUP3 DUP9 ADD PUSH2 0xA64 JUMP JUMPDEST SWAP3 POP POP PUSH1 0x60 PUSH2 0xB0C DUP8 DUP3 DUP9 ADD PUSH2 0x706 JUMP JUMPDEST SWAP2 POP POP SWAP3 SWAP6 SWAP2 SWAP5 POP SWAP3 POP JUMP JUMPDEST PUSH1 0x0 DUP2 SWAP1 POP SWAP3 SWAP2 POP POP JUMP JUMPDEST PUSH1 0x0 PUSH2 0xB2E DUP3 PUSH2 0x96B JUMP JUMPDEST PUSH2 0xB38 DUP2 DUP6 PUSH2 0xB18 JUMP JUMPDEST SWAP4 POP PUSH2 0xB48 DUP2 DUP6 PUSH1 0x20 DUP7 ADD PUSH2 0x987 JUMP JUMPDEST DUP1 DUP5 ADD SWAP2 POP POP SWAP3 SWAP2 POP POP JUMP JUMPDEST PUSH1 0x0 PUSH2 0xB60 DUP3 DUP5 PUSH2 0xB23 JUMP JUMPDEST SWAP2 POP DUP2 SWAP1 POP SWAP3 SWAP2 POP POP JUMP JUMPDEST PUSH32 0x4E487B7100000000000000000000000000000000000000000000000000000000 PUSH1 0x0 MSTORE PUSH1 0x11 PUSH1 0x4 MSTORE PUSH1 0x24 PUSH1 0x0 REVERT JUMPDEST PUSH1 0x0 PUSH2 0xBA5 DUP3 PUSH2 0x77E JUMP JUMPDEST SWAP2 POP PUSH32 0xFFFFFFFFFFFFFFFFFFFFFFFFFFFFFFFFFFFFFFFFFFFFFFFFFFFFFFFFFFFFFFFF DUP3 SUB PUSH2 0xBD7 JUMPI PUSH2 0xBD6 PUSH2 0xB6B JUMP JUMPDEST JUMPDEST PUSH1 0x1 DUP3 ADD SWAP1 POP SWAP2 SWAP1 POP JUMP JUMPDEST PUSH32 0x4E487B7100000000000000000000000000000000000000000000000000000000 PUSH1 0x0 MSTORE PUSH1 0x22 PUSH1 0x4 MSTORE PUSH1 0x24 PUSH1 0x0 REVERT JUMPDEST PUSH1 0x0 PUSH1 0x2 DUP3 DIV SWAP1 POP PUSH1 0x1 DUP3 AND DUP1 PUSH2 0xC29 JUMPI PUSH1 0x7F DUP3 AND SWAP2 POP JUMPDEST PUSH1 0x20 DUP3 LT DUP2 SUB PUSH2 0xC3C JUMPI PUSH2 0xC3B PUSH2 0xBE2 JUMP JUMPDEST JUMPDEST POP SWAP2 SWAP1 POP JUMP INVALID LOG2 PUSH5 0x6970667358 0x22 SLT KECCAK256 0xC6 0xCD 0xD SHR DUP1 0xD2 0x28 JUMPDEST EXTCODESIZE KECCAK256 RETURNDATACOPY SWAP1 PUSH29 0x81201A024CFA845B9CF041BF02F7B354AD25C764736F6C634300080D00 CALLER "},"gasEstimates":{"creation":{"codeDepositCost":"638400","executionCost":"infinite","totalCost":"infinite"},"external":{"approveRequest(string)":"infinite","approverCount()":"2452","approvers(address)":"2846","contribute()":"51024","createRequest(string,string,uint256,address)":"infinite","manager()":"2581","minimumContribution()":"2451","requests(string)":"infinite"}},"methodIdentifiers":{"approveRequest(string)":"1e0715df","approverCount()":"128e9be6","approvers(address)":"0a144391","contribute()":"d7bb99ba","createRequest(string,string,uint256,address)":"c7741265","manager()":"481c6a75","minimumContribution()":"937e09b1","requests(string)":"692d51d2"}},"storageLayout":{"storage":[{"astId":59,"contract":"Kickstarter.sol:Campaign","label":"requests","offset":0,"slot":"0","type":"t_mapping(t_string_memory_ptr,t_struct(Request)54_storage)"},{"astId":61,"contract":"Kickstarter.sol:Campaign","label":"manager","offset":0,"slot":"1","type":"t_address"},{"astId":63,"contract":"Kickstarter.sol:Campaign","label":"minimumContribution","offset":0,"slot":"2","type":"t_uint256"},{"astId":67,"contract":"Kickstarter.sol:Campaign","label":"approvers","offset":0,"slot":"3","type":"t_mapping(t_address,t_bool)"},{"astId":69,"contract":"Kickstarter.sol:Campaign","label":"approverCount","offset":0,"slot":"4","type":"t_uint256"}],"types":{"t_address":{"encoding":"inplace","label":"address","numberOfBytes":"20"},"t_bool":{"encoding":"inplace","label":"bool","numberOfBytes":"1"},"t_mapping(t_address,t_bool)":{"encoding":"mapping","key":"t_address","label":"mapping(address => bool)","numberOfBytes":"32","value":"t_bool"},"t_mapping(t_string_memory_ptr,t_struct(Request)54_storage)":{"encoding":"mapping","key":"t_string_memory_ptr","label":"mapping(string => struct Campaign.Request)","numberOfBytes":"32","value":"t_struct(Request)54_storage"},"t_string_memory_ptr":{"encoding":"bytes","label":"string","numberOfBytes":"32"},"t_string_storage":{"encoding":"bytes","label":"string","numberOfBytes":"32"},"t_struct(Request)54_storage":{"encoding":"inplace","label":"struct Campaign.Request","members":[{"astId":41,"contract":"Kickstarter.sol:Campaign","label":"description","offset":0,"slot":"0","type":"t_string_storage"},{"astId":43,"contract":"Kickstarter.sol:Campaign","label":"value","offset":0,"slot":"1","type":"t_uint256"},{"astId":45,"contract":"Kickstarter.sol:Campaign","label":"recipient","offset":0,"slot":"2","type":"t_address"},{"astId":47,"contract":"Kickstarter.sol:Campaign","label":"completed","offset":20,"slot":"2","type":"t_bool"},{"astId":49,"contract":"Kickstarter.sol:Campaign","label":"approvalCount","offset":0,"slot":"3","type":"t_uint256"},{"astId":53,"contract":"Kickstarter.sol:Campaign","label":"approvals","offset":0,"slot":"4","type":"t_mapping(t_address,t_bool)"}],"numberOfBytes":"160"},"t_uint256":{"encoding":"inplace","label":"uint256","numberOfBytes":"32"}}},"userdoc":{"kind":"user","methods":{},"version":1}}